:0400000080EF00F09D
:08000800046ED8CF05F0E0CF33
:1000100006F00001E9CF0CF0EACF07F0E1CF08F0DD
:10002000E2CF09F0D9CF0AF0DACF0BF0F3CF12F01C
:10003000F4CF13F0FACF14F000C00EF001C00FF0AF
:1000400002C010F003C011F0F2AA2AEF00F0F2B4DF
:100050004BEF00F00EC000F00FC001F010C002F036
:1000600011C003F00CC0E9FF07C0EAFF078E08C00B
:10007000E1FF09C0E2FF0AC0D9FF0BC0DAFF12C0DE
:10008000F3FF13C0F4FF14C0FAFF045006C0E0FFF2
:1000900005C0D8FF10003B0ED66EF294212A2150E5
:1000A0004E080FE2036A2050160FE96E000E03207F
:1000B000EA6EEFCF8CFF202A20500A0801E1206A67
:1000C000216AF2942AEF00F0D38CD38AD388010EF0
:1000D000936E956A816A8C6AD08EF28EF28AF2945F
:1000E000F28CD58ED58CD59AD598D596D584D582D7
:0A00F000D590390ED66E8AEF00F0AD
:10010000F86AD09E078EC150C00B0F09C16E070E52
:10011000B46EDAD73F0E166E060E176E5B0E186EB3
:100120004F0E196E660E1A6E6D0E1B6E7D0E1C6ED6
:10013000070E1D6E7F0E1E6E6F0E1F6E16C08CFF9B
:0601400060D0FED70300B1
:0E02020081A004D0D59E81B0D58E03D0D59EAC
:0802100081B0D58EA1EF00F0D2
:020000040030CA
:0E00000000C91E1E000781000FC00FE00F4058
:00000001FF
;PIC18F4520
;CRC=2D84  CREATED="10-Jul-23 09:36"
