:0400000080EF00F09D
:08000800046ED8CF05F0E0CF33
:1000100006F00001E9CF0CF0EACF07F0E1CF08F0DD
:10002000E2CF09F0D9CF0AF0DACF0BF0F3CF12F01C
:10003000F4CF13F0FACF14F000C00EF001C00FF0AF
:1000400002C010F003C011F09DA02AEF00F09EB096
:1000500042EF02F09DAC30EF00F09EBC73EF00F079
:100060000EC000F00FC001F010C002F011C003F08C
:100070000CC0E9FF07C0EAFF078E08C0E1FF09C016
:10008000E2FF0AC0D9FF0BC0DAFF12C0F3FF13C0B2
:10009000F4FF14C0FAFF045006C0E0FF05C0D8FF0B
:1000A0001000F2CF0DF0F29EF76ABC0FF66E000E54
:1000B000F7220900F5500DBEF28E12000C4D455688
:1000C0004355542059415A493A200000016603D053
:1000D000026602D007D0022A00C0EEFF012EFCD734
:1000E000022EFAD712009EAC05D0C2B203D06BD15B
:0C00F0009E9C01D09E9C9E9C30EF00F076
:10010000F86AD09E078E1B6AC76BC66BC150C00BC6
:100110000F09C16E070EB46E01D21FD262D27FD218
:10012000CCD219AA03D0199AC86BCAD219A405D087
:10013000199481CFC8F0C96BDFD219A202D01992ED
:0801400022D3E9D3EDD703003F
:0E020200F2CF0DF0F29EF76A1C0FF66E020EA0
:10021000F7220900F5500DBEF28E12000D4C7574D8
:1002200066656E206269722079617A6920676972F9
:10023000696E697A3A200000F2CF0DF0F29EF76AFB
:10024000520FF66E020EF7220900F5500DBEF28E27
:1002500012000D4C696D6974204173696C646921E9
:1002600021210000F2CF0DF0F29EF76A7E0FF66EAC
:10027000020EF7220900F5500DBEF28E1200494E13
:10028000464F524D454C454B54524F4E494B4152AF
:100290002D4745202020205354414A594552000003
:1002A00054454D503A254C75256343200000D251EA
:1002B000D403F3CF01F0F4CF00F0D503F3500026C0
:1002C000D351D403F3500020026EFAEF01F0C7C0FF
:1002D000EAFFC6C0E9FFDBC0EFFFE92AD8B4EA2A8B
:1002E000EF6AC62BD8B4C72B12000900F6CFD3F0A3
:1002F000F7CFD4F0F5CFDBF0EADFD3C0F6FFD4C000
:10030000F7FFD22FF2D70FEF02F0EACFDAF0E9CF02
:10031000D9F0D339F009D56FD527E20FD66F320F58
:10032000D86FD3510F0BD627D627D827E90FD76F11
:10033000D727D727D2390F0BD727D827D737D83782
:10034000D81FD837D2510F0BD827D537070ED46F07
:100350000A0ED707D827FDE3D607D727FDE3D50731
:10036000D627FDE3D407D527FDE3EA6AD40EE96E6C
:10037000070ED915D99DE926000EEA22E950D808C2
:1003800003E1EA5201E1D98DEF50006E08E1D9BDD9
:1003900006D0D9B913D0D9B702D0200E03D0D9874F
:1003A000D999300E0026EACFD3F0E9CFD2F000C0C1
:1003B000DBF08DDFD3C0EAFFD2C0E9FFEE50D9AD4C
:1003C000DDD716EF02F0EA6AA50EE96E006A026A4E
:1003D000A0C001F07BDEC4CFCFF0CE6BC350CE27E0
:1003E000000ECF23CFC0D3F0CEC0D2F0D56B7D0EA0
:1003F000D46F5DD702C0D3F001C0D2F0800ED227F7
:10040000000ED323D3C0D0F0D16BC76BA50EC66F3F
:10041000A00EF66E020EF76E050ED26F66D7100EA6
:10042000E96ED1C0D3F0D0C0D2F06FD7DF0EDB6F52
:100430004EDF430EDB6F4BDF200EDB6F48DF78EFC4
:1004400000F0016A026A006A036AD15102E1D051E8
:1004500018E0100ED26FD890CE37CF370036033663
:10046000D151035C02E1D051005C07E3D051005E42
:10047000D8A00306D151035ED88001360236D22FB0
:10048000EAD71200F80ECF6E300ECE6E9E90172A6D
:10049000D8B4182A18C0CFF017C0CEF0D16B140E04
:1004A000D06FCFDF00C0CEF003C0CFF0CE5303E15A
:1004B000CF5301E1198218C0CFF017C0CEF0D16B35
:1004C000320ED06FBEDF00C0CEF003C0CFF0CE53EF
:1004D00003E1CF5301E1198418C0CFF017C0CEF06B
:1004E000030ED16FE80ED06FACDF00C0CEF003C0BA
:1004F000CFF0CE5303E1CF5301E1198A185002081F
:100500000AE2FF0A03E11750E80805E21B5203E084
:10051000186A176AA12B9E9030EF00F0D38CD38A13
:10052000D388010E936E956A966A816A8C6A846A92
:10053000196AD08EF28EF28C9F809D809E90CD9E07
:10054000CD9CCD9ACD98CD96CD94CD92F80ECF6E10
:10055000300ECE6ECD808DEF00F0928080900E0E2A
:10056000C16EC1909D8C890EC06E8EEF00F0CD6B78
:10057000CD51CC5D02E3CD2BFBD71200CAC08CFF5E
:1005800084908482010ECC6FF2DF84921200C851F5
:10059000F00BC96FC9C0CAF0F1DFC839006EF00EA8
:1005A00000160050F00BC96FC9C0CAF0E7DF120097
:1005B000020EC86FECDFF5EF02F0280EC86FE7DF20
:1005C000F6EF02F00C0EC86FE2DFF7EF02F0060E56
:1005D000C86FDDDFF8EF02F0010EC86FD8DFF9EF6A
:1005E00002F0280ECC6FC3DFE3D7E7D7EBD7EFD706
:1005F000F3D7EA6AA50EE96EF2CFC8F0F29E200E9C
:10060000016EF76A000E2EDE0A000900F5CFEEFF3C
:10061000012EFBD7C8BFF28EC56B8FEF00F0949C04
:10062000948E0C0EAF6E200EAC6E900EAB6E0F0E55
:100630009D6F1B0E9E6F110E9F6F200EA06FEA6ABA
:100640005E0EE96EF2CFC8F0F29E9D51016E0BE096
:10065000F76A000E26DD0A000900F5CFEEFF012E35
:10066000FBD7C8BFF28EEA6A6D0EE96EF2CFC8F012
:10067000F29E9E51016E0BE0F76A000EC2DD0A0089
:100680000900F5CFEEFF012EFBD7C8BFF28EEA6A54
:10069000880EE96EF2CFC8F0F29E9F51016E0BE01A
:1006A000F76A000EC9DD0A000900F5CFEEFF012E42
:1006B000FBD7C8BFF28E90EF00F0040091EF00F07E
:1006C000C26AC835C26EC236FC0EC216C280C28271
:1006D00096EF00F0010E006ECB51016E04E0D89051
:1006E0000036012EFCD70050CA1502E1000E01D0E1
:1006F000010E016E81EF03F0C8C0CAF0C9C0CBF093
:10070000E9D7015203E1D8901A3603D0D8901A36AF
:100710001A801A50070B070805E1010E1B6E016EC7
:100720000BD00AD01A50070B05E11B6A000E016EB0
:1007300003D002D01BC001F09DEF00F0800EC86F07
:1007400026DFC6EF03F0C00EC86F21DFCAEF03F04B
:10075000CBC08CFF84808482010ECC6F08DF849232
:100760001200C951F00BCA6FCAC0CBF0F1DFC93912
:10077000006EF00E00160050F00BCA6FCAC0CBF02E
:10078000E7DFD9EF03F0C55301E1D8D7C551100811
:1007900001E1D9D7C5511F080EE3036AC551A50F62
:1007A000E96E000E0320EA6EEFCFC8F0C8C0C9F0B2
:1007B000D8D7C52B01D0C56BA1EF00F09EAA02D0FF
:1007C000AECF01F0E7EF03F0A491A16BF7D701C022
:1007D0005CF05C5008080CE15D520AE05D06036ABB
:1007E0005D501C0FE96E000E0320EA6EEF6A33D0F5
:1007F0005C500D081DE1A46BA483996B9A6B9B6BF5
:100800009C6BEA6AA50EE96EE26A1C0EE16E200E90
:10081000016EE6CFEEFF012EFCD7EA6A1C0EE96EF0
:10082000006A026A200E016E51DC5D6AA26B13D071
:100830005D501F0806E2040EA26FA485A49B9B6B6B
:100840000AD0036A5D501C0FE96E000E0320EA6EA9
:100850005CC0EFFF5D2A8EEF04F0ABA203D0AB9833
:100860000000AB88036ACA513C0FE96E000E0320FA
:10087000EA6EEFCFADFF9E988AEF04F0C85310E107
:10088000C9530EE1EA6A3C0EE96EE26A5E0EE16E61
:100890009D51016E04E0E6CFEEFF012EFCD737D06C
:1008A000C82D10D0C9530EE1EA6A3C0EE96EE26A27
:1008B0006D0EE16E9E51016E04E0E6CFEEFF012E5B
:1008C000FCD725D0C851020810E1C9530EE1EA6AED
:1008D0003C0EE96EE26A880EE16E9F51016E04E003
:1008E000E6CFEEFF012EFCD712D0C85103080FE16E
:1008F000C9530DE1EA6A3C0EE96EE26AA50EE16EAB
:10090000A051016E04E0E6CFEEFF012EFCD7C9C076
:10091000CAF0A3D712009EAA01D056D7A151000851
:1009200001E2A481A25109E0010A0EE0030A27E0D6
:10093000010A41E0070A5BE079D0A4A304D0A4A196
:1009400002D0010EA26F73D09EA818D0A4B716D003
:10095000C86B99C0C9F092DF010E9D5D995D0DE3F2
:10096000A487020EA26FEA6A3C0EE96E006A026A70
:10097000200E016E66EC00F001D0992B58D09EA895
:1009800019D0A4BD17D0030EC86F9CC0C9F076DF84
:10099000010EA05D9C5D0DE3A48D030EA26FEA6ABB
:1009A0003C0EE96E006A026A200E016E66EC00F0F1
:1009B00001D09C2B3CD09EA819D0A4B917D0010E11
:1009C000C86F9AC0C9F05ADF010E9E5D9A5D0DE3B3
:1009D000A489A26BA493EA6A3C0EE96E006A026ADB
:1009E000200E016E66EC00F001D09A2B20D09EA85C
:1009F0001CD0A4BB1AD0A4A518D0020EC86F9BC0EF
:100A0000C9F03CDF010E9F5D9B5D0EE3A48BA495B6
:100A1000EA6A3C0EE96E006A026A200E016E66EC1C
:100A200000F09B6BA26B01D09B2B01D0A26BA2EFBD
:020A300000F0D4
:020000040030CA
:0E00000000C91E05000781000FC00FE00F4071
:00000001FF
;PIC18F4520
;CRC=D0F9  CREATED="19-Jul-23 08:56"
