:0400000080EF00F09D
:08000800046ED8CF05F0E0CF33
:1000100006F00001E9CF0CF0EACF07F0E1CF08F0DD
:10002000E2CF09F0D9CF0AF0DACF0BF0F3CF12F01C
:10003000F4CF13F0FACF14F000C00EF001C00FF0AF
:1000400002C010F003C011F09DA02AEF00F09EB096
:1000500005EF03F00EC000F00FC001F010C002F079
:1000600011C003F00CC0E9FF07C0EAFF078E08C00B
:10007000E1FF09C0E2FF0AC0D9FF0BC0DAFF12C0DE
:10008000F3FF13C0F4FF14C0FAFF045006C0E0FFF2
:1000900005C0D8FF1000016A026A006A036ABB51FA
:1000A00002E1BA5118E0100EBC6FD890B837B937DA
:1000B00000360336BB51035C02E1BA51005C07E332
:1000C000BA51005ED8A00306BB51035ED88001364A
:1000D0000236BC2FEAD71EEF03F0A66BA651A55D32
:1000E00002E3A62BFBD71200A3C08CFF849084826E
:1000F000010EA56FF2DF8492120004009CEF00F065
:10010000F86AD09E078E700ED36ED350B8960C0E40
:10011000AF6EA20EAC6E900EAB6E000000009F6B37
:100120009E6BC150C00B0F09C16E070EB46E9C6B65
:100130009D6B9BD2E2D2E1D718A004D018903A521E
:1001400001E020D318A201D0189218AC1ED0189C40
:1001500048B00AD00F0EA26FF20EA16F070EA36F68
:10016000010EA46FCCEF05F048A20CD048A00AD035
:100170000F0EA26FF20EA16F070EA36F010EA46FF8
:0E0180003FEF08F0817E010E3A6ED5D70300E6
:0E040200F2CF0DF0F29EF76A1C0FF66E040E9C
:10041000F7220900F5500DBEF28E1200005EBCE21C
:10042000613FDD83C29C7E20A3FD1F419DC3217FD0
:10043000FCA2401E5F01E3BD3E6082DC237D9FC1C4
:10044000421CFEA0E1BF5D0380DE3C62BEE0025CB8
:10045000DF81633D7C22C09E1D43A1FF4618FAA4A4
:1004600027799BC584DA3866E5BB5907DB85673990
:10047000BAE406581947A5FB7826C49A653BD98784
:10048000045AB8E6A7F91B45C6987A24F8A6441A78
:1004900099C7257B3A6486D85B05E7B98CD2306E64
:1004A000EDB3510F4E10F2AC2F7193CD114FADF350
:1004B000702ECC92D38D6F31B2EC0E50AFF1134D44
:1004C000CE90722C6D33D18F0C52B0EE326C8ED038
:1004D000530DEFB1F0AE4C1291CF2D73CA94762824
:1004E000ABF517490856B4EA6937D58B5709EBB510
:1004F00036688AD495CB2977F4AA4816E9B7550B04
:1005000088D6346A2B7597C94A14F6A8742AC896F7
:10051000154BA9F7B6E80A54D7896B35F2CF0DF021
:10052000F29EF76A360FF66E050EF7220900F550B7
:100530000DBEF28E120044455649434520554E44A7
:100540004546494E45440000F2CF0DF0F29EF76A51
:10055000620FF66E050EF7220900F5500DBEF28E01
:1005600012002044455649434520444546494E45DE
:1005700044200000F2CF0DF0F29EF76A8E0FF66E67
:10058000050EF7220900F5500DBEF28E1200494EFD
:10059000464F524D454C454B54524F4E494B41529C
:1005A0002D4745202020205354414A5945520000F0
:1005B000524F4D25643A202530325820253032588C
:1005C0002025303258202025303258202025303246
:1005D0005820202530325820202530325820202520
:1005E0003032580D00004E6F206465766963657384
:1005F00020666F756E640D004E6F206465766963CA
:10060000657320666F756E640000F80ECF6E300E55
:10061000CE6E9E90162AD8B4172A1650010BB86FCA
:10062000B96BB85303E1B95301E1188017C0B9F0B1
:1006300016C0B8F0BB6B320EBA6F2DD500C0B8F043
:1006400003C0B9F0B85303E1B95301E11882175060
:10065000020808E2FF0A03E11650E70803E2188CDB
:10066000176A166A9E902AEF00F0D38CD38AD3883B
:10067000936A956A966A816A8C6A846A186AD08ECF
:10068000F28EF28C9F809D809E90CD9ECD9CCD9AC7
:10069000CD98CD96CD94CD92F80ECF6E300ECE6E15
:1006A000CD809AEF00F0A151F00BA26FA2C0A3F091
:1006B0001BDDA139006EF00E00160050F00BA26F8A
:1006C000A2C0A3F011DD1200020EA16FECDF81EFDA
:1006D00003F0280EA16FE7DF82EF03F00C0EA16F8D
:1006E000E2DF83EF03F0060EA16FDDDF84EF03F09E
:1006F000010EA16FD8DF85EF03F0280EA56FEDDCAA
:10070000E3D7E7D7EBD7EFD7F3D7EA6A190EE96E4D
:10071000F2CFA1F0F29E200E016EF76A000E2ADFE2
:100720000A000900F5CFEEFF012EFBD7A1BFF28E24
:10073000396A010E3A6E9BEF00F0800EA16FB3DFB5
:10074000C5EF03F0C00EA16FAEDFC9EF03F0A4C088
:100750008CFF84808482010EA56FBFDC849212001E
:10076000A251F00BA36FA3C0A4F0F1DFA239006E79
:10077000F00E00160050F00BA36FA3C0A4F0E7DF4B
:10078000D8EF03F0395201E1D8D73950100801E110
:10079000D9D739501F080EE3036A3950190FE96E93
:1007A000000E0320EA6EEFCFA1F0A1C0A2F0D8D7CF
:1007B000392A02D03A6A396AA2EF00F08290949006
:1007C0001200090EAF5F0BE3EA6AAF0EE96ED89034
:1007D000EF32EF5004E001D00000EF2EFDD7120001
:1007E000828094801200EADF00D000D0F9DF020E90
:1007F000006E002EFED700D00000AE9182B0AE8118
:100800004F0E006E002EFED700D0000EAEB1010ECE
:10081000016E1200AD6BD2DF020EAE6FF80EAF6F3D
:10082000D0DFAE2FFBD7DCDF2E0E006E002EFED702
:100830000000D9DF01C0ADF0020EAE6FD50EAF6F74
:10084000C0DFAE2FFBD7CCDFADC001F078EF04F0F6
:10085000AE6BAE51070813E3B1DF00D000D0ADA1FD
:1008600001D0BEDF2A0E006E002EFED700D00000A1
:10087000B7DF00D000D0D890AD33AE2BEAD783EFEE
:1008800004F09CDF00D000D0ABDF2A0E006E002EFB
:10089000FED700D00000A4DF00D000D0D4EF04F0D9
:1008A0008DDF2A0E006E002EFED700D0000098DFEC
:1008B000060E006E002EFED70000D4EF04F0475065
:1008C000AE19036AF2CFAFF0F29E9BDDAFBFF28E9E
:1008D000476E47C001F0E5EF04F0010EA56FA66B6F
:1008E000A76BAB6FA86B476A4652D8A481D092D74A
:1008F000015206E0446A466A456A000E016E82D0E3
:10090000F00EAD6FA5D76FDF01C0A9F06CDF01C09D
:10091000AAF0A92D04D0AA2D02D05DD059D0AA5199
:10092000A95D03E0A9C0ACF022D04450A55D0FE260
:10093000036AA7513C0FE96E000E0320EA6EEF50E8
:10094000AB1502E1000E01D0010EAC6F07D0445090
:10095000A55D02E0000E01D0010EAC6FAC5307E1C3
:10096000A5C0A6F0A651080802E3A6C045F0AC2D2C
:100970000BD0036AA7513C0FE96E000E0320EA6E0C
:10098000EF50AB11EF6E0BD0036AA7513C0FE96E2D
:10099000000E0320EA6EAB51FF0AEF14EF6EAC536A
:1009A00002E06FD701D07CD7A52BD890AB37AB53E3
:1009B0000FE1036AA7513C0FE96E000E0320EA6EB7
:1009C000EFCFADF0ADC0AEF07AD7A72B010EAB6F75
:1009D000A751070898E2A55140080AE2475208E1EA
:1009E000A6C044F0445202E1010E466E010EA86F0B
:1009F000A85302E03C5204E1446A466A456AA86B87
:100A0000A8C001F01200446A466A456A66DF0150D8
:100A10001200016603D0026602D007D0022A00C08D
:100A2000EEFF012EFCD7022EFAD7120056DF01503E
:100A300020EF06F00900F6CFB0F0F7CFB1F0F55097
:100A40009EA8FED7AD6EB0C0F6FFB1C0F7FFAF2FC6
:100A5000F1D7F8EF06F0B651016AB55D03E2B5C013
:100A600000F00CD0006A080EB76FB5370036B651EB
:100A7000005CD8B0006E0136B72FF7D71200200EF9
:100A8000B0A9300EB16FAFC000F0AFAF08D0001EFC
:100A9000002A00C0AFF02D0EB16FB08FB0810150B1
:100AA000AFC0B5F0640EB66FD6DF00C0AFF0300E49
:100AB0000124B26FAFC0B5F00A0EB66FCCDF300EB6
:100AC0000024B46F300E0124B36FB1C000F0300EBB
:100AD000B25D04E0B083B0BFB08512D0B1C0B2F057
:100AE000200EB16F300EB35D04E0B081B0BFB083B3
:100AF00007D0D8A4B08104E1B2C0B3F0200EB26F29
:100B0000B0B505D0B0B307D0B0B109D00CD0B15159
:100B10009EA8FED7AD6EB2519EA8FED7AD6EB35162
:100B20009EA8FED7AD6EB4519EA8FED7AD6EFDEF68
:100B300006F0B0BF10D00F0E006EAF3900160A0ECF
:100B4000005C03E2300E002602D0B05100260050B7
:100B50009EA8FED7AD6E0F0EAF170A0EAF5D02E274
:100B6000300E02D0B09FB051AF27AF519EA8FED734
:100B7000AD6E12000900F5520DE0F6CFA5F0F7CFEB
:100B8000A6F0F5509EA8FED7AD6EA5C0F6FFA6C094
:100B9000F7FFF0D76DEF07F04892A45313E0A2C01F
:100BA00003F0A1C0E9FFA2C0EAFF010E006EA3514D
:100BB000016E04E0D8900036012EFCD70050FF0AE9
:100BC000EF14EF6E9B5103E0010A39E07CD1996B81
:100BD0001ADF015232E03B6A3B50070823E3995188
:100BE000080DF350A66BA56F036A3B50A525016E57
:100BF000A65103220150690F016E000E032203C0AB
:100C0000A6F0036A3B503C0FE96E000E0320EA6E2B
:100C1000EFCFA7F0A6C0EAFF01C0E9FFA7C0EFFF32
:100C20003B2ADAD7992BEA6A3C0EE96E006A026A1F
:100C3000080E016EEEDE9B2B01D09B6B44D1F6D6E5
:100C4000015233E03B6A3B50070823E39951080DFA
:100C5000F350A66BA56F036A3B50A525016EA65104
:100C600003220150690F016E000E032203C0A6F09B
:100C7000036A3B503C0FE96E000E0320EA6EEFCF93
:100C8000A7F0A6C0EAFF01C0E9FFA7C0EFFF3B2A1B
:100C9000DAD7992BEA6A3C0EE96E006A026A080EFE
:100CA000016EB7DE010E9B6F0ED14880488299C05D
:100CB0009AF09B6B3B6A99513B5CD8B004D13B5096
:100CC000080DF350A66BA56F690EA525E96E000E01
:100CD000A621EA6EEFCFA7F03B50080DF350A96BA9
:100CE000A86F010EA825016E000EA921036E015008
:100CF000690FE96E000E0320EA6EEFCFA8F03B50BB
:100D0000080DF350AA6BA96F020EA925016E000E03
:100D1000AA21036E0150690FE96E000E0320EA6EEE
:100D2000EFCFA9F03B50080DF350AB6BAA6F030E49
:100D3000AA25016E000EAB21036E0150690FE96E0A
:100D4000000E0320EA6EEFCFAAF03B50080DF350DF
:100D5000AC6BAB6F040EAB25016E000EAC21036EC5
:100D60000150690FE96E000E0320EA6EEFCFABF081
:100D70003B50080DF350AD6BAC6F050EAC25016E0A
:100D8000000EAD21036E0150690FE96E000E0320C5
:100D9000EA6EEFCFACF03B50080DF350AE6BAD6F89
:100DA000060EAD25016E000EAE21036E0150690FD7
:100DB000E96E000E0320EA6EEFCFADF03B50080D58
:100DC000F350AF6BAE6F070EAE25016E000EAF2174
:100DD000036E0150690FE96E000E0320EA6EEFCF3B
:100DE000AEF0B00EF66E050EF76E030EAF6F22D6A4
:100DF0003BC0AFF0180EB06F42D63A0E9EA8FED799
:100E0000AD6E200E9EA8FED7AD6EA7C0AFF0370E18
:100E1000B06F8FDE200E9EA8FED7AD6EA8C0AFF0DB
:100E2000370EB06F86DE200E9EA8FED7AD6EA9C02D
:100E3000AFF0370EB06F7DDE200E9EA8FED7AD6EF0
:100E4000200E9EA8FED7AD6EAAC0AFF0370EB06FD1
:100E500070DE200E9EA8FED7AD6E200E9EA8FED797
:100E6000AD6EABC0AFF0370EB06F63DE200E9EA844
:100E7000FED7AD6E200E9EA8FED7AD6EACC0AFF013
:100E8000370EB06F56DE200E9EA8FED7AD6E200E38
:100E90009EA8FED7AD6EADC0AFF0370EB06F49DE85
:100EA000200E9EA8FED7AD6E200E9EA8FED7AD6E7A
:100EB000AEC0AFF0370EB06F3CDE0D0E9EA8FED771
:100EC000AD6E3B2AF8D6995308E1488248809B6B67
:100ED000E60EF66E050EF76E4DD6A45312E0A2C0D4
:100EE00003F0A1C0E9FFA2C0EAFF010E006EA3510A
:100EF000016E04E0D8900036012EFCD70050EF10B0
:100F0000EF6EB4EF00F0AB5302E1AC5342E0A7C088
:100F1000E9FFA8C0EAFFEFCFADF0AAC003F0A9C077
:100F2000E9FFAAC0EAFFEF50AD5D17E0A8C003F0EB
:100F3000A7C0E9FF03C0EAFFEFCFADF0AAC003F0FE
:100F4000A9C0E9FFAAC0EAFFEF50AD5D02E2FF0EC3
:100F500001D0010E016E1FD00BD0A8C003F0A7C0B6
:100F6000E9FFA8C0EAFFEF5203E1000E016E13D0C3
:100F7000A8C003F0A751A72BD8B4A82BAAC003F090
:100F8000A951A92BD8B4AA2BAB51D8B4AC07AB0745
:100F9000BAD7000E016E04EF08F0EA6A190EE96E86
:100FA000006A026A200E016E34DDEA6A190EE96EEB
:100FB000F2CFA5F0F29E100E016EF76A000E8EECD5
:100FC00002F00A000900F5CFEEFF012EFBD7A5BF06
:100FD000F28E3B6A9A513B5C30E23B50080DF35075
:100FE000036A690F016E000E032201C0A5F003C061
:100FF000A6F0A86B910EA76F03C0AAF001C0A9F0DC
:10100000AC6B400EAB6F7FD7015215E1EA6A190E47
:10101000E96EF2CFA5F0F29E100E016EF76A000E97
:10102000A4EC02F00A000900F5CFEEFF012EFBD779
:10103000A5BFF28E02D03B2ACDD777EF08F09FC034
:10104000EAFF9EC0E9FFA7C0EFFFE92AD8B4EA2A69
:10105000EF6A9E2BD8B49F2B38EF08F00900F552A9
:101060000CE0F6CFA5F0F7CFA6F0F5CFA7F0E7D7C5
:10107000A5C0F6FFA6C0F7FFF1D78AEF08F0996B7D
:101080004892A45313E0A2C003F0A1C0E9FFA2C09C
:10109000EAFF010E006EA351016E04E0D890003605
:1010A000012EFCD70050FF0AEF14EF6EACDC0152AA
:1010B0001FE03B6A3B50070819E3036A3B50910F5E
:1010C000016E000E032203C0A6F0036A3B503C0FE2
:1010D000E96E000E0320EA6EEFCFA7F0A6C0EAFF8C
:1010E00001C0E9FFA7C0EFFF3B2AE4D756D7992BF1
:1010F00099531CE1EA6A490EE96E006A026A200E01
:10110000016E87DC9F6B490E9E6FF80EF66E050E22
:10111000F76EA4D7EA6A190EE96EE26A490EE16E2B
:10112000200E016EE6CFEEFF012EFCD74882A453BD
:1011300012E0A2C003F0A1C0E9FFA2C0EAFF010EC5
:10114000006EA351016E04E0D8900036012EFCD74A
:0A1150000050EF10EF6EC2EF00F048
:020000040030CA
:0E00000000C81E06000781000FC00FE00F4071
:00000001FF
;PIC18F4520
;CRC=AAD5  CREATED="31-Jul-23 16:15"
