:0400000080EF00F09D
:08000800046ED8CF05F0E0CF33
:1000100006F00001E9CF0CF0EACF07F0E1CF08F0DD
:10002000E2CF09F0D9CF0AF0DACF0BF0F3CF12F01C
:10003000F4CF13F0FACF14F000C00EF001C00FF0AF
:1000400002C010F003C011F09DA02AEF00F09EB096
:1000500022EF02F00EC000F00FC001F010C002F05D
:1000600011C003F00CC0E9FF07C0EAFF078E08C00B
:10007000E1FF09C0E2FF0AC0D9FF0BC0DAFF12C0DE
:10008000F3FF13C0F4FF14C0FAFF045006C0E0FFF2
:1000900005C0D8FF1000F2CF0DF0F29EF76AB00F46
:1000A000F66E000EF7220900F5500DBEF28E12001A
:1000B000494E464F524D454C454B54524F4E494B7D
:1000C00041522D4745202020205354414A59455242
:1000D0000000202025303264203A20253032642070
:1000E0003A20253032642020202573202D20253011
:0E00F00032642F253032642F25303264000038
:10010000F86AD09E078E700ED36ED350B8960C0E40
:10011000AF6EA20EAC6E900EAB6E00000000696A6E
:10012000686AC150C00B0F09C16E070EB46EBAD118
:1001300011D230D255D265D219AC04D0199C817E2F
:10014000010E3B6E19A211D019921B0E6A6E070E9A
:100150006B6E170E6C6E020E6D6E0E0E6E6E3B0E9B
:100160006F6E0A0E706E88EF06F019A005D0199018
:0C0170003B5202E0D4EF06F0DED70300A3
:0E040200016A026A006A036A9C5102E19B5182
:1004100018E0100E9D6FD89099379A370036033642
:100420009C51035C02E19B51005C07E39B51005E21
:10043000D8A003069C51035ED880013602369D2F5A
:10044000EAD71200F80ECF6E300ECE6E9E90172AAD
:10045000D8B4182A1750010B996F9A6B995303E17E
:100460009A5301E1198018C09AF017C099F09C6B5B
:10047000320E9B6FC6DF00C099F003C09AF099530B
:1004800003E19A5301E119821850020808E2FF0AB9
:1004900003E11750E80803E2198C186A176A9E9066
:1004A0002AEF00F0D38CD38AD388936A956A966A30
:1004B000816A8C6A846A196AD08EF28EF28C9F806F
:1004C0009D809E90CD9ECD9CCD9ACD98CD96CD947D
:1004D000CD92F80ECF6E300ECE6ECD8098EF00F03C
:1004E0006F6A6F506E5C02E36F2AFBD712006CC01C
:1004F0008CFF84908482010E6E6EF2DF8492120073
:100500006A50F00B6B6E6BC06CF0F1DF6A38006EF6
:10051000F00E00160050F00B6B6E6BC06CF0E7DF56
:100520001200020E6A6EECDFAEEF02F0280E6A6E69
:10053000E7DFAFEF02F00C0E6A6EE2DFB0EF02F021
:10054000060E6A6EDDDFB1EF02F0010E6A6ED8DFD3
:10055000B2EF02F0280E6E6EC3DFE3D7E7D7EBD71A
:10056000EFD7F3D7EA6A1A0EE96EF2CF6AF0F29E7D
:10057000200E016EF76A000E8EDD0A000900F5CF2D
:10058000EEFF012EFBD76ABEF28E3A6A010E3B6E79
:1005900099EF00F094869488130EC86E280EC66EEC
:1005A000800EC76E9AEF00F0C580C5B0FED712006E
:1005B000C5501F0BFDE1C7B4FBD7120079C0C9FFBE
:1005C000C7B0FED7F5DF000EC5BC010E016E1200EC
:1005D000C582C5B2FED71200C584C5B4FED71200CD
:1005E000E3DFD00E796EEADF012C02D0F1DFF9D71C
:1005F000070E796EE3DF796AE1DFEEDF476A9BEF92
:1006000000F004009CEF00F0796A7850090805E2D8
:100610000A0E785E100E792603D07850792601D024
:10062000F4D779C001F012004750F50FD8B05ED072
:100630000B0F78EF03F0B8DF472A58D0D00E796E51
:10064000BDDF012C02D0C4DFF9D7472A4FD0796A29
:10065000B5DF472A4BD0779E77C078F0D5DF01C051
:1006600078F001C079F0AADF472A40D0769E76C0A4
:1006700078F0CADF01C078F001C079F09FDF472A27
:1006800035D0759E75C078F0BFDF01C078F001C02D
:1006900079F094DF472A2AD074C078F0B5DF01C022
:1006A00078F001C079F08ADF472A20D071C078F055
:1006B000ABDF01C078F001C079F080DF472A16D0A7
:1006C00072C078F0A1DF01C078F001C079F076DF68
:1006D000472A0CD073C078F097DF01C078F001C0D2
:1006E00079F06CDF472A02D077DF472A9AEF06F0CD
:1006F000F2CF0DF0F29EE824F76AF736150FF66E8A
:10070000070EF7220A00F550FA6E0800F5500DBEEC
:10071000F28EF96E36063C064E0656066C068206CA
:100720009806AC06C006D406E806C59AC588C5B8C2
:10073000FED7ACEF03F0C58AC588C5B8FED7ACEFCD
:1007400003F0726AC586C7A0FED7C9CF72F0715296
:1007500002E1EBD701D0EFD72BDF72C001F012001E
:100760007238006E0F0E001600500A0DF3CF73F0B2
:1007700072500F0B7324016E12000B0E475CF70FC3
:100780003FE2090F02EF04F00FDF472A39D0D00E05
:10079000796E14DF012C02D01BDFF9D7472A30D045
:1007A000796A0CDF472A2CD013DF472A29D0D10ED3
:1007B000796E04DF472A24D0716AC3DF01507F0BB2
:1007C000716E726ECDDF01C03CF0472A19D0716A9C
:1007D000B8DF01507F0B716E726EC2DF01C03DF059
:1007E000472A0ED0010E716EACDF01507F0B716E87
:1007F000726EB6DF01C03EF0472A02D0EDDE472A16
:10080000A2EF06F0F2CF0DF0F29EE824F76AF73679
:10081000290FF66E080EF7220A00F550FA6E08004E
:10082000F5500DBEF28EF96E88078E07A007A80757
:10083000AE07B807CE07E407FC074150016EBCEFD6
:1008400004F04050016EBFEF04F03F50016EC2EF64
:1008500004F07A6A7B6A030E7C6E7D6A020E7E6EFD
:100860007F6A050E806F816B826B836B030E846FD2
:10087000856B050E866F876B010E886F896B040E82
:100880008A6F8B6B060E8C6F8D6B020E8E6F8F6B6B
:10089000040E906F916B775207E17650020804E3E3
:1008A0007450D8B4750674067530036E7430026ED9
:1008B000033202323F0E031602507424926F03502B
:1008C0007520936F166AF2BE168EF29E75C09AF06E
:1008D00074C099F09C6B640E9B6F93DD16BEF28E14
:1008E00002C003F00150925F0250935B166AF2BEA1
:1008F000168EF29E75C09AF074C099F0010E9C6F2E
:10090000900E9B6F7EDD16BEF28E02C003F001508A
:10091000922702509323010E765C946F000E775855
:10092000956FD8909435026E9535036E02507A0F0C
:10093000E96E000E0320EA6EECCF03F0ED52EF50AB
:100940009227035093237850922779509323166A65
:10095000F2BE168EF29E93C09AF092C099F09C6BF4
:10096000070E9B6F4EDD16BEF28E00C001F003C075
:1009700002F0CEEF04F061D701C071F062D701C080
:1009800072F063D701C073F0756A71C074F0776A52
:1009900072C076F0796A01C078F05BD701C000F0D0
:1009A0000250036E02E100521FE0035003E1010E0A
:1009B000005C21E0035003E1020E005C23E00350E1
:1009C00003E1030E005C25E0035003E1040E005C2C
:1009D00027E0035003E1050E005C29E0035003E12A
:1009E000060E005C2BE030D0530E436E750E446E45
:1009F0006E0E456E29D04D0E436E6F0E446E6E0E18
:100A0000456E22D0540E436E750E446E650E456ED3
:100A10001BD0570E436E650E446E640E456E14D0A7
:100A2000540E436E680E446E750E456E0DD0460E24
:100A3000436E720E446E690E456E06D0530E436EC1
:100A4000610E446E740E456E0FEF06F069C0EAFF4A
:100A500068C0E9FF77C0EFFFE92AD8B4EA2AEF6A55
:100A6000682AD8B4692A12007850016A775C03E2D8
:100A700077C000F00CD0006A080E796E7736003629
:100A80007850005CD8B0006E0136792EF7D712008E
:100A9000200E72A8300E736E71C000F071AE08D0D7
:100AA000001E002A00C071F02D0E736E728E7280CF
:100AB000015071C077F0640E786ED6DF00C071F01F
:100AC000300E0124746E71C077F00A0E786ECCDFA0
:100AD000300E0024766E300E0124756E73C000F067
:100AE000300E745C04E0728272BE728412D072B4F2
:100AF00010D073C074F072B204D0300E755C04E094
:100B0000728072BE728205D0D8A47280D8B474C0CC
:100B100075F072B405D072B206D072B007D009D0A9
:100B200073C077F093DF74C077F090DF75C077F013
:100B30008DDF76C077F08ADF12000900F6CF72F001
:100B4000F7CF73F0F5CF77F081DF72C0F6FF73C097
:100B5000F7FF712EF2D71200EF520FE0EACF72F0DA
:100B6000E9CF71F0EFCF77F071DF72C0EAFF71C0AB
:100B7000E9FFE92AD8B4EA2AEFD740EF06F0140ECD
:100B8000475CF60FD8B0A6D00A0F6CEF06F00CDD6C
:100B9000472AA0D0D00E796E11DD012C02D018DDCD
:100BA000F9D7472A97D0030E796E08DD472A92D0ED
:100BB0000FDD472A8FD0D10E796E00DD472A8AD00B
:100BC000716ABFDD0150070B716E726EC9DD01C025
:100BD00042F0472A7FD0716AB4DD01503F0B716E3D
:100BE000726EBEDD01C03FF0472A74D0716AA9DD84
:100BF00001501F0B716E726EB3DD01C040F0472AC9
:100C000069D0010E716E9DDD01C071F001C072F0FE
:100C1000A7DD01C041F0472A5DD0DEDCACD6696AB1
:100C2000480E686E200E776E11DF200E776E0EDF95
:100C30003EC071F0010E726E2BDFD80EF66E000E04
:100C4000F76E030E716E79DF3DC071F0010E726EAA
:100C50001FDFDF0EF66E000EF76E030E716E6DDF96
:100C60003CC071F0010E726E13DFE60EF66E000EE0
:100C7000F76E030E716E61DFEA6A430EE96E6CD7A0
:100C8000EB0EF66E000EF76E030E716E56DF3FC070
:100C900071F0010E726EFCDE2F0E776ED7DE40C053
:100CA00071F0010E726EF4DE2F0E776ECFDE41C052
:100CB00071F0010E726EECDEEA6A1A0EE96EE26AFB
:100CC000480EE16E200E016EE6CFEEFF012EFCD73E
:100CD0000B0E476EAAEF06F0F2CF0DF0F29EE8245D
:100CE000F76AF736FD0FF66E0C0EF7220A00F55084
:100CF000FA6E0800F5500DBEF28EF96E8E0B940B55
:100D0000A60BB00BB60BC00BD60BEC0B020C1A0CDF
:100D100047500A0810E36AC071F06BC072F06CC0F3
:100D200073F06DC074F06EC075F06FC076F070C077
:100D300077F07AD40FD047500A0805E247501308DD
:100D400002E31BD507D04750130804E247501D08A3
:100D500001E315D7B5EF00F0800E6A6E80EC02F06B
:100D6000D7EF06F0C00E6A6E80EC02F0DBEF06F003
:100D70006DC08CFF84808482010E6E6E70EC02F078
:100D8000849212006B50F00B6C6E6CC06DF0F0DF53
:100D90006B38006EF00E00160050F00B6C6E6CC0DD
:100DA0006DF0E6DFEAEF06F03A5201E1D5D73A50AE
:100DB000100801E1D7D73A501F080EE3036A3A50F2
:100DC0001A0FE96E000E0320EA6EEFCF6AF06AC0D8
:100DD0006BF0D8D73A2A02D03B6A3A6ABCEF00F0EF
:020000040030CA
:0E00000000C81E01000781000FC00FE00F4076
:00000001FF
;PIC18F4520
;CRC=48C4  CREATED="26-Jul-23 12:12"
