:0400000080EF00F09D
:08000800046ED8CF05F0E0CF33
:1000100006F00001E9CF0CF0EACF07F0E1CF08F0DD
:10002000E2CF09F0D9CF0AF0DACF0BF0F3CF12F01C
:10003000F4CF13F0FACF14F000C00EF001C00FF0AF
:1000400002C010F003C011F09DA02AEF00F09EB096
:10005000C6EF02F00EC000F00FC001F010C002F0B9
:1000600011C003F00CC0E9FF07C0EAFF078E08C00B
:10007000E1FF09C0E2FF0AC0D9FF0BC0DAFF12C0DE
:10008000F3FF13C0F4FF14C0FAFF045006C0E0FFF2
:1000900005C0D8FF1000F2CF0DF0F29EF76AB00F46
:1000A000F66E000EF7220900F5500DBEF28E12001A
:1000B000494E464F524D454C454B54524F4E494B7D
:1000C00041522D4745202020205354414A59455242
:1000D000000020202020205345434F4E4420202064
:1000E0002020000020202020204D494E555445203E
:1000F000202020200000020E766EBDDA64EF03F0AF
:10010000F86AD09E078E700ED36ED350B8960C0E40
:10011000AF6EA20EAC6E900EAB6E00000000780EBB
:10012000176E756A746A436AC150C00B0F09C16EBD
:10013000070EB46E726A736A6CD2C2D216D31F0EE7
:10014000766E0C0E776E160E786E060E796E170EA2
:100150007A6E3B0E7B6E370E7C6E23D3ABEC05F0D4
:100160008AEC07F01AEF08F01AAE0DD01A9E817EC5
:1001700046C000F0003A00320030030B04E1010EEB
:100180003C6E8AEC07F01750770803E2ABEC05F001
:10019000176A1AAC1FD01A9C010E456E46C000F0BB
:1001A000003A00320030030B010810E046C000F0B6
:1001B000003A00320030030B020808E046C000F0AD
:1001C000003A00320030030B030804E17FEF0AF02D
:1001D000010E3C6E1AA21BD01A92435207E181CF46
:1001E00076F0776A01EF0BF0432A11D0432C08D048
:1001F00081CF76F0010E776E86EF0BF0432A07D0A1
:1002000081CF76F0020E776EBEEF0BF0436A1AA034
:1002100005D01A903C5202E020EF0CF0A3D7030067
:0E040200202020202020484F5552202020206E
:10041000202000002020202020202044415920209E
:100420002020202000002020202020204D4F4E544E
:100430004820202020200000202020202020594576
:100440004152202020202020000020202020205366
:1004500045434F4E442020202020202020202020D3
:100460002025303264202020202020200000202061
:100470002020204D494E555445202020202020206A
:100480002020202020253032642020202020202001
:100490000000202020202020484F555220202020DE
:1004A00020202020202020202025303264202020E1
:1004B00020202020000020202020202044415927F7
:1004C0002020202020202020202020202025303205
:1004D0006420202020202020000020202020202018
:1004E0004D4F4E5448202020202020202020202026
:1004F00020253032642020202020000020202020D1
:10050000202059454152202020202020202020203A
:1005100020202025303264202020202000002020B0
:1005200025303264203A2025303264203A202530AC
:1005300032642020202573202D20253032642F2581
:100540003032642F253032640000016A026A006A8A
:10055000036AA25102E1A15118E0100EA36FD890D6
:100560009F37A03700360336A251035C02E1A15148
:10057000005C07E3A151005ED8A00306A251035E10
:10058000D88001360236A32FEAD71200F80ECF6EBC
:10059000300ECE6E9E90182AD8B4192A1850010B2E
:1005A0009F6FA06B9F5303E1A05301E11A8019C014
:1005B000A0F018C09FF0A26B0A0EA16FC6DF00C0AA
:1005C0009FF003C0A0F09F5303E1A05301E11A8202
:1005D00019C0A0F018C09FF0010EA26FF40EA16F19
:1005E000B4DF00C09FF003C0A0F09F5303E1A0530D
:1005F00001E11A8C1950020809E2FF0A03E11850C0
:10060000E80804E21A8E196A186A172A9E902AEFDF
:1006100000F0176AD38CD38AD388C168070EB46EF2
:10062000936E956A966A816A8C6A846A1A6AD08E19
:10063000F28EF28C9F809D809E90CD9ECD9CCD9A17
:10064000CD98CD96CD94CD92F80ECF6E300ECE6E65
:10065000CD809DEF00F0816B8151805D02E3812BA5
:10066000FBD7120078C08CFF84908482010E806FCB
:10067000F2DF849212007650F00B776E77C078F03C
:10068000F1DF7638006EF00E00160050F00B776E3A
:1006900077C078F0E7DF1200280E766EECDF65EFAA
:1006A00003F00C0E766EE7DF66EF03F0060E766E53
:1006B000E2DF67EF03F0010E766EDDDF68EF03F037
:1006C000280E806FC8DF17D5E7D7EBD7EFD7F3D762
:1006D000EA6A1B0EE96EF2CF76F0F29E200E016EF2
:1006E000F76A000ED8DC0A000900F5CFEEFF012EF4
:1006F000FBD776BEF28E3B6A010E3C6E9EEF00F099
:1007000082969496010E806FA6DF12009488010EE7
:10071000806FA1DF12009486010E806F9CDF1200B3
:1007200082989498010E806F96DF1200E9DFEEDF69
:10073000F2DFF6DFE5DF1200EEDFE2DF12007F6AB4
:100740007F5007080AE37EAE02D0E0DF01D0E8DF89
:10075000F3DFD8907E367F2AF3D7D8DFEDDF1200A3
:10076000CFDFDEDFD8DFD2DF1200E0DFD00E7E6E1B
:10077000E6DF070E7E6EE3DF7E6AE1DFF1DF9FEFEB
:1007800000F07E6A7D50090805E20A0E7D5E100EBB
:100790007E2603D07D507E2601D0F4D77EC001F0A6
:1007A00012007C9E7B9E7A9EC1DFD00E7E6EC7DFDC
:1007B0007E6AC5DF7CC07DF0E4DF01C07DF001C052
:1007C0007EF0BDDF7BC07DF0DCDF01C07DF001C0CD
:1007D0007EF0B5DF7AC07DF0D4DF01C07DF001C0CE
:1007E0007EF0ADDF79C07DF0CCDF01C07DF001C0CF
:1007F0007EF0A5DF76C07DF0C4DF01C07DF001C0D2
:100800007EF09DDF77C07DF0BCDF01C07DF001C0D0
:100810007EF095DF78C07DF0B4DF01C07DF001C0CF
:100820007EF08DDF9DDFAEEF00F0792C04D078DF15
:1008300083DF6CDF03D06ADF7FDF6DDF33EF04F02F
:10084000786A64DF776A775007080AE364DFD89034
:100850007836000E82B8010E781252DF772AF3D76D
:1008600076C079F0E2D778C001F012007738006ED8
:100870000F0E001600500A0DF3CF78F077500F0BD3
:100880007824016E120052DFD00E7E6E58DF7E6A31
:1008900056DF4CDFD10E7E6E52DF010E766ED0DF5A
:1008A00001507F0B766E776EE1DF01C047F0010EDD
:1008B000766EC6DF01507F0B766E776ED7DF01C094
:1008C00048F0766ABDDF01507F0B766E776ECEDF23
:1008D00001C049F045DFACEF05F04C50016E0CEF64
:1008E00005F04B50016E0FEF05F04A50016E12EF0C
:1008F00005F0806B816B030E826F836B020E846F39
:10090000856B050E866F876B886B896B030E8A6F0C
:100910008B6B050E8C6F8D6B010E8E6F8F6B040EC3
:10092000906F916B060E926F936B020E946F956BA6
:10093000040E966F976B7D5207E17C50020804E32A
:100940007A50D8B47B067A067B30036E7A30026E1A
:10095000033202323F0E031602507A24986F03507E
:100960007B20996F166AF2BE168EF29E7BC0A0F0B5
:100970007AC09FF0A26B640EA16FE7DD16BEF28E07
:1009800002C003F00150985F0250995B166AF2BEF4
:10099000168EF29E7BC0A0F07AC09FF0010EA26F6F
:1009A000900EA16FD2DD16BEF28E02C003F0015090
:1009B000982702509923010E7C5C9A6F000E7D5897
:1009C0009B6FD8909A35026E9B35036E0250800F54
:1009D000E96E000E0320EA6EECCF03F0ED52EF500B
:1009E0009827035099237E5098277F509923166AA1
:1009F000F2BE168EF29E99C0A0F098C09FF0A26B36
:100A0000070EA16FA2DD16BEF28E00C001F003C07A
:100A100002F01EEF05F061D701C077F062D701C088
:100A200078F063D701C079F07B6A77C07AF07D6A8D
:100A300078C07CF07F6A01C07EF05BD701C000F017
:100A40000250036E02E100521FE0035003E1010E69
:100A5000005C21E0035003E1020E005C23E0035040
:100A600003E1030E005C25E0035003E1040E005C8B
:100A700027E0035003E1050E005C29E0035003E189
:100A8000060E005C2BE030D0530E4E6E750E4F6E8E
:100A90006E0E506E29D04D0E4E6E6F0E4F6E6E0E56
:100AA000506E22D0540E4E6E750E4F6E650E506E07
:100AB0001BD0570E4E6E650E4F6E640E506E14D0E6
:100AC000540E4E6E680E4F6E750E506E0DD0460E63
:100AD0004E6E720E4F6E690E506E06D0530E4E6EF5
:100AE000610E4F6E740E506E120020DED00E7E6EC0
:100AF00026DE030E7E6E23DE19DED10E7E6E1FDE35
:100B0000010E766E9DDE0150070B766E776EAEDEBF
:100B100001C04DF0010E766E93DE01503F0B766EF4
:100B2000776EA4DE01C04AF0010E766E89DE0150B8
:100B30001F0B766E776E9ADE01C04BF0766A80DE10
:100B400001C076F001C077F091DE01C04CF008DE04
:100B500062DFADEF05F097D6C8D712007E50016A6C
:100B60007D5C03E27DC000F00CD0006A080E7F6E51
:100B70007D3600367E50005CD8B0006E01367F2E88
:100B8000F7D712004B50040809E04B50060806E066
:100B90004B50090803E04B500B0803E11E0E016E99
:100BA00032D04B5002082DE14C50030B27E1166A5E
:100BB000F2BE168EF29EA06B4CC09FF0010EA26F8B
:100BC000900EA16FC2DC16BEF28E00C079F003C099
:100BD0007AF0795206E17A5204E11D0E016E13D0CB
:100BE0000AD04CC07DF0640E7E6EB8DF005203E187
:100BF0001C0E016E08D01D0E016E05D01C0E016E7C
:100C000002D01F0E016E12007D6A7E6A030E7F6E97
:100C1000806B020E816F826B050E836F846B856B18
:100C2000866B030E876F886B050E896F8A6B010ECA
:100C30008B6F8C6B040E8D6F8E6B060E8F6F906BAF
:100C4000020E916F926B040E936F946B7A5207E1D0
:100C50007950020804E37750D8B4780677067830E4
:100C6000036E7730026E033202323F0E03160250DB
:100C70007724956F03507820966F166AF2BE168E11
:100C8000F29E78C0A0F077C09FF0A26B640EA16FB7
:100C90005CDC16BEF28E02C003F00150955F02507C
:100CA000965B166AF2BE168EF29E78C0A0F077C0F0
:100CB0009FF0010EA26F900EA16F47DC16BEF28E60
:100CC00002C003F00150952702509623010E795C73
:100CD000976F000E7A58986FD8909735026E9835B6
:100CE000036E02507D0FE96E000E0320EA6EECCF1A
:100CF00003F0ED52EF509527035096237B50952734
:100D00007C509623166AF2BE168EF29E96C0A0F014
:100D100095C09FF0A26B070EA16F17DC16BEF28E76
:100D200000C001F003C002F0A0EF06F0786A4CC0EA
:100D300077F07A6A4BC079F07C6A4AC07BF064D75E
:100D400001C000F00250036E02E100521FE00350A8
:100D500003E1010E005C21E0035003E1020E005CA0
:100D600023E0035003E1030E005C25E0035003E1A0
:100D7000040E005C27E0035003E1050E005C29E04F
:100D8000035003E1060E005C2BE030D0530E4E6E94
:100D9000750E4F6E6E0E506E29D04D0E4E6E6F0E4C
:100DA0004F6E6E0E506E22D0540E4E6E750E4F6EFC
:100DB000650E506E1BD0570E4E6E650E4F6E640E54
:100DC000506E14D0540E4E6E680E4F6E750E506EEF
:100DD0000DD0460E4E6E720E4F6E690E506E06D0DE
:100DE000530E4E6E610E4F6E740E506EB8EF07F0DC
:100DF00075C0EAFF74C0E9FF7DC0EFFFE92AD8B4EF
:100E0000EA2AEF6A742AD8B4752A1200200E78A84C
:100E1000300E796E77C000F077AE08D0001E002A41
:100E200000C077F02D0E796E788E7880015077C0F3
:100E30007DF0640E7E6E92DE00C077F0300E0124ED
:100E40007A6E77C07DF00A0E7E6E88DE300E00244A
:100E50007C6E300E01247B6E79C000F0300E7A5C1F
:100E600004E0788278BE788412D078B410D079C04B
:100E70007AF078B204D0300E7B5C04E0788078BEE3
:100E8000788205D0D8A47880D8B47AC07BF078B4C2
:100E900005D078B206D078B007D009D079C07DF0FF
:100EA000A7DF7AC07DF0A4DF7BC07DF0A1DF7CC02E
:100EB0007DF09EDF12000900F6CF78F0F7CF79F0D1
:100EC000F5CF7DF095DF78C0F6FF79C0F7FF772E7C
:100ED000F2D71200EF520FE0EACF78F0E9CF77F0C7
:100EE000EFCF7DF085DF78C0EAFF77C0E9FFE92A20
:100EF000D8B4EA2AEFD7E9EF07F0016603D002661B
:100F000002D007D0022A00C0EEFF012EFCD7022E2D
:100F1000FAD71200766A47503A0826E2476A4850E4
:100F20003A0820E2486A495016081AE2496A2ADE5D
:100F300001504A5C11E3010E4A6E766E4B500B086D
:100F400009E2010E4B6E4C50620802E24C6A01D07D
:100F50004C2A01D04B2A03D04A2A010E766E01D0CA
:100F6000492A01D0482A01D0472A765201E0DED62C
:100F7000756A520E746E200E7D6E3ADF200E7D6E05
:100F800037DF49C077F0010E786E40DF240EF66E31
:100F9000050EF76E030E776E8EDF48C077F0010EF8
:100FA000786E34DF2B0EF66E050EF76E030E776E3D
:100FB00082DF47C077F0010E786E28DF320EF66EC2
:100FC000050EF76E030E776E76DFEA6A4E0EE96E57
:100FD00081D7370EF66E050EF76E030E776E6BDF58
:100FE0004AC077F0010E786E11DF2F0E7D6E00DFA4
:100FF0004BC077F0010E786E09DF2F0E7D6EF8DEA4
:101000004CC077F0010E786E01DFEA6A1B0EE96EC4
:10101000006A026A200E016E70DFEA6A1B0EE96E3A
:10102000E26A520EE16E200E016EE6CFEEFF012E57
:10103000FCD712000400B4EF00F00900F5520CE0F8
:10104000F6CF77F0F7CF78F0F5CF7DF0D1DE77C02F
:10105000F6FF78C0F7FFF1D712007650FA0FD8B03C
:10106000B0D0060FE3EF08F0EA6A1B0EE96E006AE3
:10107000026A200E016E41DF756A520E746ED20E46
:10108000F66E000EF76ED9DFEA6A1B0EE96EE26AB1
:10109000520EE16E110E016EE6CFEEFF012EFCD76F
:1010A00090D0EA6A1B0EE96E006A026A200E016E99
:1010B00024DF756A520E746EE40EF66E000EF76E43
:1010C000BCDFEA6A1B0EE96EE26A520EE16E110E97
:1010D000016EE6CFEEFF012EFCD773D0EA6A1B0E3D
:1010E000E96E006A026A200E016E07DF756A520E11
:1010F000746E020EF66E040EF76E9FDFEA6A1B0E28
:10110000E96EE26A520EE16E110E016EE6CFEEFF5D
:10111000012EFCD756D0EA6A1B0EE96E006A026AFD
:10112000200E016EEADE756A520E746E140EF66EB3
:10113000040EF76E82DFEA6A1B0EE96EE26A520E57
:10114000E16E110E016EE6CFEEFF012EFCD739D015
:10115000EA6A1B0EE96E006A026A200E016ECDDE9D
:10116000756A520E746E260EF66E040EF76E65DF0B
:10117000EA6A1B0EE96EE26A520EE16E110E016E12
:10118000E6CFEEFF012EFCD71CD0EA6A1B0EE96EFB
:10119000006A026A200E016EB0DE756A520E746E2D
:1011A000380EF66E040EF76E48DFEA6A1B0EE96E23
:1011B000E26A520EE16E110E016EE6CFEEFF012ED5
:1011C000FCD78AEF0AF0F2CF0DF0F29EE824F76A1E
:1011D000F736EB0FF66E110EF7220A00F550FA6E95
:1011E0000800F5500DBEF28EF96E6810A210DC10EA
:1011F000161150118A117650FA0FD8B004D1060F8B
:1012000005EF0AF0EA6A1B0EE96E006A026A200E18
:10121000016E73DE756A520E746E4A0EF66E040E1F
:10122000F76E170E776E47DE47C077F0010E786EC7
:10123000EDDD650EF66E040EF76E070E776E3BDE83
:10124000EA6A1B0EE96EE26A520EE16E200E016E32
:10125000E6CFEEFF012EFCD7D6D0EA6A1B0EE96E70
:10126000006A026A200E016E48DE756A520E746EC4
:101270006E0EF66E040EF76E170E776E1CDE48C00B
:1012800077F0010E786EC2DD890EF66E040EF76EF1
:10129000070E776E10DEEA6A1B0EE96EE26A520EE6
:1012A000E16E200E016EE6CFEEFF012EFCD7ABD033
:1012B000EA6A1B0EE96E006A026A200E016E1DDEEC
:1012C000756A520E746E920EF66E040EF76E170E5D
:1012D000776EF1DD49C077F0010E786E97DDAD0EC7
:1012E000F66E040EF76E070E776EE5DDEA6A1B0EEA
:1012F000E96EE26A520EE16E200E016EE6CFEEFF5D
:10130000012EFCD780D0EA6A1B0EE96E006A026AE1
:10131000200E016EF2DD756A520E746EB60EF66E18
:10132000040EF76E170E776EC6DD4AC077F0010E19
:10133000786E6CDDD10EF66E040EF76E070E776ECA
:10134000BADDEA6A1B0EE96EE26A520EE16E200E09
:10135000016EE6CFEEFF012EFCD755D0EA6A1B0ED8
:10136000E96E006A026A200E016EC7DD756A520ED0
:10137000746EDA0EF66E040EF76E170E776E9BDD46
:101380004BC077F0010E786E41DDF50EF66E040E5F
:10139000F76E050E776E8FDDEA6A1B0EE96EE26A64
:1013A000520EE16E200E016EE6CFEEFF012EFCD74D
:1013B0002AD0EA6A1B0EE96E006A026A200E016EEC
:1013C0009CDD756A520E746EFC0EF66E040EF76E9E
:1013D000170E776E70DD4CC077F0010E786E16DD5B
:1013E000170EF66E050EF76E050E776E64DDEA6A6F
:1013F0001B0EE96EE26A520EE16E200E016EE6CF20
:10140000EEFF012EFCD795EF0AF0F2CF0DF0F29E21
:10141000E824F76AF7362F0FF66E140EF7220A004B
:10142000F550FA6E0800F5500DBEF28EF96E0412FA
:101430005A12B01206135C13B213479E489E499E7F
:1014400096EC03F0D00E7E6E9FEC03F077C07EF03A
:101450009FEC03F078C07DF0C1EC03F001C079F09F
:1014600001C07EF09FEC03F0B0EC03F01200765068
:10147000FA0F25E2060F67EF0AF0776A47C078F0A7
:10148000DCDF1DD0010E776E48C078F0D6DF17D0B4
:10149000020E776E49C078F0D0DF11D0040E776E5F
:1014A0004AC078F0CADF0BD0050E776E4BC078F0DB
:1014B000C4DF05D0060E776E4CC078F0BEDF0BECB3
:1014C00005F03F0E4614466E446AA0EF0AF0F2CFD4
:1014D0000DF0F29EE824F76AF736F30FF66E140E5D
:1014E000F7220A00F550FA6E0800F5500DBEF28E94
:1014F000F96E7A14841490149C14A814B4144650F1
:10150000006E003A00320030030B010803E144C0D2
:1015100076F0A3D546C000F0003A00320030030B4D
:10152000020803E144C076F066D646C000F0003AF7
:1015300000320030030B030803E144C076F097D774
:10154000E8EF00F0010E006E7950016E04E0D890D3
:101550000036012EFCD70050781402E1000E01D0B5
:10156000010E016E12007850FA0F31E2060FE9EF1A
:101570000AF047503A0802E2476A01D0472A27D0CA
:1015800048503A0802E2486A01D0482A20D049501F
:10159000160802E2496A01D0492A19D0C2EC05F0C6
:1015A00001504A5C03E3010E4A6E01D04A2A0FD073
:1015B0004B500B0803E2010E4B6E01D04B2A07D0B3
:1015C0004C50620803E2010E4C6E01D04C2A1FEF12
:1015D0000BF0F2CF0DF0F29EE824F76AF736F70F22
:1015E000F66E150EF7220A00F550FA6E0800F55057
:1015F0000DBEF28EF96E721580158E159C15B01504
:10160000C01576C078F077C079F09CDF015203E115
:10161000D8903D3603D0D8903D363D803D501F0BCD
:101620001F081BE1455213E046C000F0003A0032AB
:101630000030030B020804E144C078F094D706D0D0
:101640004450040802E2446A01D0442A456A010E6B
:10165000406E3D6A016E0BD00AD03D501F0B05E174
:10166000406A000E016E03D002D040C001F0F4EFDA
:1016700000F07850FA0F30E2060F6EEF0BF0475291
:1016800003E13B0E476E01D0470626D0485203E1E6
:101690003B0E486E01D048061FD0495203E1170E99
:1016A000496E01D0490618D04A50010805E3C2EC42
:1016B00005F001C04AF001D04A060ED04B50010897
:1016C00003E30C0E4B6E01D04B0606D04C5203E1E7
:1016D000630E4C6E01D04C06A4EF0BF0F2CF0DF070
:1016E000F29EE824F76AF736010FF66E170EF7221E
:1016F0000A00F550FA6E0800F5500DBEF28EF96E34
:101700007E168C169A16A816BC16CC1676C078F0E3
:1017100077C079F017DF015203E1D8903E3603D04D
:10172000D8903E363E803E501F0B1F081BE14552AD
:1017300013E046C000F0003A00320030030B02080C
:1017400004E144C078F095D706D0445203E1050E79
:10175000446E01D04406456A010E416E3E6A016E38
:101760000BD00AD03E501F0B05E1416A000E016EFE
:1017700003D002D041C001F0FEEF00F076C078F057
:1017800077C079F0DFDE015203E1D8903F3603D015
:10179000D8903F363F803F501F0B1F081DE1455238
:1017A00015E046C000F0003A00320030030B02089A
:1017B00004E23F0E4614466E08D04650400FC00B60
:1017C000006E3F0E46140010466E456A010E426ED2
:1017D0003F6A016E0BD00AD03F501F0B05E1426AF1
:1017E000000E016E03D002D042C001F006EF01F0FE
:1017F000800E766E3BEC03F023EF0CF0C00E766E9D
:101800003BEC03F027EF0CF079C08CFF84808482DE
:10181000010E806F2BEC03F0849212007750F00BD6
:10182000786E78C079F0F0DF7738006EF00E001631
:101830000050F00B786E78C079F0E6DF36EF0CF0F0
:101840003B5201E1D5D73B50100801E1D7D73B50BF
:101850001F080EE3036A3B501B0FE96E000E0320C6
:10186000EA6EEFCF76F076C077F0D8D73B2A02D079
:081870003C6A3B6A0EEF01F037
:020000040030CA
:0E00000000C81E06000781000FC00FE00F4071
:00000001FF
;PIC18F4520
;CRC=3A1D  CREATED="25-Jul-23 19:38"
