:0400000080EF00F09D
:08000800046ED8CF05F0E0CF33
:1000100006F00001E9CF0CF0EACF07F0E1CF08F0DD
:10002000E2CF09F0D9CF0AF0DACF0BF0F3CF12F01C
:10003000F4CF13F0FACF14F000C00EF001C00FF0AF
:1000400002C010F003C011F09DA02AEF00F09EB096
:10005000ABEF02F00EC000F00FC001F010C002F0D4
:1000600011C003F00CC0E9FF07C0EAFF078E08C00B
:10007000E1FF09C0E2FF0AC0D9FF0BC0DAFF12C0DE
:10008000F3FF13C0F4FF14C0FAFF045006C0E0FFF2
:1000900005C0D8FF1000F2CF0DF0F29EF76AB00F46
:1000A000F66E000EF7220900F5500DBEF28E12001A
:1000B000313233343536373839302E230D080C259C
:1000C000F2CF0DF0F29EF76ADA0FF66E000EF7220D
:1000D0000900F5500DBEF28E12006603CB024402F9
:1000E000B801860163011301FF00EF00CD00C500D8
:1000F000B90003024501E100AF000400E0EF00F0A9
:10010000F86AD09E078E1F6A0101236B226BC150D3
:10011000C00B0F09C16E070EB46E2CD00201200077
:10012000004F00A84C43442E4F4E004C43442E4FEA
:1001300046460054454D502E4F4E0054454D502ECE
:100140004F4646004C45442E4F4E004C45442E4FE2
:100150004646004255542E4F4E004255542E4F46AF
:100160004600434350312E4F4E00434350312E4FF3
:1001700046460000000EF86E010EF76E1C0EF66E7D
:100180000900F550006E000A13E00900F550016EF9
:10019000E8BE05D00F0BEA6E0900F5CFE9FF01BC00
:1001A000090001AC0900F5CFEEFF004EE9D7F9D701
:1001B000F86A000151D26FD2C5D2E8D23DD39DD7A3
:1001C0001CAC08D01C9C1DA401D0817E010E010135
:1001D0001F6F00011CAA0BD01C9A1DA208D00101A0
:1001E000246B000136DB012C02D013EF05F01CAEAE
:1001F00015D01C9EFA5312E01DA610D0F9512A0802
:100200000DE00101276BF9C028F1296B00015AECC0
:1002100005F0FA6B2A0EF96F1B6A1A6A1CA413D038
:100220001C9481CF24F10101256B000185EF05F0BD
:100230001DA609D0010E0101246F00010ADB012C6B
:1002400002D0A7EF05F01CA205D01C921DA802D079
:10025000B0EF05F01CA016D01C9001011F5306E062
:100260001DA004D00001F6EF05F001011DA60BD082
:100270000001FC5305E1FD53D8A402D0010103D0D5
:100280001AEF06F0010100011DEF08F098D70300F6
:0E040200F2CF0DF0F29EF76A1C0FF66E040E9C
:10041000F7220900F5500DBEF28E12008403E902A6
:100420006C02C701A40172012B010E01FC00DC006B
:10043000CC00C30021025901ED00B800F2CF0DF04D
:10044000F29EF76A560FF66E040EF7220900F55079
:100450000DBEF28E12000C4D4556435554205941A5
:100460005A493A200000F2CF0DF0F29EF76A800F51
:10047000F66E040EF7220900F5500DBEF28E120042
:100480000D4C757466656E206269722079617A69B7
:1004900020676972696E697A3A200000F2CF0DF028
:1004A000F29EF76AB60FF66E040EF7220900F550B9
:1004B0000DBEF28E12000D4C696D69742041736996
:1004C0006C64692121210000F2CF0DF0F29EF76AE1
:1004D000E20FF66E040EF7220900F5500DBEF28E03
:1004E0001200494E464F524D454C454B54524F4ECB
:1004F000494B41522D4745202020205354414A5911
:100500004552000054454D503A2564256343200070
:10051000016A026A006A036A0101335102E1325141
:1005200018E0100E346FD89030373137003603366C
:100530003351035C02E13251005C07E33251005E4B
:10054000D8A003063351035ED88001360236342F1B
:10055000EAD700011200F80ECF6E300ECE6E9E90DC
:10056000182AD8B4192A1A2AD8B41B2A1850010BF1
:100570000101306F316B305303E1315301E11C80D5
:1005800019C031F118C030F1336B140E326F000115
:10059000BFDF00C030F1010103C031F1305303E18E
:1005A000315301E11C8219C031F118C030F1336BB5
:1005B000320E326F0001ACDF00C030F1010103C028
:1005C00031F1305303E1315301E11C8419C031F1A1
:1005D00018C030F1336BC80E326F000199DF00C0D4
:1005E00030F1010103C031F1305303E1315301E136
:1005F0001C8819C031F118C030F1010E336FF40EB0
:10060000326F000185DF00C030F1010103C031F11C
:10061000305303E1315301E11C8A195002080DE205
:10062000FF0A03E11850E80808E21F5206E01C8C9C
:10063000196A186A0001A52B01011B50000808E285
:10064000FF0A03E11A50F40803E21C8E1B6A1A6ABF
:100650009E9000012AEF00F0D38CD38AD388010E3C
:10066000936E956A966A816A8C6A846A1C6AD08ED7
:10067000F28EF28C9F809D809E90CD9ECD9CCD9AD7
:10068000CD98CD96CD94CD92F80ECF6E300ECE6E25
:10069000CD80DBEF00F092809282809080920E0EEF
:1006A000C16EC180C192890EC06EDCEF00F0010105
:1006B000296B2951285D02E3292BFBD70001120089
:1006C00026C18CFF84908482010E0101286F0001F5
:1006D000EEDF8492120001012451F00B256F25C139
:1006E00026F10001EDDF01012439006EF00E001645
:1006F0000050F00B256F25C126F10001E1DF12004B
:10070000020E0101246F0001E6DFA8EF03F0280EBE
:100710000101246F0001DFDFA9EF03F00C0E0101DE
:10072000246F0001D8DFAAEF03F0060E0101246F49
:100730000001D1DFABEF03F0010E0101246F0001D6
:10074000CADF1200280E0101286F0001B0DFD8D7E0
:10075000DED7E4D7EAD7F0DFEA6AFE0EE96EF2CF21
:1007600024F1F29E200E016EF76A000EADDE0A0043
:100770000900F5CFEEFF012EFBD7010124BFF28E59
:100780001E6B010E1F6F0001DDEF00F0010E1D6EEC
:10079000949C948E0C0EAF6E200EAC6E900EAB6ED1
:1007A0000F0EA16F1B0EA26F110EA36F200EA46F70
:1007B000EA6A620EE96EF2CF24F1F29EA151016E57
:1007C0000DE0F76A000E3ADE0A000900F5CFEEFFF1
:1007D000012EFBD7010124BFF28E0001EA6A710EDF
:1007E000E96EF2CF24F1F29EA251016E0DE0F76A9C
:1007F000000E39DE0A000900F5CFEEFF012EFBD70F
:10080000010124BFF28E0001EA6A8C0EE96EF2CF7C
:1008100024F1F29EA351016E0CE0F76A000E3EDE59
:100820000A000900F5CFEEFF012EFBD7010124BF1E
:10083000F28E0001DEEF00F09494FA0ECB6E010E02
:10084000BE6E4E0ECA6E0C0EBD6ECC6ACA94DFEF41
:1008500000F0000EC2A2010E0101256F000EC2A021
:10086000010E25150EE024C1F8F0C26A2435C26ECF
:10087000C236FC0EC216C280C282000E016E18D0B3
:1008800015D0000EC2A2010E266F000EC2B0010EDE
:1008900026150CE024510001F85DD8B402D0010106
:1008A00005D0C290010E016E010102D0020E016E50
:1008B00000011200016603D0026602D007D0022AAE
:1008C00000C0EEFF012EFCD7022EFAD71200010164
:1008D00027512903F3CF01F0F4CF00F02A03F3509E
:1008E000002628512903F3500020026E00012CEF4E
:1008F00005F023C1EAFF22C1E9FF01012DC1EFFF8D
:10090000E92AD8B4EA2AEF6A222BD8B4232B0001B3
:1009100012000900F6CF28F1F7CF29F1F5CF2DF11C
:10092000E8DF28C1F6FF29C1F7FF0101272F01D019
:1009300002D00001EED7000142EF05F001012E5177
:10094000016A2D5D03E22DC100F00CD0006A080E93
:100950002F6F2D3700362E51005CD8B0006E013657
:100960002F2FF7D700011200200E010128A9300E09
:10097000296F27C100F027AF08D0001E002A00C051
:1009800027F12D0E296F288F2881015027C12DF1C5
:10099000640E2E6F0001D2DF00C027F1300E01245B
:1009A00001012A6F27C12DF10A0E2E6F0001C6DF4B
:1009B000300E002401012C6F300E01242B6F29C151
:1009C00000F0300E2A5D04E0288328BF288512D06D
:1009D00029C12AF1200E296F300E2B5D04E02881F9
:1009E00028BF288307D0D8A4288104E12AC12BF18D
:1009F000200E2A6F28B505D028B307D028B109D01A
:100A00000CD029C12DF1000174DF2AC12DF10001A4
:100A100070DF2BC12DF100016CDF2CC12DF1000125
:100A200068DF49EF05F0EA6AFE0EE96E006A026AC5
:100A3000A4C001F03FDFC4CF25F10101246BC350F6
:100A40002427000E252325C128F124C127F12A6B74
:100A50007D0E296F00013BD702C028F101C027F1AC
:100A6000800E01012727000E282328C126F1236BC1
:100A7000FE0E226F040EF66E050EF76E050E276F42
:100A8000000147D726C127F1180E0101286F000188
:100A90006BD7DF0E01012D6F00012BDF430E01012B
:100AA0002D6F000126DF200E01012D6F000121DFD7
:100AB000F7EF00F0ABA203D0AB980000AB880101C8
:100AC00029530AE0036A2751400FE96E000E032004
:100AD000EA6EEFCFADFF02D028C1ADFF9E980001B6
:100AE0001200010E006E01012751016E04E0D89042
:100AF0000036012EFCD70050261502E1000E01D071
:100B0000010E016E00018AEF05F024C126F125C116
:100B100027F1E7D7015203E1D8901E3603D0D890D1
:100B20001E361E801E50070B070805E1010E1F6EC2
:100B3000016E0BD00AD01E50070B05E11F6A000E94
:100B4000016E03D002D01FC001F018EF01F0C4CF36
:100B5000FDF0FC6BC350FC27000EFD2323EF01F0DA
:100B60001650F90806E3175204E0162A16C0BEFF15
:100B700001D0176A1650010806E2175204E1160662
:100B800016C0BEFF02D0010E176E2AEF01F0800ED4
:100B90000101246F00019FDDFBEF05F0C00E010194
:100BA000246F000198DD01EF06F027C18CFF8480DF
:100BB0008482010E0101286F000179DD8492120008
:100BC00001012551F00B266F26C127F10001EDDF51
:100BD00001012539006EF00E00160050F00B266F53
:100BE00026C127F10001E1DF12EF06F001011E53DB
:100BF00003E10001CCD701011E51100803E10001FF
:100C0000CDD701011E511F0810E3036A1E51FE0FCC
:100C1000E96E000E0320EA6EEFCF24F124C125F126
:100C20000001CED701011E2B02D01F6B1E6B0001ED
:100C300035EF01F0FB510F0802E3FB5303E1FB6BBF
:100C4000010EFA6FD890FB35036AF2CF24F1F29EC1
:100C500060EC00F00900F5CF03F0010124BFF28E33
:100C6000246F0350256F0001FD5D36E308E1FC5160
:100C70000101245DD8A002D000012ED00001D8903F
:100C8000FB35036AF2CF24F1F29E01EC02F0090079
:100C9000F5CF03F0010124BFF28E246F03C025F1CC
:100CA0000001FD510101035CD8B002D0000114D055
:100CB00005E124510001FC5D0FE20101036A00011E
:100CC000FB51F2CF24F1F29E4BEC00F0010124BF66
:100CD000F28EE8CFF9F00001FB2B42EF01F09EAA63
:100CE00002D0AECF01F07EEF07F00101285302E100
:100CF000295342E024C1E9FF25C1EAFFEFCF2AF1E1
:100D000027C103F026C1E9FF27C1EAFFEF502A5DA2
:100D100017E025C103F024C1E9FF03C0EAFFEFCFCC
:100D20002AF127C103F026C1E9FF27C1EAFFEF50EE
:100D30002A5D02E2FF0E01D0010E016E1FD00BD022
:100D400025C103F024C1E9FF25C1EAFFEF5203E109
:100D5000000E016E13D025C103F02451242BD8B40A
:100D6000252B27C103F02651262BD8B4272B285139
:100D7000D8B429072807BAD7000E016E0001120067
:100D80000101256B200E246F276BA80E266F296B9F
:100D9000060E286F0001A9DF015216E11D80EA6AE4
:100DA000200EE96EF2CF24F1F29E016EF76A000E7A
:100DB00064EC02F00A000900F5CFEEFF012EFBD72C
:100DC000010124BFF28E94D00101256B200E246F07
:100DD000276BAF0E266F296B070E286F000185DF8A
:100DE000015203E11D90A8DC82D00101256B200E89
:100DF000246F276BB70E266F296B070E286F000133
:100E000074DF015202E11D8272D00101256B200EB8
:100E1000246F276BBF0E266F296B080E286F000109
:100E200064DF015202E11D9262D00101256B200EA8
:100E3000246F276BC80E266F296B060E286F0001E2
:100E400054DF015202E11D8452D00101256B200EB6
:100E5000246F276BCF0E266F296B070E286F0001BA
:100E600044DF015203E11D94819E41D00101256BB5
:100E7000200E246F276BD70E266F296B060E286F66
:100E8000000133DF015202E11D8631D00101256BE3
:100E9000200E246F276BDE0E266F296B070E286F3E
:100EA000000123DF015202E11D9621D00101256BD3
:100EB000200E246F276BE60E266F296B070E286F16
:100EC000000113DF015203E11D88CA8410D0010123
:100ED000256B200E246F276BEE0E266F296B080EF4
:100EE000286F000102DF015202E1CA941D9801013E
:100EF000000199EF07F0F791A56BF1D601C060F002
:100F0000605008080CE161520AE06106036A615012
:100F1000200FE96E000E0320EA6EEF6A32D06050B7
:100F20000D081CE1F76BF7839D6B9E6B9F6BA06BAD
:100F300027D7EA6AFE0EE96EE26A200EE16E016EC4
:100F4000E6CFEEFF012EFCD7EA6A200EE96E006ABA
:100F5000026A016EAFDC616AA66B13D061501F0894
:100F600006E2040EA66FF785F79B9F6B0AD0036A13
:100F70006150200FE96E000E0320EA6E60C0EFFFA3
:100F8000612A20EF08F00101245312E1255310E1FA
:100F9000EA6A400EE96EE26A620EE16E0001A1515A
:100FA000016E04E0E6CFEEFF012EFCD73DD001013B
:100FB000242D12D0255310E1EA6A400EE96EE26A50
:100FC000710EE16E0001A251016E04E0E6CFEEFF6A
:100FD000012EFCD729D001012451020812E125532A
:100FE00010E1EA6A400EE96EE26A8C0EE16E0001E1
:100FF000A351016E04E0E6CFEEFF012EFCD714D022
:1010000001012451030811E125530FE1EA6A400E62
:10101000E96EE26AFE0EE16E0001A451016E04E089
:10102000E6CFEEFF012EFCD7010125C127F1286B89
:10103000010E296F00013EDD12009EAA01D05BD790
:10104000A551000801E2F781A65109E0010A0EE06E
:10105000030A28E0010A44E0070A60E080D0F7A311
:1010600004D0F7A102D0010EA66F7AD09EA819D0A5
:10107000F7B717D00101246B9DC025F1000183DF74
:10108000010EA15D9D5D0CE3F787020EA66FEA6A73
:10109000400EE96E006A026A200E016E0BDC01D080
:1010A0009D2B5ED09EA81BD0F7BD19D0030E010169
:1010B000246FA0C025F1000166DF010EA45DA05DD4
:1010C0000DE3F78D030EA66FEA6A400EE96E006A23
:1010D000026A200E016E5AEC04F001D0A02B40D021
:1010E0009EA81BD0F7B919D0010E0101246F9EC034
:1010F00025F1000148DF010EA25D9E5D0DE3F78939
:10110000A66BF793EA6A400EE96E006A026A200E47
:10111000016E5AEC04F001D09E2B22D09EA81ED066
:10112000F7BB1CD0F7A51AD0020E0101246F9FC097
:1011300025F1000128DF010EA35D9F5D0EE3F78B13
:10114000F795EA6A400EE96E006A026A200E016EA7
:101150005AEC04F09F6BA66B01D09F2B01D0A66BBD
:0411600046EF01F065
:020000040030CA
:0E00000000C91E01000781000FC00FE00F4075
:00000001FF
;PIC18F4520
;CRC=8855  CREATED="20-Jul-23 14:22"
