:0400000080EF00F09D
:08000800046ED8CF05F0E0CF33
:1000100006F00001E9CF0CF0EACF07F0E1CF08F0DD
:10002000E2CF09F0D9CF0AF0DACF0BF0F3CF12F01C
:10003000F4CF13F0FACF14F000C00EF001C00FF0AF
:1000400002C010F003C011F09DA02AEF00F09EB096
:1000500023EF02F00EC000F00FC001F010C002F05C
:1000600011C003F00CC0E9FF07C0EAFF078E08C00B
:10007000E1FF09C0E2FF0AC0D9FF0BC0DAFF12C0DE
:10008000F3FF13C0F4FF14C0FAFF045006C0E0FFF2
:1000900005C0D8FF1000F2CF0DF0F29EF76AB00F46
:1000A000F66E000EF7220900F5500DBEF28E12001A
:1000B000494E464F524D454C454B54524F4E494B7D
:1000C00041522D4745202020205354414A59455242
:1000D000000054454D50203A254C64004D6A4D5067
:1000E0004C5C02E34D2AFBD712004AC08CFF84907F
:0C00F0008482010E4C6EF2DF849212003C
:10010000F86AD09E078E700ED36ED350B8960C0E40
:10011000AF6EA20EAC6E900EAB6E00000000476A90
:10012000466AC150C00B0F09C16E070EB46EBCD138
:1001300003D266DB0A0E456EC1D318A004D0189016
:100140003A5201E0E4D318A201D0189218AC08D0BA
:10015000189C817E4550000801E252DB010E3A6E88
:04016000EBD70300D6
:0E040200016A026A006A036A5A5002E1595008
:1004100018E0100E5B6ED89057365836003603360B
:100420005A50035C02E15950005C07E35950005EEA
:10043000D8A003065A50035ED880013602365B2EE0
:10044000EAD73CEF02F0F80ECF6E300ECE6E9E90E3
:10045000162AD8B4172A1650010B576E586A5752ED
:1004600003E1585201E1188017C058F016C057F048
:100470005A6A320E596EC5D700C057F003C058F003
:10048000575203E1585201E118821750020809E25D
:10049000FF0A03E11650E70804E2188C176A166A8F
:1004A000452A9E902AEF00F0D38CD38AD388936A92
:1004B000956A966A816A8C6A846A186AD08EF28E0E
:1004C000F28C9F809D809E90CD9ECD9CCD9ACD98A4
:1004D000CD96CD94CD92F80ECF6E300ECE6ECD80EF
:1004E00098EF00F04850F00B496E49C04AF0FDDD2E
:1004F0004838006EF00E00160050F00B496E49C0EF
:100500004AF0F3DD1200020E486EECDFA0EF02F0BD
:10051000280E486EE7DFA1EF02F00C0E486EE2DF16
:10052000A2EF02F0060E486EDDDFA3EF02F0010E2F
:10053000486ED8DFA4EF02F0280E4C6ECFDDE3D773
:10054000E7D7EBD7EFD7F3D7EA6A190EE96EF2CF08
:1005500048F0F29E200E016EF76A000E9CDD0A0044
:100560000900F5CFEEFF012EFBD748BEF28E396AA7
:10057000010E3A6E99EF00F0829094901200090EED
:100580004E5E0BE3EA6A4E0EE96ED890EF32EF5002
:1005900004E001D00000EF2EFDD71200828094808D
:1005A0001200EADF020E4D6EF80E4E6EE8DF4D2EA1
:1005B000FBD7F4DF020E4D6EF80E4E6EE0DF4D2ECF
:1005C000FBD712004E6A4E50070813E3D5DF00D068
:1005D00000D04DA001D0E2DF2A0E006E002EFED723
:1005E00000D00000DBDF00D000D0D8904D324E2A82
:1005F000EAD712004E6A4D6A4D5007081DE3BCDF72
:1006000000D000D0CBDF020E006E002EFED700001F
:1006100082A00BD0010E006E4D50016E04E0D89008
:100620000036012EFCD700504E124F0E006E002EE9
:10063000FED700D04D2AE0D74EC001F012004E5038
:100640005018800B526E4EAE05D04D1E4E1E4D2AD8
:10065000D8B44E2A50AE05D04F1E501E4F2AD8B4E3
:10066000502A016A026A006A036A505002E14F5040
:1006700018E0100E516ED8904D364E3600360336C7
:100680005050035C02E14F50005C07E34F50005EA6
:10069000D8A003065050035ED88001360236512E92
:1006A000EAD752AE05D0011E021E012AD8B4022A92
:1006B00033EF04F047C0EAFF46C0E9FF56C0EFFF42
:1006C000E92AD8B4EA2AEF6A462AD8B4472A12009F
:1006D0000900F6CF4EF0F7CF4FF0F5CF56F0EADF36
:1006E0004EC0F6FF4FC0F7FF4D2EF2D741EF04F09A
:1006F000EACF55F0E9CF54F04EAE08D0548E54A84E
:10070000542A4D1E4E1E4D2AD8B44E2A4E38F0099A
:10071000506E5026E20F516E320F536E4E500F0B3B
:10072000512651265326E90F526E522652264D3835
:100730000F0B5226532652365336531E53364D5006
:100740000F0B53265036070E4F6E0A0E52065326D5
:10075000FDE351065226FDE350065126FDE34F0608
:100760005026FDE3EA6A4F0EE96E070E5414549CBE
:10077000ED52541407E154B8EE5254B803D0200E91
:10078000006E20D0E926000EEA22E950530803E16A
:10079000EA5201E1548CEF50006E08E154BC06D0DF
:1007A00054B81BD054B602D0200E0BD054AE06D095
:1007B0002D0E006EED50549C549E04D054865498D7
:1007C000300E0026EACF4EF0E9CF4DF000C056F0D3
:1007D00071DF4EC0EAFF4DC0E9FFEE5054ACD5D7F3
:1007E00048EF04F0016603D0026602D007D0022A67
:1007F00000C0EEFF012EFCD7022EFAD750EF04F016
:10080000486ACFDECC0E4D6EDDDE440E4D6EDADE74
:10081000485204E1EFDE01C048F0FAD7C2DECC0E48
:100820004D6ED0DEBE0E4D6ECDDEE4DE01C049F071
:10083000E1DE01C04AF0036A4AC04BF003C04CF04D
:100840004BC003F0000E4924016E000E032201C0CC
:100850004BF003C04CF04CC04EF04BC04DF0506A12
:10086000100E4F6EECD602C04CF001C04BF0476A40
:100870003B0E466ED20EF66E000EF76E060E4D6EF5
:1008800027D7100EE96E4CC04EF04BC04DF030D75C
:10089000EA6A190EE96E006A026A200E016EA2D79A
:1008A000EA6A190EE96EE26A3B0EE16E090E016E0C
:1008B000E6CFEEFF012EFCD7456A120004009DEF43
:1008C00000F0800E486E0EDE8AEF04F0C00E486E17
:1008D00009DE8EEF04F04BC08CFF84808482010E11
:1008E0004C6E6EEC00F0849212004950F00B4A6E90
:1008F0004AC04BF0F0DF4938006EF00E0016005091
:10090000F00B4A6E4AC04BF0E6DF9DEF04F039521F
:1009100001E1D7D73950100801E1D8D739501F0865
:100920000EE3036A3950190FE96E000E0320EA6ED8
:10093000EFCF48F048C049F0D8D7392A02D03A6AF8
:06094000396AA3EF00F08C
:020000040030CA
:0E00000000C81E06000781000FC00FE00F4071
:00000001FF
;PIC18F4520
;CRC=2A4A  CREATED="28-Jul-23 08:27"
