:0400000080EF00F09D
:08000800046ED8CF05F0E0CF33
:1000100006F00001E9CF0CF0EACF07F0E1CF08F0DD
:10002000E2CF09F0D9CF0AF0DACF0BF0F3CF12F01C
:10003000F4CF13F0FACF14F000C00EF001C00FF0AF
:1000400002C010F003C011F09DA02AEF00F09EB096
:10005000BAEF02F00EC000F00FC001F010C002F0C5
:1000600011C003F00CC0E9FF07C0EAFF078E08C00B
:10007000E1FF09C0E2FF0AC0D9FF0BC0DAFF12C0DE
:10008000F3FF13C0F4FF14C0FAFF045006C0E0FFF2
:1000900005C0D8FF1000016A026A006A036AA25113
:1000A00002E1A15118E0100EA36FD8909F37A0373E
:1000B00000360336A251035C02E1A151005C07E364
:1000C000A151005ED8A00306A251035ED88001367C
:1000D0000236A32FEAD7D3EF02F0976B9751965DC4
:1000E00002E3972BFBD7120094C08CFF849084828C
:1000F000010E966FF2DF84921200829094901200AB
:10010000F86AD09E078E700ED36ED350B8960C0E40
:10011000AF6EA20EAC6E900EAB6E000000008E6B48
:10012000906B8F6BC150C00B0F09C16E070EB46E80
:1001300084D2CBD2916BCFEC04F0CFEC04F0CFECB7
:1001400004F0F28E83EF05F018A005D018903A5213
:1001500002E0ACEF05F018A201D0189218AC06D05E
:10016000189C817E30EF07F0010E3A6EEBD703004A
:0E040200F2CF0DF0F29EF76A1C0FF66E040E9C
:10041000F7220900F5500DBEF28E1200005EBCE21C
:10042000613FDD83C29C7E20A3FD1F419DC3217FD0
:10043000FCA2401E5F01E3BD3E6082DC237D9FC1C4
:10044000421CFEA0E1BF5D0380DE3C62BEE0025CB8
:10045000DF81633D7C22C09E1D43A1FF4618FAA4A4
:1004600027799BC584DA3866E5BB5907DB85673990
:10047000BAE406581947A5FB7826C49A653BD98784
:10048000045AB8E6A7F91B45C6987A24F8A6441A78
:1004900099C7257B3A6486D85B05E7B98CD2306E64
:1004A000EDB3510F4E10F2AC2F7193CD114FADF350
:1004B000702ECC92D38D6F31B2EC0E50AFF1134D44
:1004C000CE90722C6D33D18F0C52B0EE326C8ED038
:1004D000530DEFB1F0AE4C1291CF2D73CA94762824
:1004E000ABF517490856B4EA6937D58B5709EBB510
:1004F00036688AD495CB2977F4AA4816E9B7550B04
:1005000088D6346A2B7597C94A14F6A8742AC896F7
:10051000154BA9F7B6E80A54D7896B35F2CF0DF021
:10052000F29EF76A360FF66E050EF7220900F550B7
:100530000DBEF28E1200494E464F524D454C454B72
:1005400054524F4E494B41522D47452020202053B5
:1005500054414A59455200004E6F206465766963E4
:10056000657320666F756E640D0054454D50203ADA
:10057000254C6400F80ECF6E300ECE6E9E90162A7B
:10058000D8B4172A1650010B9F6FA06B9F5303E13D
:10059000A05301E1188017C0A0F016C09FF0A26B15
:1005A000320EA16F78D500C09FF003C0A0F09F531A
:1005B00003E1A05301E118821750020808E2FF0A84
:1005C00003E11650E70803E2188C176A166A9E903A
:1005D0002AEF00F05431203A254C64202054323A5E
:1005E00020254C642020202054333A20254C6420C0
:1005F0002020202000005431203A254C6420205433
:10060000323A20254C642020202054333A20254CB7
:1006100064202020202000005431203A254C642002
:100620002054323A20254C642020202054333A2094
:10063000254C6420202020200000D38CD38AD3882E
:10064000936A956A966A816A8C6A846A186AD08EFF
:10065000F29EF28C9F809D809E90CD9ECD9CCD9AE7
:10066000CD98CD96CD94CD92F80ECF6E300ECE6E45
:10067000CD8099EF00F09251F00B936F93C094F0FE
:1006800033DD9239006EF00E00160050F00B936FC0
:1006900093C094F029DD1200020E926FECDF69EF37
:1006A00003F0280E926FE7DF6AEF03F00C0E926FF3
:1006B000E2DF6BEF03F0060E926FDDDF6CEF03F00D
:1006C000010E926FD8DF6DEF03F0280E966F05DDF7
:1006D000E3D7E7D7EBD7EFD7F3D7EA6A190EE96E7E
:1006E000F2CF92F0F29E200E016EF76A000E16DF36
:1006F0000A000900F5CFEEFF012EFBD792BFF28E64
:10070000396A010E3A6E9AEF00F0090E9C5F0BE316
:10071000EA6A9C0EE96ED890EF32EF5004E001D007
:100720000000EF2EFDD71200828094801200E5DCDD
:1007300000D000D0F9DF020E006E002EFED700D0F0
:1007400000009B9182B09B814F0E006E002EFED761
:1007500000D0000E9BB1010E016E12009A6BCDDC31
:10076000020E9B6FF80E9C6FD0DF9B2FFBD7DCDF58
:100770002E0E006E002EFED70000D9DF01C09AF0C9
:10078000020E9B6FD50E9C6FC0DF9B2FFBD7CCDF7B
:100790009AC001F01BEF04F09B6B9B51070813E319
:1007A000ACDC00D000D09AA101D0BEDF2A0E006ED2
:1007B000002EFED700D00000B7DF00D000D0D890C8
:1007C0009A339B2BEAD7120098DC00D000D0ACDF24
:1007D0002A0E006E002EFED700D00000A5DF00D04C
:1007E00000D077EF04F089DC2A0E006E002EFED7D1
:1007F00000D0000099DF060E006E002EFED700002C
:1008000077EF04F08D519B19036AF2CF9CF0F29EB2
:10081000F8DD9CBFF28E8D6F8DC001F088EF04F083
:10082000010E926F936B946B986F956B8D6B8C53DD
:10083000D8A481D093D7015206E08A6B8C6B8B6B66
:10084000000E016E82D0F00E9A6FA6DF70DF01C03D
:1008500096F06DDF01C097F0962D04D0972D02D051
:100860005DD059D09751965D03E096C099F022D0A3
:100870008A51925D0FE2036A9451810FE96E000E76
:100880000320EA6EEF50981502E1000E01D0010E30
:10089000996F07D08A51925D02E0000E01D0010EDF
:1008A000996F995307E192C093F09351080802E3BE
:1008B00093C08BF0992D0BD0036A9451810FE96E90
:1008C000000E0320EA6EEF509811EF6E0BD0036A12
:1008D0009451810FE96E000E0320EA6E9851FF0AD1
:1008E000EF14EF6E995302E06FD701D07CD7922BB3
:1008F000D890983798530FE1036A9451810FE96EAD
:10090000000E0320EA6EEFCF9AF09AC09BF07AD7E0
:10091000942B010E986F9451070898E29251400869
:100920000AE28D5308E193C08AF08A5302E1010E76
:100930008C6F010E956F955302E0815304E18A6B31
:100940008C6B8B6B956B95C001F012008A6B8C6B76
:100950008B6B66DF0150DAEF04F0016603D00266AC
:1009600002D007D0022A00C0EEFF012EFCD7022ED3
:10097000FAD7120055DF015012000900F5520DE0C0
:10098000F6CF92F0F7CF93F0F5509EA8FED7AD6E5C
:1009900092C0F6FF93C0F7FFF0D782EF05F03C500E
:1009A000000A06E0010A3CE0030AD8B470D0A3D0E4
:1009B0003B6ACCD7015232E03B2A656A6550070892
:1009C00023E33C50090DF350936B926F036A65501B
:1009D0009225016E935103220150660F016E000EA5
:1009E000032203C093F0036A6550810FE96E000E85
:1009F0000320EA6EEFCF94F093C0EAFF01C0E9FF55
:100A000094C0EFFF652ADAD7EA6A810EE96E006AC0
:100A1000026A080E016EA1DF3C2A01D03C6A6BD04D
:100A2000A9DF015232E03B2A656A6550070823E3DB
:100A30003C50090DF350936B926F036A65509225F9
:100A4000016E935103220150660F016E000E0322C6
:100A500003C093F0036A6550810FE96E000E032016
:100A6000EA6EEFCF94F093C0EAFF01C0E9FF94C0B3
:100A7000EFFF652ADAD7EA6A810EE96E006A026A38
:100A8000080E016E6ADF3C2A01D03C6A34D072DF66
:100A9000015230E03B2A656A6550070823E33C5069
:100AA000090DF350936B926F036A65509225016EA6
:100AB000935103220150660F016E000E032203C002
:100AC00093F0036A6550810FE96E000E0320EA6E11
:100AD000EFCF94F093C0EAFF01C0E9FF94C0EFFFAD
:100AE000652ADAD7EA6A810EE96E006A026A080EA0
:100AF000016E33DF3C6A3B5205E1580EF66E050E7F
:100B0000F76E3BD712000400A4EF00F0800E926F46
:100B1000B2DDAFEF05F0C00E926FADDDB3EF05F0C3
:100B200095C08CFF84808482010E966F6DEC00F07E
:100B3000849212009351F00B946F94C095F0F0DF03
:100B40009339006EF00E00160050F00B946F94C0B5
:100B500095F0E6DFC2EF05F0395201E1D7D7395001
:100B6000100801E1D8D739501F080EE3036A395045
:100B7000190FE96E000E0320EA6EEFCF92F092C0DB
:100B800093F0D8D7392A02D03A6A396AABEF00F02D
:100B90007DEC00F0020E996FF80E9C6FB6DD992F78
:100BA000FBD7C2DD020E996FF80E9C6FAEDD992F58
:100BB000FBD712009A6B996B995107081EE37DECE5
:100BC00000F000D000D0B0DD020E006E002EFED787
:100BD000000082A00BD0010E006E9951016E04E05E
:100BE000D8900036012EFCD700509A134F0E006E9D
:100BF000002EFED700D0992BDFD79AC001F012004B
:100C00009A519C19800B9E6F9AAF05D0991F9A1F1D
:100C1000992BD8B49A2B9CAF05D09B1F9C1F9B2B64
:100C2000D8B49C2B016A026A006A036A9C5102E1F3
:100C30009B5118E0100E9D6FD89099379A37003667
:100C400003369C51035C02E19B51005C07E39B511E
:100C5000005ED8A003069C51035ED88001360236A0
:100C60009D2FEAD79EAF05D0011E021E012AD8B4DF
:100C7000022A91EF06F08E531BE18E2B89DF550E71
:100C80009A6F8ADD656A655007080EE3036A65504E
:100C90009225E96E93510320EA6EEFCF99F099C047
:100CA0009AF07ADD652AEFD7440E9A6F75DD41D050
:100CB0008E6B946B6DDF550E9A6F6EDD656A6550B5
:100CC00007080EE3036A65509225E96E93510320ED
:100CD000EA6EEFCF99F099C09AF05EDD652AEFD702
:100CE000BE0E9A6F59DD66DF01C095F063DF01C06B
:100CF00096F0036A96C097F003C098F097C003F08F
:100D0000000E9525016E000E032201C097F003C06E
:100D100098F098C09AF097C099F09C6B100E9B6F5A
:100D20006FD702C098F001C097F098C05EF097C0EE
:100D30005DF0120090C0EAFF8FC0E9FF9BC0EFFF9B
:100D4000E92AD8B4EA2AEF6A8F2BD8B4902B120084
:100D50000900F6CF93F0F7CF94F0F5CF9BF0EADFE0
:100D600093C0F6FF94C0F7FF922FF2D71200EACF9C
:100D70009AF0E9CF99F093AF08D0998F99A9992B60
:100D8000921F931F922BD8B4932B9339F009956F30
:100D90009527E20F966F320F986F93510F0B96279E
:100DA00096279827E90F976F9727972792390F0B68
:100DB0009727982797379837981F983792510F0B96
:100DC00098279537070E946F0A0E97079827FDE32B
:100DD00096079727FDE395079627FDE39407952748
:100DE000FDE3EA6A940EE96E070E9915999DED529E
:100DF000991507E199B9EE5299B903D0200E006E0A
:100E000020D0E926000EEA22E950980803E1EA52D0
:100E100001E1998DEF50006E08E199BD06D099B9B6
:100E20001BD099B702D0200E0BD099AF06D02D0E53
:100E3000006EED50999D999F04D099879999300E35
:100E40000026EACF93F0E9CF92F000C09BF072DF6A
:100E500093C0EAFF92C0E9FFEE5099ADD5D71200DA
:100E600091510508D8A006D1F29E915302E0912D30
:100E700053D0936B660E926FFEDE5EC060F05DC075
:100E80005FF0912D48D0906B3D0E8F6FD40EF66EB3
:100E9000050EF76E040E926F5BDF100EE96E60C0F8
:100EA00093F05FC092F063DFDB0EF66E050EF76E17
:100EB000060E926F4DDF100EE96E62C093F061C0B6
:100EC00092F055DFE40EF66E050EF76E080E926F87
:100ED0003FDF100EE96E64C093F063C092F047DF0D
:100EE000EF0EF66E050EF76E050E926F31DFEA6AB1
:100EF000190EE96E006A026A200E016E2EDDEA6AA2
:100F0000190EE96EE26A3D0EE16E200E016EE6CF2B
:100F1000EEFF012EFCD7ADD09151020803E09151B4
:100F2000030854E1936B6F0E926FA5DE5EC062F012
:100F30005DC061F09151030848E1906B3D0E8F6FE9
:100F4000F60EF66E050EF76E040E926F01DF100EB0
:100F5000E96E60C093F05FC092F009DFFD0EF66E9F
:100F6000050EF76E060E926FF3DE100EE96E62C08C
:100F700093F061C092F0FBDE060EF66E060EF76E81
:100F8000080E926FE5DE100EE96E64C093F063C048
:100F900092F0EDDE110EF66E060EF76E050E926FF4
:100FA000D7DEEA6A190EE96E006A026A200E016E47
:100FB000D4DCEA6A190EE96EE26A3D0EE16E200E9B
:100FC000016EE6CFEEFF012EFCD753D0936B780E67
:100FD000926F51DE5EC064F05DC063F09151050810
:100FE00048E1906B3D0E8F6F180EF66E060EF76E91
:100FF000040E926FADDE100EE96E60C093F05FC01C
:1010000092F0B5DE1F0EF66E060EF76E060E926FAC
:101010009FDE100EE96E62C093F061C092F0A7DE11
:10102000280EF66E060EF76E080E926F91DE100E09
:10103000E96E64C093F063C092F099DE330EF66EF1
:10104000060EF76E050E926F83DEEA6A190EE96EE0
:10105000006A026A200E016E80DCEA6A190EE96EEF
:10106000E26A3D0EE16E200E016EE6CFEEFF012E2C
:10107000FCD7F28E912B91513B0801E2916BB4EFBA
:0210800000F07E
:020000040030CA
:0E00000000C81E06000781000FC00FE00F4071
:00000001FF
;PIC18F4520
;CRC=1635  CREATED="28-Jul-23 17:15"
