:0400000080EF00F09D
:08000800046ED8CF05F0E0CF33
:1000100006F00001E9CF0CF0EACF07F0E1CF08F0DD
:10002000E2CF09F0D9CF0AF0DACF0BF0F3CF12F01C
:10003000F4CF13F0FACF14F000C00EF001C00FF0AF
:1000400002C010F003C011F09DA02AEF00F09EB096
:100050005EEF02F00EC000F00FC001F010C002F021
:1000600011C003F00CC0E9FF07C0EAFF078E08C00B
:10007000E1FF09C0E2FF0AC0D9FF0BC0DAFF12C0DE
:10008000F3FF13C0F4FF14C0FAFF045006C0E0FFF2
:1000900005C0D8FF1000F2CF0DF0F29EF76AB00F46
:1000A000F66E000EF7220900F5500DBEF28E12001A
:1000B0000C4D45564355542059415A493A200000A9
:1000C000F2CF0DF0F29EF76ADA0FF66E000EF7220D
:1000D0000900F5500DBEF28E12000D4C7574666568
:1000E0006E206269722079617A6920676972696E2F
:1000F000697A3A200000020EFA6F65DA0BEF03F01E
:10010000F86AD09E078E1B6AF96BF86BC150C00B62
:100110000F09C16E070EB46E1CD00200F600002F4E
:1001200000A44C43442E4F4E004C43442E4F4646B1
:100130000054454D502E4F4E0054454D502E4F46C5
:1001400046004C45442E4F4E004C45442E4F4646EB
:100150000000000EF86E010EF76E1A0EF66E090022
:10016000F550006E000A13E00900F550016EE8BE7C
:1001700005D00F0BEA6E0900F5CFE9FF01BC0900BD
:1001800001AC0900F5CFEEFF004EE9D7F9D7F86AC8
:10019000E2D100D23CD25BD2AAD218AC06D0189CD5
:1001A00019A401D0817E010EF56F18AA05D0189A06
:1001B00019A202D0FA6BA0D318A405D0189481CF4D
:1001C000FAF0FB6BCAD318A007D01890F55304E0DF
:1001D00019A002D0F4EF04F072EF06F0DDD70300AF
:0E040200F2CF0DF0F29EF76A1C0FF66E040E9C
:10041000F7220900F5500DBEF28E12000D4C696DE9
:100420006974204173696C64692121210000F2CF55
:100430000DF0F29EF76A480FF66E040EF7220900DF
:10044000F5500DBEF28E1200494E464F524D454CAE
:10045000454B54524F4E494B41522D474520202089
:10046000205354414A594552000054454D503A25B5
:10047000642563432000016A026A006A036A01017D
:100480000C5102E10B5118E0100E0D6FD890093796
:100490000A37003603360C51035C02E10B51005C55
:1004A00007E30B51005ED8A003060C51035ED88011
:1004B000013602360D2FEAD700011200F80ECF6E7A
:1004C000300ECE6E9E90162AD8B4172A1650010B05
:1004D0000101096F0A6B095303E10A5301E1188016
:1004E00017C00AF116C009F10C6B320E0B6F000138
:1004F000C2DF00C009F1010103C00AF1095303E1A1
:100500000A5301E1188417C00AF116C009F1010E5F
:100510000C6FF40E0B6F0001AEDF00C009F101019A
:1005200003C00AF1095303E10A5301E1188A175085
:1005300002080DE2FF0A03E11650E80808E21B5228
:1005400006E0188C176A166A0001A12B01019E9023
:1005500000012AEF00F0D38CD38AD388010E936E6A
:10056000956A966A816A8C6A846A186AD08EF28E5D
:10057000F28C9F809D809E90CD9ECD9CCD9ACD98F3
:10058000CD96CD94CD92F80ECF6E300ECE6ECD803E
:10059000C9EF00F0928080900E0EC16EC190890E5E
:1005A000C06ECAEF00F0FF6BFF51FE5D02E3FF2B50
:1005B000FBD71200FCC08CFF84908482010EFE6F7A
:1005C000F2DF84921200FA51F00BFB6FFBC0FCF0DB
:1005D000F1DFFA39006EF00E00160050F00BFB6FE1
:1005E000FBC0FCF0E7DF1200280EFA6FECDF0CEF27
:1005F00003F00C0EFA6FE7DF0DEF03F0060EFA6F53
:10060000E2DF0EEF03F0010EFA6FDDDF1200280EBD
:10061000FE6FC9DF70D5E8D7ECD7F0D7F4DFEA6A10
:10062000D40EE96EF2CFFAF0F29E200E016EF76A58
:10063000000EFDDE0A000900F5CFEEFF012EFBD70C
:10064000FABFF28EF46B010EF56FCBEF00F0030EE4
:10065000196E949C948E0C0EAF6E200EAC6E900EA4
:10066000AB6E0F0E9D6F1B0E9E6F110E9F6F200EB7
:10067000A06FEA6A5E0EE96EF2CFFAF0F29E9D512B
:10068000016E0BE0F76A000E06DD0A000900F5CFE7
:10069000EEFF012EFBD7FABFF28EEA6A6D0EE96E0D
:1006A000F2CFFAF0F29E9E51016E0BE0F76A000E57
:1006B00007DD0A000900F5CFEEFF012EFBD7FABFD8
:1006C000F28EEA6A880EE96EF2CFFAF0F29E9F513E
:1006D000016E0BE0F76A000E94DE0A000900F5CF08
:1006E000EEFF012EFBD7FABFF28ECCEF00F0040034
:1006F000CDEF00F0016603D0026602D007D0022AD7
:1007000000C0EEFF012EFCD7022EFAD71200FE51D8
:1007100001010003F3CF01F0F4CF00F00103F35027
:1007200000260001FF5101010003F3500020026E7A
:10073000000152EF04F0F9C0EAFFF8C0E9FF01013F
:1007400006C1EFFFE92AD8B4EA2AEF6A0001F82BC4
:10075000D8B4F92B12000900F6CFFFF0F7CF00F163
:10076000F5CF06F1E8DFFFC0F6FF00C1F7FFFE2F6F
:10077000F2D766EF04F001010751016A065D03E25A
:1007800006C100F00CD0006A080E086F063700366C
:100790000751005CD8B0006E0136082FF7D7000172
:1007A0001200200EFFA9300E0101006FFEC000F004
:1007B00000AE0AD0001E002A00C0FEF02D0E006F11
:1007C0000001FF8FFF8101010150FEC006F1640EA0
:1007D000076F0001D0DF00C0FEF0300E01240101E0
:1007E000016FFEC006F10A0E076F0001C4DF300E74
:1007F00000240101036F300E0124026F00C100F0DC
:10080000300E015D06E00001FF83FFBFFF851CD0B5
:10081000010100C101F1200E006F300E025D06E003
:100820000001FF81FFBFFF830FD00101D8B403D0C7
:100830000001FF810101D8B402D0000105D001C13F
:1008400002F1200E016F0001FFB505D0FFB306D005
:10085000FFB107D009D000C106F16DDF01C106F17B
:100860006ADF02C106F167DF03C106F164DF6BEFE7
:1008700004F0EA6AD40EE96E006A026AA0C001F0D0
:1008800039DFC4CFFCF0FB6BC350FB27000EFC2309
:10089000FCC0FFF0FBC0FEF00101016B7D0E006F9C
:1008A000000135D702C0FFF001C0FEF0800EFE2728
:1008B000000EFF23FFC0FDF0F96BD40EF86F6A0E37
:1008C000F66E040EF76E050EFE6F45D7FDC0FEF006
:1008D000180EFF6F66D7DF0E0101066F00012BDFD8
:1008E000430E0101066F000126DF200E0101066F95
:1008F000000121DF99EF04F0000EC2A2010EFB6F90
:10090000000EC2A0010EFB1509E0C26AFA35C26EE4
:10091000C236FC0EC216C280C2820BD0000EC2A22A
:10092000010EFC6F000EC2B0010EFC1502E0C29079
:10093000A0D7DCEF00F0010E006EFD51016E04E067
:10094000D8900036012EFCD70050FC1502E1000EB5
:1009500001D0010E016EB2EF04F0FAC0FCF0FBC052
:10096000FDF0E9D7015203E1D8901A3603D0D890B0
:100970001A361A801A50070B070805E1010E1B6E84
:10098000016E0BD00AD01A50070B05E11B6A000E4E
:10099000016E03D002D01BC001F0E3EF00F0800E27
:1009A000FA6F11DEF7EF04F0C00EFA6F0CDEFBEF0A
:1009B00004F0FDC08CFF84808482010EFE6FF3DDA5
:1009C00084921200FB51F00BFC6FFCC0FDF0F1DFD4
:1009D000FB39006EF00E00160050F00BFC6FFCC0EF
:1009E000FDF0E7DF0AEF05F0F45301E1D8D7F45149
:1009F000100801E1D9D7F4511F080EE3036AF4513E
:100A0000D40FE96E000E0320EA6EEFCFFAF0FAC0C1
:100A1000FBF0D8D7F42B02D0F56BF46BECEF00F0C1
:100A20009EAA02D0AECF01F0C1EF05F0FE5302E165
:100A3000FF5348E0FAC0E9FFFBC0EAFFEFCF00F147
:100A4000FDC003F0FCC0E9FFFDC0EAFFEF5001016B
:100A5000005D19E0FBC003F00001FAC0E9FF03C02C
:100A6000EAFFEFCF00F1FDC003F0FCC0E9FFFDC0DD
:100A7000EAFFEF500101005D02E2FF0E01D0010E1E
:100A8000016E23D00DD0FBC003F00001FAC0E9FFD6
:100A9000FBC0EAFFEF5205E1000E016E010115D027
:100AA0000001FBC003F0FA51FA2BD8B4FB2BFDC0B8
:100AB00003F0FC51FC2BD8B4FD2BFE51D8B4FF073A
:100AC000FE07B4D7000E016E010100011200FB6B9E
:100AD0001C0EFA6FFD6BA40EFC6FFF6B050EFE6F14
:100AE000A5DF015202E1198047D0FB6B1C0EFA6FA3
:100AF000FD6BAB0EFC6FFF6B060EFE6F97DF0152B6
:100B000003E1199080DD38D0FB6B1C0EFA6FFD6B92
:100B1000B30EFC6FFF6B060EFE6F88DF015202E121
:100B200019822AD0FB6B1C0EFA6FFD6BBB0EFC6F9B
:100B3000FF6B070EFE6F7ADF015202E119921CD0A3
:100B4000FB6B1C0EFA6FFD6BC40EFC6FFF6B050E8A
:100B5000FE6F6CDF015202E119840ED0FB6B1C0E9C
:100B6000FA6FFD6BCB0EFC6FFF6B060EFE6F5EDF48
:100B7000015202E11994819EDCEF05F0D391A16B43
:100B80004FD701C05CF05C5008080CE15D520AE0F0
:100B90005D06036A5D501C0FE96E000E0320EA6ECD
:100BA000EF6A40D05C500D082AE1D36BD383996B78
:100BB0009A6B9B6B9C6B8BD7010E5D24036A1C0F99
:100BC000016E000E032203C0EAFF01C0E9FFEF6AD5
:100BD000EA6AD40EE96EE26A1C0EE16E200E016E26
:100BE000E6CFEEFF012EFCD7EA6A1C0EE96E006A22
:100BF000026A200E016E7EDD5D6AA26B13D05D502D
:100C00001F0806E2040EA26FD385D39B9B6B0AD00C
:100C1000036A5D501C0FE96E000E0320EA6E5CC093
:100C2000EFFF5D2A75EF06F0ABA203D0AB98000092
:100C3000AB88036AFC513C0FE96E000E0320EA6E9C
:100C4000EFCFADFF9E9871EF06F0FA5310E1FB5322
:100C50000EE1EA6A3C0EE96EE26A5E0EE16E9D51BB
:100C6000016E04E0E6CFEEFF012EFCD737D0FA2D5F
:100C700010D0FB530EE1EA6A3C0EE96EE26A6D0E9B
:100C8000E16E9E51016E04E0E6CFEEFF012EFCD72F
:100C900025D0FA51020810E1FB530EE1EA6A3C0E3E
:100CA000E96EE26A880EE16E9F51016E04E0E6CFC4
:100CB000EEFF012EFCD712D0FA5103080FE1FB53CF
:100CC0000DE1EA6A3C0EE96EE26AD40EE16EA051D3
:100CD000016E04E0E6CFEEFF012EFCD7FBC0FCF076
:100CE000A3D712009EAA01D049D7A151000801E262
:100CF000D381A25109E0010A0EE0030A26E0010AAD
:100D00003FE0070A58E075D0D3A304D0D3A102D0A6
:100D1000010EA26F6FD09EA817D0D3B715D0FA6B73
:100D200099C0FBF092DF010E9D5D995D0CE3D387C6
:100D3000020EA26FEA6A3C0EE96E006A026A200E99
:100D4000016ED8DC01D0992B55D09EA818D0D3BD08
:100D500016D0030EFA6F9CC0FBF077DF010EA05D8A
:100D60009C5D0CE3D38D030EA26FEA6A3C0EE96E24
:100D7000006A026A200E016EBDDC01D09C2B3AD0C5
:100D80009EA818D0D3B916D0010EFA6F9AC0FBF006
:100D90005CDF010E9E5D9A5D0CE3D389A26BD39359
:100DA000EA6A3C0EE96E006A026A200E016EA2DC5D
:100DB00001D09A2B1FD09EA81BD0D3BB19D0D3A58E
:100DC00017D0020EFA6F9BC0FBF03FDF010E9F5D54
:100DD0009B5D0DE3D38BD395EA6A3C0EE96E006A06
:100DE000026A200E016E86DC9B6BA26B01D09B2BEE
:080DF00001D0A26BEEEF00F050
:020000040030CA
:0E00000000C91E01000781000FC00FE00F4075
:00000001FF
;PIC18F4520
;CRC=3813  CREATED="19-Jul-23 14:36"
