:100000001CEF00F0126A116A1250105C13E303E156
:1000100011500F5C0FE3146A136A145207E1135076
:10002000160804E3132AD8B4142AF7D7112AD8B42F
:10003000122AEAD749EF00F0F86AD09EC150C00BEF
:100040000F09C16E070EB46E3F0E046E060E056EEC
:100050005B0E066E4F0E076E660E086E6D0E096E15
:100060007D0E0A6E070E0B6E7F0E0C6E6F0E0D6E00
:100070000E6A956A836A036A0E50040FE96E000ED9
:100080000320EA6EEFCF83FF030E106EE80E0F6EB3
:10009000B9D70E2A0E500A0801E10E6AECD7030008
:020000040030CA
:0E00000000C91E1E000781000FC00FE00F4058
:00000001FF
;PIC18F4520
;CRC=2CE1  CREATED="07-Jul-23 14:41"
