:0400000080EF00F09D
:08000800046ED8CF05F0E0CF33
:1000100006F00001E9CF0CF0EACF07F0E1CF08F0DD
:10002000E2CF09F0D9CF0AF0DACF0BF0F3CF12F01C
:10003000F4CF13F0FACF14F000C00EF001C00FF0AF
:1000400002C010F003C011F09DA02AEF00F09EB096
:1000500056EF01F00EC000F00FC001F010C002F02A
:1000600011C003F00CC0E9FF07C0EAFF078E08C00B
:10007000E1FF09C0E2FF0AC0D9FF0BC0DAFF12C0DE
:10008000F3FF13C0F4FF14C0FAFF045006C0E0FFF2
:1000900005C0D8FF1000F2CF0DF0F29EF76AB00F46
:1000A000F66E000EF7220900F5500DBEF28E12001A
:1000B0000C4D45564355542059415A493A200000A9
:1000C000F2CF0DF0F29EF76ADA0FF66E000EF7220D
:1000D0000900F5500DBEF28E12000D4C7574666568
:1000E0006E206269722079617A6920676972696E2F
:1000F000697A3A200000020EC56F57D9FEEF01F071
:10010000F86AD09E078E1A6AC150C00B0F09C16EE3
:10011000070EB46E17D16ED18BD1D8D118A801D0EB
:10012000189818A405D0189481CFC5F0C66BE3D1F8
:0E01300018A202D0189226D2FAD2EFD70300FE
:0E020200F2CF0DF0F29EF76A1C0FF66E020EA0
:10021000F7220900F5500DBEF28E12000D4C696DEB
:100220006974204173696C64692121210000F2CF57
:100230000DF0F29EF76A480FF66E020EF7220900E3
:10024000F5500DBEF28E1200494E464F524D454CB0
:10025000454B54524F4E494B41522D47452020208B
:10026000205354414A5945520000016A026A006A0B
:10027000036ACE5102E1CD5118E0100ECF6FD89035
:10028000CB37CC3700360336CE51035C02E1CD517B
:10029000005C07E3CD51005ED8A00306CE51035E9B
:1002A000D88001360236CF2FEAD71200F80ECF6E73
:1002B000300ECE6E9E90162AD8B4172A17C0CCF0F6
:1002C00016C0CBF0CE6B140ECD6FCFDF00C0CBF0DD
:1002D00003C0CCF0CB5303E1CC5301E1188217C02B
:1002E000CCF016C0CBF0CE6B320ECD6FBEDF00C0AF
:1002F000CBF003C0CCF0CB5303E1CC5301E1188425
:1003000017C0CCF016C0CBF0CE6BC80ECD6FADDFF2
:1003100000C0CBF003C0CCF0CB5303E1CC5301E1E0
:100320001888175002080BE2FF0A03E11650E8088C
:1003300006E21A5204E0188C176A166AA02B9E90E7
:100340002AEF00F0D38CD38AD388010E926E80906E
:10035000936E956A966A816A8C6A846A186A0F0E2F
:10036000C16ED08EF28EF28C9F809D809E90CD9E2D
:10037000CD9CCD9ACD98CD96CD94CD92F80ECF6EE2
:10038000300ECE6ECD808BEF00F0CA6BCA51C95DC6
:1003900002E3CA2BFBD71200C7C08CFF8490848273
:1003A000010EC96FF2DF84921200C551F00BC66FC7
:1003B000C6C0C7F0F1DFC539006EF00E0016005060
:1003C000F00BC66FC6C0C7F0E7DF1200280EC56F7E
:1003D000ECDFFFEF01F00C0EC56FE7DF00EF02F07E
:1003E000060EC56FE2DF01EF02F0010EC56FDDDF23
:1003F00002EF02F0280EC96FC8DF7DD6E7D7EBD732
:10040000EFD7F3D7EA6AA40EE96EF2CFC5F0F29EF9
:10041000200E016EF76A000E0ADF0A000900F5CF10
:10042000EEFF012EFBD7C5BFF28EC46B8CEF00F040
:10043000949C948E0C0EAF6E200EAC6E900EAB6E34
:100440000F0E9C6F1B0E9D6F110E9E6F200E9F6FE7
:10045000EA6A5D0EE96EF2CFC5F0F29E9C51016E24
:100460000BE0F76A000E17DE0A000900F5CFEEFF79
:10047000012EFBD7C5BFF28EEA6A6C0EE96EF2CF91
:10048000C5F0F29E9D51016E0BE0F76A000E18DE7A
:100490000A000900F5CFEEFF012EFBD7C5BFF28E93
:1004A000EA6A870EE96EF2CFC5F0F29E9E51016EA8
:1004B0000BE0F76A000EA5DE0A000900F5CFEEFF9B
:1004C000012EFBD7C5BFF28E8DEF00F004008EEF3A
:1004D00000F0010E006EC851016E04E0D8900036A5
:1004E000012EFCD70050C71502E1000E01D0010E0D
:1004F000016E80EF02F0C5C0C7F0C6C0C8F0E9D7F2
:10050000015203E1D890193603D0D89019361980DA
:100510001950070B070805E1010E1A6E016E0BD08A
:100520000AD01950070B05E11A6A000E016E03D0BC
:1005300002D01AC001F098EF00F0800EC56F35DFD1
:10054000C5EF02F0C00EC56F30DFC9EF02F0C8C0C2
:100550008CFF84808482010EC96F17DF84921200A1
:10056000C651F00BC76FC7C0C8F0F1DFC639006EC7
:10057000F00E00160050F00BC76FC7C0C8F0E7DFE1
:10058000D8EF02F0C45301E1D8D7C451100801E1FB
:10059000D9D7C4511F080EE3036AC451A40FE96EF2
:1005A000000E0320EA6EEFCFC5F0C5C0C6F0D8D765
:1005B000C42B01D0C46B9CEF00F09EAA02D0AECF3A
:1005C00001F0F3EF02F0016603D0026602D007D01B
:1005D000022A00C0EEFF012EFCD7022EFAD712002D
:1005E000A391A06BEAD701C05BF05B5008080CE157
:1005F0005C520AE05C06036A5C501B0FE96E000E59
:100600000320EA6EEF6A33D05B500D081DE1A36B47
:10061000A383986B996B9A6B9B6BEA6AA40EE96E45
:10062000E26A1B0EE16E200E016EE6CFEEFF012E98
:10063000FCD7EA6A1B0EE96E006A026A200E016EA0
:10064000C2DF5C6AA16B13D05C501F0806E2040E87
:10065000A16FA385A39B9A6B0AD0036A5C501B0F02
:10066000E96E000E0320EA6E5BC0EFFF5C2A9AEF92
:1006700003F0ABA203D0AB980000AB88036AC7516C
:100680003B0FE96E000E0320EA6EEFCFADFF9E98A0
:1006900096EF03F0C55310E1C6530EE1EA6A3B0E34
:1006A000E96EE26A5D0EE16E9C51016E04E0E6CFF8
:1006B000EEFF012EFCD737D0C52D10D0C6530EE16A
:1006C000EA6A3B0EE96EE26A6C0EE16E9D51016EC4
:1006D00004E0E6CFEEFF012EFCD725D0C55102087D
:1006E00010E1C6530EE1EA6A3B0EE96EE26A870E3C
:1006F000E16E9E51016E04E0E6CFEEFF012EFCD7C5
:1007000012D0C55103080FE1C6530DE1EA6A3B0E52
:10071000E96EE26AA40EE16E9F51016E04E0E6CF3D
:10072000EEFF012EFCD7C6C0C7F0A3D712009EAAC9
:1007300001D056D7A051000801E2A381A15109E0E0
:10074000010A0EE0030A26E0010A3FE0070A58E02A
:1007500075D0A3A304D0A3A102D0010EA16F6FD0C6
:100760009EA817D0A3B715D0C56B98C0C6F092DF6E
:10077000010E9C5D985D0CE3A387020EA16FEA6AEF
:100780003B0EE96E006A026A200E016E1CDF01D08A
:10079000982B55D09EA818D0A3BD16D0030EC56FB8
:1007A0009BC0C6F077DF010E9F5D9B5D0CE3A38DC0
:1007B000030EA16FEA6A3B0EE96E006A026A200E20
:1007C000016E01DF01D09B2B3AD09EA818D0A3B9AF
:1007D00016D0010EC56F99C0C6F05CDF010E9D5D9D
:1007E000995D0CE3A389A16BA393EA6A3B0EE96EC2
:1007F000006A026A200E016EE6DE01D0992B1FD03E
:100800009EA81BD0A3BB19D0A3A517D0020EC56FFD
:100810009AC0C6F03FDF010E9E5D9A5D0DE3A38B8B
:10082000A395EA6A3B0EE96E006A026A200E016E29
:10083000CADE9A6BA16B01D09A2B01D0A16B9DEF00
:0208400000F0C6
:020000040030CA
:0E00000000C91E0F000781000FC00FE00F4067
:00000001FF
;PIC18F4520
;CRC=7F71  CREATED="18-Jul-23 09:52"
