:04000000EEEF00F02F
:08000800046ED8CF05F0E0CF33
:1000100006F00001E9CF0CF0EACF07F0E1CF08F0DD
:10002000E2CF09F0D9CF0AF0DACF0BF0F3CF12F01C
:10003000F4CF13F0FACF14F000C00EF001C00FF0AF
:1000400002C010F003C011F0F2A82AEF00F0F2B2E3
:10005000C9EF00F00EC000F00FC001F010C002F0B8
:1000600011C003F00CC0E9FF07C0EAFF078E08C00B
:10007000E1FF09C0E2FF0AC0D9FF0BC0DAFF12C0DE
:10008000F3FF13C0F4FF14C0FAFF045006C0E0FFF2
:1000900005C0D8FF1000206A1F6A20501E5C08E3CC
:1000A00003E11F501D5C04E31F2AD8B4202AF5D7B2
:1000B0001200196A17C01EF016C01DF0ECDFD890B0
:1000C00017301C6E16301B6E1CC01EF01D6EE3DF59
:1000D0001A6A1A50070814E381A00BD0010E006EB3
:1000E0001A50016E04E0D8900036012EFCD7005063
:1000F000191217C01EF016C01DF0CDDF1A2AE9D75D
:1001000081A00DD0D89017301C6E16301B6E1CC00D
:100110001EF01D6EC0DF19C001F00CD00BD0D890BE
:1001200017301C6E16301B6E1CC01EF01D6EB3DF28
:10013000000E016ECCEF00F0819217C01EF016C0C9
:100140001DF0A9DF1A6A1A50070816E3010E006EA7
:100150001A50016E04E0D8900036012EFCD70050F2
:10016000191402E0818201D0819217C01EF016C0DE
:100170001DF091DF1A2AE7D78182E80E16241B6E44
:10018000030E17201C6E1E6E1BC01DF084DFD2EF05
:1001900000F0186AF2988DD701C018F0817418C069
:1001A00019F0CAD7F292F288F2922AEF00F0D38CBB
:1001B000D38AD3880F0EC16EF28EF16AF288F8EFFF
:1001C00000F093948194176A0D0E166E81829380CD
:1001D0009392F9EF00F00400FAEF00F0F86AD09E75
:1001E000078EC150C00B0F09C16E070EB46EDFD76A
:0801F000E8D7F1D7FED70300A8
:020000040030CA
:0E00000000CF180F000781000FC00FE00F4067
:00000001FF
;PIC18F4520
;CRC=C989  CREATED="18-Jul-23 09:05"
