:0400000080EF00F09D
:08000800046ED8CF05F0E0CF33
:1000100006F00001E9CF0CF0EACF07F0E1CF08F0DD
:10002000E2CF09F0D9CF0AF0DACF0BF0F3CF12F01C
:10003000F4CF13F0FACF14F000C00EF001C00FF0AF
:1000400002C010F003C011F09DA02AEF00F09EB096
:100050004FEF03F00EC000F00FC001F010C002F02F
:1000600011C003F00CC0E9FF07C0EAFF078E08C00B
:10007000E1FF09C0E2FF0AC0D9FF0BC0DAFF12C0DE
:10008000F3FF13C0F4FF14C0FAFF045006C0E0FFF2
:1000900005C0D8FF1000016A026A006A036A010104
:1000A000AA5102E1A95118E0100EAB6FD890A73702
:1000B000A83700360336AA51035C02E1A951005C5F
:1000C00007E3A951005ED8A00306AA51035ED880B9
:1000D00001360236AB2FEAD70001120001017D6B19
:1000E0007D517C5D02E37D2BFBD700011200020EE7
:0C00F0000101786F00014ADBFDEF03F016
:10010000F86AD09E078E700ED36ED3501A861C6A82
:100110007A6A796AC150C00B0F09C16E070EB46EBE
:100120006B6A6C6A6D6A6E6A6F6A706A716A726A0B
:10013000736A746A756A766A776A786AFED257D388
:100140007AD39FD3B6D319A007D019909EAA04D012
:10015000CD9082EF07F0CD8019AE04D0199E010E2C
:100160006A6E817E19A413D019941B0E0101786F59
:10017000070E796F170E7A6F020E7B6F0E0E7C6F73
:100180003B0E7D6F0A0E7E6F0001BEEF0BF019A2D1
:1001900005D019926A5202E015EF0CF0D4D7030093
:0E040200F2CF0DF0F29EF76A1C0FF66E040E9C
:10041000F7220900F5500DBEF28E120000C1814096
:1004200001C0804101C0804100C1814001C08041C4
:1004300000C1814000C1814001C0804101C08041B4
:1004400000C1814000C1814001C0804100C18140A4
:1004500001C0804101C0804100C1814001C0804194
:1004600000C1814000C1814001C0804100C1814084
:1004700001C0804101C0804100C1814000C1814074
:1004800001C0804101C0804100C1814001C0804164
:1004900000C1814000C1814001C0804101C0804154
:1004A00000C1814000C1814001C0804100C1814044
:1004B00001C0804101C0804100C1814000C1814034
:1004C00001C0804101C0804100C1814001C0804124
:1004D00000C1814000C1814001C0804100C1814014
:1004E00001C0804101C0804100C1814001C0804104
:1004F00000C1814000C1814001C0804101C08041F4
:1005000000C1814000C1814001C0804100C18140E3
:1005100001C0804101C0804100C18140F2CF0DF097
:10052000F29EF76A360FF66E050EF7220900F550B7
:100530000DBEF28E120000C0C101C30302C2C60686
:1005400007C705C5C404CC0C0DCD0FCFCE0E0ACA0B
:10055000CB0BC90908C8D81819D91BDBDA1A1EDE5B
:10056000DF1FDD1D1CDC14D4D515D71716D6D2120B
:1005700013D311D1D010F03031F133F3F23236F61B
:10058000F737F53534F43CFCFD3DFF3F3EFEFA3ACB
:100590003BFB39F9F83828E8E929EB2B2AEAEE2E5B
:1005A0002FEF2DEDEC2CE42425E527E7E62622E2CB
:1005B000E323E12120E0A06061A163A3A26266A61B
:1005C000A767A56564A46CACAD6DAF6F6EAEAA6A8B
:1005D0006BAB69A9A86878B8B979BB7B7ABABE7EDB
:1005E0007FBF7DBDBC7CB47475B577B7B67672B28B
:1005F000B373B17170B0509091519353529296561B
:100600005797559594549C5C5D9D5F9F9E5E5A9A4A
:100610009B5B99595898884849894B8B8A4A4E8EDA
:100620008F4F8D4D4C8C448485458747468682424A
:10063000438341818040F2CF0DF0F29EF76A500F64
:10064000F66E060EF7220900F5500DBEF28E12006E
:10065000494E464F524D454C454B54524F4E494BD7
:1006600041522D4745202020205354414A5945529C
:100670000000202025303264203A202530326420CA
:100680003A20253032642020202573202D2025306B
:1006900032642F253032642F253032640000F80E8A
:1006A000CF6E300ECE6E9E90172AD8B4182A010154
:1006B000A76BA86BA75303E1A85301E1198017505A
:1006C000010BA76FA86BA75303E1A85301E119829F
:1006D00018C0A8F117C0A7F1AA6B140EA96F0001EA
:1006E000DADC00C0A7F1010103C0A8F1A75303E1C0
:1006F000A85301E1198418C0A8F117C0A7F1AA6B8B
:10070000320EA96F0001C7DC00C0A7F1010103C0D0
:10071000A8F1A75303E1A85301E119861850020874
:1007200008E2FF0A03E11750E80803E2198E186A8D
:10073000176A9E9000012AEF00F0D38CD38AD388E9
:10074000936A956A966A816A8C6A846A196AD08EFD
:10075000F28EF28C9F809D809E90CD9ECD9CCD9AF6
:10076000CD98CD96CD94CD92F80ECF6E300ECE6E44
:10077000CD809FEF00F07AC18CFF84908482010EBF
:1007800001017C6F0001AADC849212000101785102
:10079000F00B796F79C17AF10001EDDF0101783951
:1007A000006EF00E00160050F00B796F79C17AF1EF
:1007B0000001E1DF1200280E0101786F0001E6DF81
:1007C000FEEF03F00C0E0101786F0001DFDFFFEF99
:1007D00003F0060E0101786F0001D8DF00EF04F08E
:1007E000010E0101786F0001D1DF01EF04F0280E46
:1007F00001017C6F000172DC7AD4DDD7E3D7E9D741
:10080000EFD7EA6A490EE96EF2CF78F1F29E200E38
:10081000016EF76A000E0FDF0A000900F5CFEEFF48
:10082000012EFBD7010178BFF28E696A010E6A6E54
:100830000001A0EF00F094869488130EC86E280E75
:10084000C66E800EC76EA1EF00F0C580C5B0FED7A2
:100850001200C5501F0BFDE1C7B4FBD7120087C1C2
:10086000C9FFC7B0FED7F5DF000EC5BC010E016E93
:100870001200C582C5B2FED71200C584C5B4FED72A
:100880001200E3DFD00E0101876F0001E8DF012CC9
:1008900002D0EFDFF7D7070E0101876F0001DFDF1E
:1008A0000101876B0001DBDFE8DF0B0E286EA2EF92
:1008B00000F0949C948E0C0EAF6E200EAC6E900ED9
:1008C000AB6EA3EF00F09EAA02D0AECF01F01200F3
:1008D0000101846B85698669896B020E835D845D85
:1008E00032E282530BE1036A84517B0FE96E000E02
:1008F0000320EA6EEF508519896F0AD0036A84518C
:10090000F80FE96E000E0320EA6EEF508519896F2B
:10091000036A8951F2CF8AF1F29E000172DD010172
:100920008ABFF28E016E86510118856F036A895164
:10093000F2CF8AF1F29E0001F1DD01018ABFF28E51
:10094000866F842BCAD7886B85C187F187C18BF1ED
:100950008A6B8A518611876F8BC188F187C101F03C
:1009600088C102F000011200016603D0026602D0C5
:1009700007D0022A00C0EEFF012EFCD7022EFAD7C4
:100980001200EA6A7B0EE96E006A026A7D0E016E51
:10099000EBDFDCEF04F086C1ADFF9EA8FED7FAEFD7
:1009A00004F0EA6AF80EE96E006A026A7D0E016ED2
:1009B000DBDFFFEF04F0E5D70101836B8351C7084C
:1009C00008E20C0E006E002EFED700D00000832B34
:1009D000F5D7846B8251845D10E2036A8451F80F6D
:1009E000E96E000E0320EA6EEFCF85F185C186F136
:1009F0000001D1D70101842BEDD70001D2D712001D
:100A0000010E7B6E030E7C6E020E0101796F79512F
:100A10000708D8A0CCD07A6B9EBA0ED00C0E006E10
:100A2000002EFED700D000007A2B7A51C70803E2CF
:100A3000010E776F01D0F0D7036A79517B0F016EF9
:100A4000000E032201C081F103C082F100013BDFEF
:100A500082C1EAFF81C1E9FF01C0EFFF0101772DEB
:100A600001D004D079510608D8B09FD0826B080E0F
:100A7000836F00012DDF02C076F101C075F176C1F0
:100A800081F10101826B826B000181510101765D70
:100A9000D8A48BD08253D8A488D075C181F1826B41
:100AA000000182510101755DD8A47FD08253D8A482
:100AB0007CD0000E7E107B6F7C6B000E00018011DD
:100AC00001017D6F7E6BD8907D35026E7E3502C050
:100AD0007FF1010E0001F86F030EF96FD89001014C
:100AE0007D35026E7E3502C0FAF00001030E010171
:100AF000806F030E7F25805D2EE28051010B01087F
:100B000009E1036A8051F80FE96E000E0320EA6ED6
:100B1000EF6A1FD0036A8051F80F016E000E0322A6
:100B2000030E805D006ED890003200507B25836FED
:100B3000000E7C21846F6B0E8325E96E000E8421EC
:100B4000EA6EEFCF85F103C0EAFF01C0E9FF85C17E
:100B5000EFFF802BCED7050E7F25816F010E826FB0
:100B600081C183F10001B4DE02C076F101C075F1EC
:100B7000030E01017F25036AF80FE96E000E0320C2
:100B8000EA6E76C1EFFF040E7F25036AF80FE96E67
:100B9000000E0320EA6E75C1EFFF050E7F25816F01
:100BA000826F000108DF03D00101792B30D70001EB
:100BB00097EF07F00101876B8651090805E20A0EDD
:100BC000865F100E872703D08651872701D0F4D780
:100BD00087C101F00001120001017F6B7F51010804
:100BE00005E300014ADE01017F2BF8D700012DDE6D
:100BF000D00E0101876F000132DE012C02D039DEF8
:100C0000F7D77DC187F12BDE729E739E749E010122
:100C10007F6B7E517F5D16E27D517F25036A720FE7
:100C2000E96E000E0320EA6EEFCF80F180C186F1FD
:100C30000001C0DF01C080F101C087F110DE0101B9
:100C40007F2BE7D7000119DE1200010E7B6E060E26
:100C50007C6E020E0101796F79510708D8A070D01F
:100C60007A6B9EBA0ED00C0E006E002EFED700D00E
:100C700000007A2B7A51C70803E2010E776F01D08A
:100C8000F0D7036A79517B0F016E000E032201C079
:100C90007BF103C07CF1000116DE7CC1EAFF7BC161
:100CA000E9FF01C0EFFF0101772D01D003D0795199
:100CB000060844E2826B080E836F000109DE02C061
:100CC00076F101C075F176C17BF101017C6B7C6B23
:100CD000000181510101765D31E17C532FE175C145
:100CE0007BF17C6B000182510101755D27E17C5332
:100CF00025E1070E7E5C036A720FE96E000E032089
:100D0000EA6E80C0EFFF070E7E5C7B6F7D6F010E89
:100D10007E6F000161DFEA6AF80EE96EE26A7B0E1F
:100D2000E16E080E016EE6CFEEFF012EFCD7080E35
:100D30000101826F00013FDE03D00101792B8CD7C6
:100D400000019DEF07F0010E7B6E100E7C6E020E0F
:100D50000101796F7951060826E37A6B9EBA0ED0AD
:100D60000C0E006E002EFED700D000007A2B7A51B8
:100D7000C70803E2010E776F01D0F0D7036A7951FB
:100D80007B0F016E000E032201C07CF103C07DF1D8
:100D9000000199DD7DC1EAFF7CC1E9FF01C0EFFFE1
:100DA0000101792BD7D781C07BF1070E796F080E2F
:100DB0007B25020F795D26E27A6B9EBA0ED00C0E6F
:100DC000006E002EFED700D000007A2B7A51C708A3
:100DD00003E2010E776F01D0F0D7036A79517B0FE0
:100DE000016E000E032201C07CF103C07DF1000101
:100DF0006ADD7DC1EAFF7CC1E9FF01C0EFFF0101AF
:100E0000792BD5D7090E7B257C6F826B836F000110
:100E10005FDD02C076F101C075F176C17CF10101A0
:100E20007D6B7D6B090E7B25FE0F036A7B0FE96EE0
:100E3000000E0320EA6EEF50765D61E17D535FE1C5
:100E400075C17CF17D6B090E7B25FF0F036A7B0F5B
:100E5000E96E000E0320EA6EEF50755D50E17D53A0
:100E60004EE1EA6AF80EE96EE26A7B0EE16E060E6A
:100E7000016EE6CFEEFF012EFCD7010E826F080E49
:100E8000836F000125DD02C076F101C075F176C1E6
:100E9000FEF0000175C1FFF000010101796B000156
:100EA00080510101795D1DE27E507925F90F036AB9
:100EB000720F016E000E032203C07DF1D8907935C8
:100EC000080F036A7B0FE96E000E0320EA6EEFCF76
:100ED0007EF17DC1EAFF01C0E9FF7EC1EFFF792B02
:100EE000DED7070E7E5C7C6F7D6F80C07EF10001D7
:100EF00073DE080E0101826F00015DDD010100015A
:100F0000A3EF07F00101776B0001DDDC01C078F190
:100F10000101782D19D09EAAFED70001D4DC01C0B2
:100F200078F101017851030803E1000169D501015D
:100F30007851060803E1000188D6010178511008B4
:100F400003E1000100D70101775301E0776B000155
:100F5000ABEF00F02850F50FD8B068D00B0F18EFAA
:100F600008F073DC282A62D0D00E0101876F0001DF
:100F700076DC012C02D07DDCF7D7282A57D001017E
:100F8000876B00016CDC282A51D00101859F85C147
:100F900086F100010FDE01C086F101C087F15FDC40
:100FA000282A44D00101849F84C186F1000102DE19
:100FB00001C086F101C087F152DC282A37D0010137
:100FC000839F83C186F10001F5DD01C086F101C078
:100FD00087F145DC282A2AD082C186F1EBDD01C0E9
:100FE00086F101C087F13BDC282A20D07FC186F141
:100FF000E1DD01C086F101C087F131DC282A16D07D
:1010000080C186F1D7DD01C086F101C087F127DC00
:10101000282A0CD081C186F1CDDD01C086F101C046
:1010200087F11DDC282A02D028DC282AD1EF0BF01A
:10103000F2CF0DF0F29EE824F76AF736550FF66E00
:10104000100EF7220A00F550FA6E0800F5500DBE9A
:10105000F28EF96E620F680F7E0F8A0FA40FBE0F1B
:10106000D80FEC0F001014102810C59AC588C5B809
:10107000FED751EF08F0C58AC588C5B8FED751EF35
:1010800008F00101806BC586C7A0FED7C9CF80F1EB
:101090007F5305E10001E9D7000103D00101000100
:1010A000EAD729EC04F0010180C101F0000112002F
:1010B00001018039006E0F0E001600500A0DF3CFAB
:1010C00081F180510F0B8125016E000112000B0E82
:1010D000285CF70F5EE2090FCBEF08F025EC04F077
:1010E000282A57D0D00E0101876F00012FEC04F0A1
:1010F000012C03D039EC04F0F5D7282A4AD001019D
:10110000876B00012FEC04F0282A43D039EC04F05F
:10111000282A3FD0D10E0101876F00012FEC04F087
:10112000282A37D001017F6B0001ABDF01507F0B14
:1011300001017F6F806F0001BBDF01C01DF01DC08A
:101140006BF0282A26D001017F6B00019ADF015045
:101150007F0B01017F6F806F0001AADF01C01EF0CD
:101160001EC06CF0282A15D0010E01017F6F00010E
:1011700088DF01507F0B01017F6F806F000198DFD6
:1011800001C01FF01FC06DF0282A03D03DEC04F011
:10119000282AD9EF0BF0F2CF0DF0F29EE824F76A7F
:1011A000F736BB0FF66E110EF7220A00F550FA6EF5
:1011B0000800F5500DBEF28EF96EDC10E410FE1042
:1011C0000C1114112411461168118C112250016E5A
:1011D00012002150016E12002050016E1200010118
:1011E000886B896B030E8A6F8B6B020E8C6F8D6B15
:1011F000050E8E6F8F6B906B916B030E926F936BDE
:10120000050E946F956B010E966F976B040E986F99
:10121000996B060E9A6F9B6B020E9C6F9D6B040E72
:101220009E6F9F6B855307E18451020804E382514E
:10123000D8B4830782078331036E8231026E033292
:1012400002323F0E031602508225A06F0350832105
:10125000A16F166AF2BE168EF29E83C1A8F182C1FA
:10126000A7F1AA6B640EA96F00014BEC00F016BE4B
:10127000F28E02C003F001500101A05F0250A15B99
:10128000166AF2BE168EF29E83C1A8F182C1A7F142
:10129000010EAA6F900EA96F00014BEC00F016BE74
:1012A000F28E02C003F001500101A0270250A123D9
:1012B000010E845DA26F000E8559A36FD890A235F0
:1012C000026EA335036E0250880FE96E010E0320F3
:1012D000EA6EECCF03F0ED52EF50A0270350A123AC
:1012E0008651A0278751A123166AF2BE168EF29E60
:1012F000A1C1A8F1A0C1A7F1AA6B070EA96F0001B7
:101300004BEC00F016BEF28E00C001F003C002F0FC
:1013100012005CDF01C07FF15CDF01C080F15CDFA7
:1013200001C081F10101836B7FC182F1856B80C1B6
:1013300084F1876B01C086F1000151DF01C000F02C
:101340000250036E02E100521FE0035003E1010E60
:10135000005C21E0035003E1020E005C23E0035037
:1013600003E1030E005C25E0035003E1040E005C82
:1013700027E0035003E1050E005C29E0035003E180
:10138000060E005C2BE030D0530E246E750E256ED9
:101390006E0E266E29D04D0E246E6F0E256E6E0ECB
:1013A000266E22D0540E246E750E256E650E266EA6
:1013B0001BD0570E246E650E256E640E266E14D05B
:1013C000540E246E680E256E750E266E0DD0460ED8
:1013D000246E720E256E690E266E06D0530E246E94
:1013E000610E256E740E266E12EF0BF07AC0EAFFC6
:1013F00079C0E9FF010185C1EFFFE92AD8B4EA2AE3
:10140000EF6A792AD8B47A2A0001120001018651C4
:10141000016A855D03E285C100F00CD0006A080E08
:10142000876F853700368651005CD8B0006E013674
:10143000872FF7D700011200200E010180A9300E7E
:10144000816F7FC100F07FAF08D0001E002A00C06E
:101450007FF12D0E816F808F808101507FC185F1DA
:10146000640E866F0001D2DF00C07FF1300E0124D0
:101470000101826F7FC185F10A0E866F0001C6DF10
:10148000300E00240101846F300E0124836F81C16E
:1014900000F0300E825D04E0808380BF808512D032
:1014A00080B510D081C182F180B304D0300E835D4D
:1014B00004E0808180BF808305D0D8A48081D8B427
:1014C00082C183F180B505D080B307D080B109D047
:1014D0000CD081C185F1000189DF82C185F1000155
:1014E00085DF83C185F1000181DF84C185F10001C1
:1014F0007DDF12000900F6CF80F1F7CF81F1F5CF43
:1015000085F174DF80C1F6FF81C1F7FF01017F2FF4
:1015100001D002D00001EED700011200EF520FE01F
:10152000EACF80F1E9CF7FF1EFCF85F15FDF80C1B6
:10153000EAFF7FC1E9FFE92AD8B4EA2AEFD76AEFC8
:101540000BF0140E285CF60FD8B0FAD00A0FA2EFF9
:101550000BF025EC04F0282AF3D0D00E0101876FA0
:1015600000012FEC04F0012C03D039EC04F0F5D786
:10157000282AE6D0030E0101876F00012FEC04F04A
:10158000282ADED039EC04F0282ADAD0D10E010165
:10159000876F00012FEC04F0282AD2D001017F6B65
:1015A00000016FDD0150070B01017F6F806F0001AB
:1015B0007FDD01C023F0282AC3D001017F6B000129
:1015C00060DD01503F0B01017F6F806F000170DD16
:1015D00001C020F020C06FF0282AB2D001017F6B3B
:1015E00000014FDD01501F0B01017F6F806F000173
:1015F0005FDD01C021F021C070F0282AA1D0010ECA
:1016000001017F6F00013DDD01C07FF101C080F16C
:101610004FDD01C022F022C071F0282A91D03DECAC
:1016200004F077D6D3DD01C07FF1D3DD01C080F1B6
:10163000D3DD01C081F10101836B7FC182F1856B34
:1016400080C184F1876B01C086F10001C8DD01C053
:101650006EF07A6A290E796E200E0101856F000105
:10166000C5DE200E0101856F0001C0DE1FC07FF1C5
:10167000010E0101806F0001DFDE780EF66E060EAE
:10168000F76E030E01017F6F000134DF1EC07FF192
:10169000010E0101806F0001CFDE7F0EF66E060E97
:1016A000F76E030E01017F6F000124DF1DC07FF183
:1016B000010E0101806F0001BFDE860EF66E060E80
:1016C000F76E030E01017F6F000114DFEA6A240E3A
:1016D000E96E24D78B0EF66E060EF76E030E01012F
:1016E0007F6F000107DF20C07FF1010E0101806FD5
:1016F0000001A2DE2F0E0101856F000177DE21C0FF
:101700007FF1010E0101806F000196DE2F0E0101B5
:10171000856F00016BDE22C07FF1010E0101806F39
:1017200000018ADEEA6A490EE96EE26A290EE16E7C
:10173000200E016EE6CFEEFF012EFCD70B0E286EB9
:10174000E1EF0BF0F2CF0DF0F29EE824F76AF736E6
:10175000690FF66E170EF7220A00F550FA6E0800B0
:10176000F5500DBEF28EF96E52155A15741584158A
:101770008C159C15BA15DC15FE151E1628500A0886
:1017800011E378C17FF179C180F17AC181F17BC128
:1017900082F17CC183F17DC184F17EC185F1AAEF24
:1017A00007F00FD028500A0805E22850130802E37A
:1017B0008ED407D02850130804E228501D0801E3F6
:1017C000C0D6C7EF00F0800E0101786F0001C6ECB3
:1017D00003F018EF0CF0C00E0101786F0001C6ECA9
:1017E00003F01CEF0CF07BC18CFF84808482010E1F
:1017F00001017C6F00016EEC00F084921200010187
:101800007951F00B7A6F7AC17BF10001ECDF0101B5
:101810007939006EF00E00160050F00B7A6F7AC125
:101820007BF10001E0DF2BEF0CF0695201E1CBD737
:101830006950100801E1CFD769501F080EE3036A11
:101840006950490FE96E000E0320EA6EEFCF78F180
:1018500078C179F1D4D7692A02D06A6A696ACEEF71
:0218600000F096
:020000040030CA
:0E00000000C81E00000781000FC00FE00F4077
:00000001FF
;PIC18F4520
;CRC=76C1  CREATED="24-Aug-23 14:00"
