:0400000080EF00F09D
:08000800046ED8CF05F0E0CF33
:1000100006F00001E9CF0CF0EACF07F0E1CF08F0DD
:10002000E2CF09F0D9CF0AF0DACF0BF0F3CF12F01C
:10003000F4CF13F0FACF14F000C00EF001C00FF0AF
:1000400002C010F003C011F09DA02AEF00F09EB096
:100050005EEF02F00EC000F00FC001F010C002F021
:1000600011C003F00CC0E9FF07C0EAFF078E08C00B
:10007000E1FF09C0E2FF0AC0D9FF0BC0DAFF12C0DE
:10008000F3FF13C0F4FF14C0FAFF045006C0E0FFF2
:1000900005C0D8FF1000F2CF0DF0F29EF76AB00F46
:1000A000F66E000EF7220900F5500DBEF28E12001A
:1000B0000C4D45564355542059415A493A200000A9
:1000C000F2CF0DF0F29EF76ADA0FF66E000EF7220D
:1000D0000900F5500DBEF28E12000D4C7574666568
:1000E0006E206269722079617A6920676972696E2F
:0C00F000697A3A2000000400E0EF00F004
:10010000F86AD09E078E1D6A01011B6B1A6BC150E5
:10011000C00B0F09C16E070EB46E2CD0020118007F
:10012000004F00A64C43442E4F4E004C43442E4FEC
:1001300046460054454D502E4F4E0054454D502ECE
:100140004F4646004C45442E4F4E004C45442E4FE2
:100150004646004255542E4F4E004255542E4F46AF
:100160004600434350312E4F4E00434350312E4FF3
:1001700046460000000EF86E010EF76E1C0EF66E7D
:100180000900F550006E000A13E00900F550016EF9
:10019000E8BE05D00F0BEA6E0900F5CFE9FF01BC00
:1001A000090001AC0900F5CFEEFF004EE9D7F9D701
:1001B000F86A0001E3D101D254D277D2CCD29BD7D6
:1001C0001AAC08D01A9C1BA401D0817E010E01013B
:1001D000176F00011AAA07D01A9A1BA204D00101B6
:1001E0001C6B0001C4D31AA407D01A9481CF1CF150
:1001F00001011D6B0001F2D31AA205D01A921BA8AF
:1002000002D010EF05F01AA009D01A90010117537F
:1002100006E01BA004D0000156EF05F0010100012B
:0802200048EF07F0CCD7030002
:0E040200F2CF0DF0F29EF76A1C0FF66E040E9C
:10041000F7220900F5500DBEF28E12000D4C696DE9
:100420006974204173696C64692121210000F2CF55
:100430000DF0F29EF76A480FF66E040EF7220900DF
:10044000F5500DBEF28E1200494E464F524D454CAE
:10045000454B54524F4E494B41522D474520202089
:10046000205354414A594552000054454D503A25B5
:10047000642563432000016A026A006A036A01017D
:100480002C5102E12B5118E0100E2D6FD890293716
:100490002A37003603362C51035C02E12B51005CF5
:1004A00007E32B51005ED8A003062C51035ED880D1
:1004B000013602362D2FEAD700011200F80ECF6E5A
:1004C000300ECE6E9E90162AD8B4172A1650010B05
:1004D0000101296F2A6B295303E12A5301E11A8094
:1004E00017C02AF116C029F12C6B140E2B6F0001D6
:1004F000C2DF00C029F1010103C02AF1295303E141
:100500002A5301E11A8217C02AF116C029F12C6B77
:10051000320E2B6F0001AFDF00C029F1010103C0D3
:100520002AF1295303E12A5301E11A8417C02AF161
:1005300016C029F1010E2C6FF40E2B6F00019BDF0A
:1005400000C029F1010103C02AF1295303E12A5314
:1005500001E11A8A175002080DE2FF0A03E1165062
:10056000E80808E21D5206E01A8C176A166A0001B4
:10057000A32B01019E9000012AEF00F0D38CD38AB7
:10058000D388010E936E956A966A816A8C6A846A32
:100590001A6AD08EF28EF28C9F809D809E90CD9EA6
:1005A000CD9CCD9ACD98CD96CD94CD92F80ECF6EB0
:1005B000300ECE6ECD80DBEF00F0928080900E0E7C
:1005C000C16EC190890EC06EDCEF00F00101216B9D
:1005D0002151205D02E3212BFBD7000112001EC137
:1005E0008CFF84908482010E0101206F0001EEDFF8
:1005F0008492120001011C51F00B1D6F1DC11EF1F0
:100600000001EDDF01011C39006EF00E00160050F4
:10061000F00B1D6F1DC11EF10001E1DF1200020E83
:1006200001011C6F0001E6DF37EF03F0280E010126
:100630001C6F0001DFDF38EF03F00C0E01011C6FAF
:100640000001D8DF39EF03F0060E01011C6F000135
:10065000D1DF3AEF03F0010E01011C6F0001CADF88
:100660001200280E0101206F0001B0DFD8D7DED7BD
:10067000E4D7EAD7F0DFEA6AF60EE96EF2CF1CF1B2
:10068000F29E200E016EF76A000ED1DE0A0009000C
:10069000F5CFEEFF012EFBD701011CBFF28E166BCA
:1006A000010E176F0001DDEF00F0010E1B6E949C30
:1006B000948E0C0EAF6E200EAC6E900EAB6E0F0EC5
:1006C0009F6F1B0EA06F110EA16F200EA26FEA6A22
:1006D000600EE96EF2CF1CF1F29E9F51016E0DE0AB
:1006E000F76A000ED8DC0A000900F5CFEEFF012EF4
:1006F000FBD701011CBFF28E0001EA6A6F0EE96EA2
:10070000F2CF1CF1F29EA051016E0DE0F76A000ECF
:10071000D7DC0A000900F5CFEEFF012EFBD701015F
:100720001CBFF28E0001EA6A8A0EE96EF2CF1CF15C
:10073000F29EA151016E0CE0F76A000E62DE0A0023
:100740000900F5CFEEFF012EFBD701011CBFF28E91
:100750000001DEEF00F09494630ECB6E010EBE6ECE
:10076000CA6A0C0EBD6ECC6ACA94DFEF00F0016657
:1007700003D0026602D007D0022A00C0EEFF012E8D
:10078000FCD7022EFAD71200010120512203F3CF29
:1007900001F0F4CF00F02303F3500026215122038F
:1007A000F3500020026E000189EF04F01BC1EAFF44
:1007B0001AC1E9FF010126C1EFFFE92AD8B4EA2AEC
:1007C000EF6A1A2BD8B41B2B000112000900F6CFD8
:1007D00021F1F7CF22F1F5CF26F1E8DF21C1F6FFB5
:1007E00022C1F7FF0101202F01D002D00001EED776
:1007F00000019FEF04F001012751016A265D03E229
:1008000026C100F00CD0006A080E286F263700368B
:100810002751005CD8B0006E0136282FF7D70001B1
:100820001200200E010121A9300E226F20C100F01C
:1008300020AF08D0001E002A00C020F12D0E226F2C
:10084000218F2181015020C126F1640E276F000104
:10085000D2DF00C020F1300E01240101236F20C13E
:1008600026F10A0E276F0001C6DF300E00240101B9
:10087000256F300E0124246F22C100F0300E235D5D
:1008800004E0218321BF218512D022C123F1200E53
:10089000226F300E245D04E0218121BF218307D027
:1008A000D8A4218104E123C124F1200E236F21B5B6
:1008B00005D021B307D021B109D00CD022C126F137
:1008C000000174DF23C126F1000170DF24C126F18D
:1008D00000016CDF25C126F1000168DFA6EF04F0FE
:1008E000EA6AF60EE96E006A026AA2C001F03FDF12
:1008F000C4CF1EF101011D6BC3501D27000E1E2326
:100900001EC121F11DC120F1236B7D0E226F00015C
:100910003BD702C021F101C020F1800E0101202748
:10092000000E212321C11FF11B6BF60E1A6F6A0EF8
:10093000F66E040EF76E050E206F000147D71FC13B
:1009400020F1180E0101216F00016BD7DF0E0101AC
:10095000266F00012BDF430E0101266F000126DF09
:10096000200E0101266F000121DFD6EF04F0000EFA
:10097000C2A2010E01011D6F000EC2A0010E1D15C5
:1009800009E0C26A1C35C26EC236FC0EC216C280B5
:10099000C2820DD0000EC2A2010E1E6F000EC2B0A8
:1009A000010E1E1504E0C29000019AD7010100015A
:1009B000F3EF00F0010E006E01011F51016E04E023
:1009C000D8900036012EFCD700501E1502E1000E13
:1009D00001D0010E016E0001F3EF04F01CC11EF105
:1009E0001DC11FF1E7D7015203E1D8901C3603D097
:1009F000D8901C361C801C50070B070805E1010E1F
:100A00001D6E016E0BD00AD01C50070B05E11D6A4C
:100A1000000E016E03D002D01DC001F0FCEF00F00B
:100A20001850620806E3195204E0182A18C0BEFFE5
:100A300001D0196A1850010806E2195204E118069B
:100A400018C0BEFF02D0010E196E03EF01F0800E38
:100A500001011C6F0001CEDD5BEF05F0C00E01014E
:100A60001C6F0001C7DD61EF05F01FC18CFF8480A2
:100A70008482010E0101206F0001A8DD8492120022
:100A800001011D51F00B1E6F1EC11FF10001EDDFB2
:100A900001011D39006EF00E00160050F00B1E6FA4
:100AA0001EC11FF10001E1DF72EF05F001011653D5
:100AB00003E10001CCD701011651100803E1000148
:100AC000CDD7010116511F0810E3036A1651F60F26
:100AD000E96E000E0320EA6EEFCF1CF11CC11DF180
:100AE0000001CED70101162B02D0176B166B000147
:100AF0000EEF01F09EAA02D0AECF01F089EF06F012
:100B00000101205302E1215342E01CC1E9FF1DC154
:100B1000EAFFEFCF22F11FC103F01EC1E9FF1FC1A1
:100B2000EAFFEF50225D17E01DC103F01CC1E9FF91
:100B300003C0EAFFEFCF22F11FC103F01EC1E9FF9E
:100B40001FC1EAFFEF50225D02E2FF0E01D0010E4D
:100B5000016E1FD00BD01DC103F01CC1E9FF1DC1E8
:100B6000EAFFEF5203E1000E016E13D01DC103F046
:100B70001C511C2BD8B41D2B1FC103F01E511E2B62
:100B8000D8B41F2B2051D8B421072007BAD7000EA4
:100B9000016E0001120001011D6B1E0E1C6F1F6B08
:100BA000A60E1E6F216B060E206F0001A9DF0152F9
:100BB00016E11B80EA6A1E0EE96EF2CF1CF1F29E6E
:100BC000200E016EF76A000E32DC0A000900F5CF34
:100BD000EEFF012EFBD701011CBFF28E94D0010164
:100BE0001D6B1E0E1C6F1F6BAD0E1E6F216B070E53
:100BF000206F000185DF015203E11B902CDD82D0C4
:100C000001011D6B1E0E1C6F1F6BB50E1E6F216B3D
:100C1000070E206F000174DF015202E11B8272D0C7
:100C200001011D6B1E0E1C6F1F6BBD0E1E6F216B15
:100C3000080E206F000164DF015202E11B9262D0B6
:100C400001011D6B1E0E1C6F1F6BC60E1E6F216BEC
:100C5000060E206F000154DF015202E11B8452D0C6
:100C600001011D6B1E0E1C6F1F6BCD0E1E6F216BC5
:100C7000070E206F000144DF015203E11B94819EA7
:100C800041D001011D6B1E0E1C6F1F6BD50E1E6F18
:100C9000216B060E206F000133DF015202E11B863B
:100CA00031D001011D6B1E0E1C6F1F6BDC0E1E6F01
:100CB000216B070E206F000123DF015202E11B961A
:100CC00021D001011D6B1E0E1C6F1F6BE40E1E6FE9
:100CD000216B070E206F000113DF015203E11B8817
:100CE000CA8410D001011D6B1E0E1C6F1F6BEC0E11
:100CF0001E6F216B080E206F000102DF015202E11E
:100D0000CA941B9801010001A4EF06F0F591A36BB2
:100D1000F1D601C05EF05E5008080CE15F520AE0B7
:100D20005F06036A5F501E0FE96E000E0320EA6E35
:100D3000EF6A42D05E500D082CE1F56BF5839B6B9A
:100D40009C6B9D6B9E6B27D7010E5F24036A1E0F61
:100D5000016E000E0322010103C0EAFF01C0E9FF9A
:100D6000EF6AEA6AF60EE96EE26A1E0EE16E200E86
:100D7000016EE6CFEEFF012EFCD7EA6A1E0EE96E89
:100D8000006A026A200E016E0001F1DC5F6AA46B4A
:100D900013D05F501F0806E2040EA46FF585F59B83
:100DA0009D6B0AD0036A5F501E0FE96E000E032090
:100DB000EA6E5EC0EFFF5F2A4BEF07F0ABA203D0F5
:100DC000AB980000AB88036A01011E513E0FE96E2B
:100DD000000E0320EA6EEFCFADFF9E98000147EFB3
:100DE00007F001011C5312E11D5310E1EA6A3E0EA7
:100DF000E96EE26A600EE16E00019F51016E04E04F
:100E0000E6CFEEFF012EFCD73DD001011C2D12D004
:100E10001D5310E1EA6A3E0EE96EE26A6F0EE16E62
:100E20000001A051016E04E0E6CFEEFF012EFCD7D9
:100E300029D001011C51020812E11D5310E1EA6A98
:100E40003E0EE96EE26A8A0EE16E0001A151016E6A
:100E500004E0E6CFEEFF012EFCD714D001011C51B7
:100E6000030811E11D530FE1EA6A3E0EE96EE26AE2
:100E7000F60EE16E0001A251016E04E0E6CFEEFF36
:100E8000012EFCD701011DC11EF1000197D71200F0
:100E90009EAA01D03BD7A351000801E2F581A451DD
:100EA00009E0010A0EE0030A28E0010A43E0070A0C
:100EB0005EE07ED0F5A304D0F5A102D0010EA46FB0
:100EC00078D09EA819D0F5B717D001011C6B9BC034
:100ED0001DF1000186DF010E9F5D9B5D0CE3F58730
:100EE000020EA46FEA6A3E0EE96E006A026A200EE4
:100EF000016E3DDC01D09B2B5CD09EA81AD0F5BDC5
:100F000018D0030E01011C6F9EC01DF1000169DFA6
:100F1000010EA25D9E5D0CE3F58D030EA46FEA6ADF
:100F20003E0EE96E006A026A200E016E20DC01D0DE
:100F30009E2B3FD09EA81AD0F5B918D0010E010102
:100F40001C6F9CC01DF100014CDF010EA05D9C5D7B
:100F50000CE3F589A46BF593EA6A3E0EE96E006A2C
:100F6000026A200E016E03DC01D09C2B22D09EA8C9
:100F70001ED0F5BB1CD0F5A51AD0020E01011C6FC6
:100F80009DC01DF100012DDF010EA15D9D5D0EE3F1
:100F9000F58BF595EA6A3E0EE96E006A026A200E4C
:100FA000016EB7EC03F09D6BA46B01D09D2B01D0BB
:060FB000A46B12EF01F03A
:020000040030CA
:0E00000000C91E01000781000FC00FE00F4075
:00000001FF
;PIC18F4520
;CRC=E4D9  CREATED="19-Jul-23 17:28"
