:0400000080EF00F09D
:08000800046ED8CF05F0E0CF33
:1000100006F00001E9CF0CF0EACF07F0E1CF08F0DD
:10002000E2CF09F0D9CF0AF0DACF0BF0F3CF12F01C
:10003000F4CF13F0FACF14F000C00EF001C00FF0AF
:1000400002C010F003C011F09DA02AEF00F09EB096
:1000500056EF01F00EC000F00FC001F010C002F02A
:1000600011C003F00CC0E9FF07C0EAFF078E08C00B
:10007000E1FF09C0E2FF0AC0D9FF0BC0DAFF12C0DE
:10008000F3FF13C0F4FF14C0FAFF045006C0E0FFF2
:1000900005C0D8FF1000F2CF0DF0F29EF76AB00F46
:1000A000F66E000EF7220900F5500DBEF28E12001A
:1000B0000C4D45564355542059415A493A200000A9
:1000C000F2CF0DF0F29EF76ADA0FF66E000EF7220D
:1000D0000900F5500DBEF28E12000D4C7574666568
:1000E0006E206269722079617A6920676972696E2F
:1000F000697A3A200000020EC46F56D9FDEF01F074
:10010000F86AD09E078E700ED36ED35094908B8079
:100110001A6AC150C00B0F09C16E070EB46E12D11E
:1001200068D185D1D2D118A802D01898F6D118A4D8
:1001300005D0189481CFC4F0C56B1CD218A201D091
:080140001892F4D2EFD703007E
:0E020200F2CF0DF0F29EF76A1C0FF66E020EA0
:10021000F7220900F5500DBEF28E12000D4C696DEB
:100220006974204173696C64692121210000F2CF57
:100230000DF0F29EF76A480FF66E020EF7220900E3
:10024000F5500DBEF28E1200494E464F524D454CB0
:10025000454B54524F4E494B41522D47452020208B
:10026000205354414A5945520000016A026A006A0B
:10027000036ACD5102E1CC5118E0100ECE6FD89038
:10028000CA37CB3700360336CD51035C02E1CC517F
:10029000005C07E3CC51005ED8A00306CD51035E9D
:1002A000D88001360236CE2FEAD71200F80ECF6E74
:1002B000300ECE6E9E90162AD8B4172A17C0CBF0F7
:1002C00016C0CAF0CD6B140ECC6FCFDF00C0CAF0E1
:1002D00003C0CBF0CA5303E1CB5301E1188217C02E
:1002E000CBF016C0CAF0CD6B320ECC6FBEDF00C0B3
:1002F000CAF003C0CBF0CA5303E1CB5301E1188429
:1003000017C0CBF016C0CAF0CD6BC80ECC6FADDFF6
:1003100000C0CAF003C0CBF0CA5303E1CB5301E1E4
:100320001888175002080BE2FF0A03E11650E8088C
:1003300006E21A5204E0188C176A166AA02B9E90E7
:100340002AEF00F0D38CD38AD388010E926E80906E
:10035000936E956A966A816A8C6A846A186AC16A21
:10036000D08EF28EF28C9F809D809E90CD9ECD9CF3
:10037000CD9ACD98CD96CD94CD92F80ECF6E300E0D
:10038000CE6ECD8090EF00F0C96BC951C85D02E31D
:10039000C92BFBD71200C6C08CFF84908482010E4B
:1003A000C86FF2DF84921200C451F00BC56FC5C054
:1003B000C6F0F1DFC439006EF00E00160050F00BED
:1003C000C56FC5C0C6F0E7DF1200280EC46FECDFB2
:1003D000FEEF01F00C0EC46FE7DFFFEF01F0060E39
:1003E000C46FE2DF00EF02F0010EC46FDDDF01EF4A
:1003F00002F0280EC86FC8DF7ED6E7D7EBD7EFD75D
:10040000F3D7EA6AA30EE96EF2CFC4F0F29E200E93
:10041000016EF76A000E0BDF0A000900F5CFEEFF50
:10042000012EFBD7C4BFF28EC36B91EF00F0949CFA
:10043000948E0C0EAF6E200EAC6E900EAB6E0F0E47
:100440009C6F1B0E9D6F110E9E6F200E9F6FEA6AB0
:100450005D0EE96EF2CFC4F0F29E9C51016E0BE08E
:10046000F76A000E18DE0A000900F5CFEEFF012E34
:10047000FBD7C4BFF28EEA6A6C0EE96EF2CFC4F00D
:10048000F29E9D51016E0BE0F76A000E19DE0A0024
:100490000900F5CFEEFF012EFBD7C4BFF28EEA6A4A
:1004A000870EE96EF2CFC4F0F29E9E51016E0BE012
:1004B000F76A000EA6DE0A000900F5CFEEFF012E56
:1004C000FBD7C4BFF28E92EF00F0040093EF00F070
:1004D000800EC46F69DF90EF02F0C00EC46F64DF5E
:1004E00094EF02F0C7C08CFF84808482010EC86F35
:1004F0004BDF84921200C551F00BC66FC6C0C7F027
:10050000F1DFC539006EF00E00160050F00BC66F1B
:10051000C6C0C7F0E7DFA3EF02F0C35301E1D8D7AD
:10052000C351100801E1D9D7C3511F080EE3036A74
:10053000C351A30FE96E000E0320EA6EEFCFC4F0A3
:10054000C4C0C5F0D8D7C32B01D0C36B97EF00F060
:10055000010E006EC751016E04E0D8900036012EE6
:10056000FCD70050C61502E1000E01D0010E016E4D
:10057000BFEF02F0C4C0C6F0C5C0C7F0E9D7015252
:1005800003E1D890193603D0D89019361980195044
:10059000070B070805E1010E1A6E016E0BD00AD099
:1005A0001950070B05E11A6A000E016E03D002D044
:1005B0001AC001F09EEF00F09EAA02D0AECF01F06B
:1005C000F2EF02F0016603D0026602D007D0022AE1
:1005D00000C0EEFF012EFCD7022EFAD71200A29126
:1005E000A06BEAD701C05BF05B5008080CE15C52DD
:1005F0000AE05C06036A5C501B0FE96E000E0320E4
:10060000EA6EEF6A33D05B500D081DE1A26BA28346
:10061000986B996B9A6B9B6BEA6AA30EE96EE26A20
:100620001B0EE16E200E016EE6CFEEFF012EFCD711
:10063000EA6A1B0EE96E006A026A200E016EC2DFD2
:100640005C6AA16B13D05C501F0806E2040EA16F18
:10065000A285A29B9A6B0AD0036A5C501B0FE96EBD
:10066000000E0320EA6E5BC0EFFF5C2A99EF03F0F7
:10067000ABA203D0AB980000AB88036AC6513B0F16
:10068000E96E000E0320EA6EEFCFADFF9E9895EF66
:1006900003F0C45310E1C5530EE1EA6A3B0EE96E64
:1006A000E26A5D0EE16E9C51016E04E0E6CFEEFF62
:1006B000012EFCD737D0C42D10D0C5530EE1EA6A05
:1006C0003B0EE96EE26A6C0EE16E9D51016E04E034
:1006D000E6CFEEFF012EFCD725D0C451020810E171
:1006E000C5530EE1EA6A3B0EE96EE26A870EE16EDF
:1006F0009E51016E04E0E6CFEEFF012EFCD712D032
:10070000C45103080FE1C5530DE1EA6A3B0EE96EDF
:10071000E26AA30EE16E9F51016E04E0E6CFEEFFA8
:10072000012EFCD7C5C0C6F0A3D712009EAA01D0E7
:1007300056D7A051000801E2A281A15109E0010AA7
:100740000EE0030A26E0010A3FE0070A58E075D0F0
:10075000A2A304D0A2A102D0010EA16F6FD09EA8C7
:1007600017D0A2B715D0C46B98C0C5F092DF010EA8
:100770009C5D985D0CE3A287020EA16FEA6A3B0EB6
:10078000E96E006A026A200E016E1CDF01D0982B10
:1007900055D09EA818D0A2BD16D0030EC46F9BC022
:1007A000C5F077DF010E9F5D9B5D0CE3A28D030E0C
:1007B000A16FEA6A3B0EE96E006A026A200E016EC2
:1007C00001DF01D09B2B3AD09EA818D0A2B916D039
:1007D000010EC46F99C0C5F05CDF010E9D5D995D8F
:1007E0000CE3A289A16BA293EA6A3B0EE96E006A50
:1007F000026A200E016EE6DE01D0992B1FD09EA862
:100800001BD0A2BB19D0A2A517D0020EC46F9AC0EC
:10081000C5F03FDF010E9E5D9A5D0DE3A28BA295B0
:10082000EA6A3B0EE96E006A026A200E016ECADEB9
:100830009A6BA16B01D09A2B01D0A16BA2EF00F0B3
:020000040030CA
:0E00000000C81E01000781000FC00FE00F4076
:00000001FF
;PIC18F4520
;CRC=D544  CREATED="17-Jul-23 09:37"
