:0400000080EF00F09D
:08000800046ED8CF05F0E0CF33
:1000100006F00001E9CF0CF0EACF07F0E1CF08F0DD
:10002000E2CF09F0D9CF0AF0DACF0BF0F3CF12F01C
:10003000F4CF13F0FACF14F000C00EF001C00FF0AF
:1000400002C010F003C011F09DA02AEF00F09EB096
:100050002BEF02F00EC000F00FC001F010C002F054
:1000600011C003F00CC0E9FF07C0EAFF078E08C00B
:10007000E1FF09C0E2FF0AC0D9FF0BC0DAFF12C0DE
:10008000F3FF13C0F4FF14C0FAFF045006C0E0FFF2
:1000900005C0D8FF1000F2CF0DF0F29EF76AB00F46
:1000A000F66E000EF7220900F5500DBEF28E12001A
:1000B000494E464F524D454C454B54524F4E494B7D
:1000C00041522D4745202020205354414A59455242
:1000D0000000202025303264203A20253032642070
:1000E0003A20253032642020202573202D20253011
:0E00F00032642F253032642F25303264000038
:10010000F86AD09E078E700ED36ED350B8960C0E40
:10011000AF6EA20EAC6E900EAB6E00000000686A6F
:10012000676AC150C00B0F09C16E070EB46EC3D110
:100130001AD239D242D218AC04D0189C817E010E5A
:100140003A6E18A201D0189218A005D018903A5211
:0A01500002E05BD2FFD2EED70300FD
:0E0402002020202020202563202020202020E4
:100410000000016A026A006A036A725002E17150C8
:1004200018E0100E736ED8906F36703600360336B3
:100430007250035C02E17150005C07E37150005E92
:10044000D8A003067250035ED88001360236732EA0
:10045000EAD744EF02F0F80ECF6E300ECE6E9E90CB
:10046000162AD8B4172A1650010B6F6E706A6F5295
:1004700003E1705201E1188017C070F016C06FF0F0
:10048000726A320E716EC5D700C06FF003C070F093
:100490006F5203E1705201E118821750020808E21E
:1004A000FF0A03E11650E80803E2188C176A166A7F
:1004B0009E902AEF00F0D38CD38AD388936A956AF2
:1004C000966A816A8C6A846A186AD08EF28EF28C7F
:1004D0009F809D809E90CD9ECD9CCD9ACD98CD96AF
:1004E000CD94CD92F80ECF6E300ECE6ECD8098EFBB
:1004F00000F06E6A6E506D5C02E36E2AFBD712004C
:100500006BC08CFF84908482010E6D6EF2DF84924A
:1005100012006950F00B6A6E6AC06BF0F1DF693847
:10052000006EF00E00160050F00B6A6E6AC06BF0A1
:10053000E7DF1200020E696EECDFB7EF02F0280E63
:10054000696EE7DFB8EF02F00C0E696EE2DFB9EF1B
:1005500002F0060E696EDDDFBAEF02F0010E696E81
:10056000D8DFBBEF02F0280E6D6EC3DFE3D7E7D70D
:10057000EBD7EFD7F3D7EA6A190EE96EF2CF69F03D
:10058000F29E200E016EF76A000E85DD0A0009005A
:10059000F5CFEEFF012EFBD769BEF28E396A010E50
:1005A0003A6E99EF00F094869488130EC86E280E68
:1005B000C66E800EC76E9AEF00F004009BEF00F04D
:1005C000800E696EA6DF08EF03F0C00E696EA1DF32
:1005D0000CEF03F06CC08CFF84808482010E6D6E82
:1005E00088DF849212006A50F00B6B6E6BC06CF067
:1005F000F1DF6A38006EF00E00160050F00B6B6EE3
:100600006BC06CF0E7DF1BEF03F0395201E1D8D784
:100610003950100801E1D9D739501F080EE3036A99
:100620003950190FE96E000E0320EA6EEFCF69F022
:1006300069C06AF0D8D7392A02D03A6A396AAAEF73
:1006400000F0C580C5B0FED71200C5501F0BFDE1FC
:10065000C7B4FBD712006CC0C9FFC7B0FED7F5DF27
:10066000000EC5BC010E016E1200C582C5B2FED7D8
:100670001200C584C5B4FED71200E3DFA00E6C6E75
:10068000EADF012C02D0F1DFF9D769C06CF0E3DFBB
:100690006AC06CF0E0DF6BC06CF0DDDFEADFAFEF6B
:1006A00003F0C59AC588C5B8FED768EF03F0C58AC0
:1006B000C588C5B8FED768EF03F06D6AC586C7A0C8
:1006C000FED7C9CF6DF06C5202E1EBD701D0EFD766
:1006D000BCDF6DC001F087EF03F06B6AB2DFA00EE4
:1006E0006C6EB9DF012C02D0C0DFF9D769C06CF0A5
:1006F000B2DF6AC06CF0AFDFB8DFA10E6C6EABDFAB
:10070000012C02D0B2DFF9D7010E6C6ED6D701C032
:100710006BF0AFDF6BC001F0120068C0EAFF67C08A
:10072000E9FF6DC0EFFFE92AD8B4EA2AEF6A672A29
:10073000D8B4682A12000900F6CF6BF0F7CF6CF03E
:10074000F5CF6DF0EADF6BC0F6FF6CC0F7FF6A2EE5
:10075000F2D71200696A6A6A520E6B6E8ED7020E69
:10076000006E002EFED700D00000696A6A6AB5DF0D
:1007700001C069F0686A470E676E020EF66E040EDD
:10078000F76E060E6A6ED7DF69C06DF0C6DF0A0E1F
:10079000F66E040EF76E060E6A6ECDDF696A6A6A3F
:1007A0009CDF0150696E9EA8FED7AD6E0D0E9EA80F
:1007B000FED7AD6EEA6A190EE96EE26A470EE16E87
:1007C000200E016EE6CFEEFF012EFCD7ABEF00F05E
:020000040030CA
:0E00000000C81E00000781000FC00FE00F4077
:00000001FF
;PIC18F4520
;CRC=F2E7  CREATED="13-Aug-23 18:24"
