:0400000080EF00F09D
:08000800046ED8CF05F0E0CF33
:1000100006F00001E9CF0CF0EACF07F0E1CF08F0DD
:10002000E2CF09F0D9CF0AF0DACF0BF0F3CF12F01C
:10003000F4CF13F0FACF14F000C00EF001C00FF0AF
:1000400002C010F003C011F09DA02AEF00F09EB096
:10005000B6EF02F00EC000F00FC001F010C002F0C9
:1000600011C003F00CC0E9FF07C0EAFF078E08C00B
:10007000E1FF09C0E2FF0AC0D9FF0BC0DAFF12C0DE
:10008000F3FF13C0F4FF14C0FAFF045006C0E0FFF2
:1000900005C0D8FF1000016A026A006A036A020103
:1000A000415102E1405118E0100E426FD8903E37A6
:1000B0003F37003603364151035C02E14051005C9A
:1000C00007E34051005ED8A003064151035ED8808B
:1000D00001360236422FEAD70001D1EF02F00000CC
:1000E000120030C28CFF8A948A88F9DFF8DFF7DFCC
:1000F0008A98F5DFF4DFF3DF120094948B941200FA
:10010000F86AD09E078E700ED36ED350B886220E3A
:10011000AF6E000EB06EA60EAC6E900EAB6E000011
:100120000000C150C00B0F09C16E070EB46E57D24C
:1001300083D20AEF05F016EF05F018A003D018904F
:10014000D8EF07F018AC02D0189C817EF4D70300DA
:0E030200F2CF0DF0F29E1A0FF66E030EF722E8
:100310000900F5500DBEF28E120000000000000032
:1003200000005F000000000700070000147F147F3A
:100330001400242A7F2A120023130864620036491D
:1003400055225000000503000000001C224100005F
:100350000041221C0000082A1C2A080008083E0848
:10036000080000503000000008080808080000607D
:10037000600000002010080402003E5149453E0084
:1003800000427F4000004261514946002141454BF7
:1003900031001814127F10002745454539003C4AAA
:1003A00049493000017109050300364949493600C1
:1003B000064949291E000036360000000056360066
:1003C00000000008142241001414141414004122E7
:1003D00014080000020151090600324979413E002B
:1003E0007E1111117E007F49494936003E4141414D
:1003F00022007F4141221C007F49494941007F0979
:10040000090101003E41415132007F0808087F0088
:1004100000417F4100002040413F01007F0814223D
:1004200041007F40404040007F0204027F007F0483
:1004300008107F003E4141413E007F090909060046
:100440003E4151215E007F0919294600464949492C
:10045000310001017F0101003F4040403F001F206B
:1004600040201F007F2018207F00631408146300C1
:1004700003047804030061514945430000007F41B3
:10048000410002040810200041417F0000000402E6
:10049000010204004040404040000001020400000E
:1004A0002054545478007F4844443800384444442D
:1004B0002000384444487F00385454541800087EC3
:1004C00009010200081454543C007F080404780019
:1004D00000447D4000002040443D0000007F102883
:1004E000440000417F4000007C04180478007C0830
:1004F000040478003844444438007C141414080080
:10050000081414187C007C0804040800485454544F
:100510002000043F444020003C4040207C001C2040
:1005200040201C003C4030403C004428102844003F
:100530000C5050503C004464544C44000008364178
:10054000000000007F00000000413608000008089D
:100550002A1C0800081C2A0808004841544120535E
:100560004543544F523A20254C750000F80ECF6E8B
:10057000300ECE6E9E90162AD8B4172A1650010B54
:1005800002013E6F3F6B3E5303E13F5301E1188090
:1005900017C03FF216C03EF2416BC80E406F00011B
:1005A0007AD500C03EF2020103C03FF23E5303E1A0
:1005B0003F5301E118881750020808E2FF0A03E1DF
:1005C0001650E70803E2188C176A166A9E9000011D
:1005D0002AEF00F043616C697374692E2E00D38C8E
:1005E000D38AD388936A186AD08EF28EF28C9F8059
:1005F0009D809E90CD9ECD9CCD9ACD98CD96CD944C
:10060000CD92F80ECF6E300ECE6ECD8098EF00F00A
:10061000020EEA6E210EE96EEF500DE0020E016E41
:10062000006A002EFED7012EFBD7970E006E002E1B
:10063000FED7EF2EF3D71200936A956A8A968A8ABC
:100640008A9A8A808A82140E0201216F0001E0DFFB
:100650003E0E0201306F000144DD400E0201306F9A
:1006600000013FDDB80E0201306F00013ADDC00E1F
:100670000201306F000135DD3F0E0201306F0001D5
:1006800030DD99EF00F0020132514009396FC95055
:1006900039C2C9FFC730FEE3386B385103081EE387
:1006A000030ED8803855080DF3CF39F236C23DF22B
:1006B00035C23CF234C23BF233C23AF2395307E05E
:1006C000D8903D333C333B333A33392FF9D7C950B7
:1006D0003AC2C9FFC730FEE3382BDFD7C95037C253
:1006E000C9FFC730FEE3000112000201216B1A6846
:1006F000196819501A1011E0C950C968C730FEE3D3
:10070000C9CF21F2213D01D003D021C201F007D091
:100710001950D8B41A061906ECD7800E016E0001E4
:1007200012000201326B366B356B346B336B950EF6
:10073000376F0001A8DFD9DF01506CEF04F094940B
:100740008B84C950C968C730FEE312000201226BD6
:100750001A68196819501A101BE0C950C968C730C7
:10076000FEE3C9CF22F2223D01D00DD0216B2151F1
:10077000030806E3C950C968C730FEE3212BF7D749
:10078000010E016E07D01950D8B41A061906E2D727
:10079000800E016E0001DBEF03F0080E0201326FE4
:1007A000366B356B010E346FAA0E336F870E376FC1
:1007B000000169DFCBD7015079EF04F0370E020159
:1007C000326F366B356B346B336B376900015BDF2F
:1007D0008CDF015088EF04F0290E0201326F400EC9
:1007E000366F356B346B336B376900014CDF7DDF5F
:1007F00001509BEF04F01A6819683A0E0201326F3B
:10080000366B356B346B336B376900013CDF195045
:100810001A102FE0C950C968C730FEE3C9CF24F2CF
:100820000201243D01D023D02451040803E124C255
:1008300001F022D022C203F021C2E9FF22C2EAFF66
:10084000C950C968C730FEE3C9CFEFFF236B2351FE
:10085000020806E3C950C968C730FEE3232BF7D767
:10086000010E016E09D01950D8B41A0619060001FC
:10087000CED7800E016E02010001CBEF04F0100E06
:100880000201326F366B356B020E346F336B376992
:100890000001F9DE2ADF0150E3EF04F0C69A949AD2
:1008A00094889496320EC66E000EC76E94948B8414
:1008B0009494FA0E0201216F0001AADE02011E6B60
:1008C0001E51090806E3C950C968C730FEE31E2B54
:1008D000F7D7000112DC25D701C01FF230DF02017B
:1008E0001F2D01D003D01FC201F07FD0000105DC15
:1008F00054D701C01FF223DF02011F2D01D003D006
:100900001FC201F072D01E6B00017DEC00F056D7C3
:1009100001C01FF202011F2D01D00BD01F5104088E
:1009200008E01F5306E000010ADF02011FC201F0C8
:100930005CD0000151D701C01FF201DF640E02013B
:10094000216F000165DE02011E2B1F2D03D01E51F9
:10095000FD08DAE20001F3DE02011F5303E11E513C
:10096000FD0806E21F51040803E0800E016E3DD031
:100970001F51040802E11B6A02D0010E1B6E1B2CE2
:100980001ED000017DEC00F0020E0201226F200E4D
:10099000216F000130D701C01FF2D1DE02011F2DEF
:1009A00001D006D01F51040803E01FC201F01DD082
:1009B0001F51040804E020AD02D0020E1B6E00019E
:1009C0007DEC00F05CD701C01FF2B9DE02011F53BD
:1009D00003E0800E016E09D0C69A949A948894968A
:1009E000300EC66E000EC76E016E00010CEF05F0F2
:1009F0000900F5520DE0F6CF1EF2F7CF1FF2F550C9
:100A00009EA8FED7AD6E1EC2F6FF1FC2F7FFF0D73D
:100A100013EF05F0F29E42D7015205E1D40EF66EB7
:100A2000050EF76EE5D7F28E9BEF00F004009DEF08
:100A300000F0016603D0026602D007D0022A00C08F
:100A4000EEFF012EFCD7022EFAD74AEF06F01A6805
:100A500019687DEC00F00201316B306B31530BE112
:100A60003051090808E3C950C968C730FEE3302B8C
:100A7000D8B4312BF3D7000162DE1B5002080DE021
:100A8000D8902BC22CF22AC22BF229C22AF20201E0
:100A9000296B2A372B372C3700017DEC00F0110E23
:100AA0000201326F2CC236F22BC235F22AC234F266
:100AB00029C233F237690001E6DD19501A103AE015
:100AC000C950C968C730FEE3C9CF2FF202012F51C8
:100AD000FE082AE1316B306B3151010810E32D51D2
:100AE0003025E96E2E513121EA6EC950C968C730F0
:100AF000FEE3C9CFEFFF302BD8B4312BEDD7316BEC
:100B0000306B31530BE13051010808E3C950C9681B
:100B1000C730FEE3302BD8B4312BF3D700010FDE02
:100B2000000E016E0AD002011950D8B41A06190637
:100B30000001C3D704DE800E016E5EEF06F033C203
:100B40008CFF8A848A886FEC00F08A986FEC00F042
:100B500012008A808A820201296B2951070814E356
:100B6000B80E29252B6F306F000171EC00F00201E7
:100B70002A6B2A513F0806E3336B0001E0DF0201D4
:100B80002A2BF7D7292BE9D7400E306F000171ECE3
:100B900000F0B80E0201306F000171EC00F071EF4F
:100BA00006F00900F6CF2AF2F7CF2BF2F5509EA8F7
:100BB000FED7AD6E2AC2F6FF2BC2F7FF0201292F26
:100BC00001D002D00001EDD700017DEF06F0EACFA1
:100BD00031F2E9CF30F202012A39F0092C6F2C27CB
:100BE000E20F2D6F320F2F6F2A510F0B2D272D275C
:100BF0002F27E90F2E6F2E272E2729390F0B2E278F
:100C00002F272E372F372F1F2F3729510F0B2F2725
:100C10002C37070E2B6F0A0E2E072F27FDE32D070B
:100C20002E27FDE32C072D27FDE32B072C27FDE3C3
:100C3000020EEA6E2B0EE96E070E3015309DE92686
:100C4000000EEA22E9502F0804E1EA50020801E10F
:100C5000308DEF50006E08E130BD06D030B90CD0B9
:100C600030B702D0200E03D030873099300E0026E6
:100C700000509EA8FED7AD6EEE5030ADE3D7000118
:100C800084EF06F0EA6A1E0EE96E006A020E026E3A
:100C9000016ACFD61D5206E11C50260803E31D6AE7
:100CA000270E1C6E02012C6B2B6B1DC02AF21CC080
:100CB00029F22E6B1E0E2D6F0001C9D6015210E1D4
:100CC0001D50000809E2FF0A03E11C50B30804E2CA
:100CD0001D6A270E1C6E03D01C2AD8B41D2A14D0FE
:100CE00038D71D6A270E1C6E5A0EF66E050EF76E6B
:100CF0000D0E0201296F000154D7100EE96E1DC0C0
:100D00002AF21CC029F263D712008A806FEC00F02F
:100D10008A9212008A906FEC00F08A82120002011F
:100D2000296B2A6BB80E2B6F2D6B2C6B2A6B2A51FB
:100D3000030850E30001E9DF02012A512B252E6F41
:100D4000306F000171EC00F0400E0201306F0001C5
:100D500071EC00F00201296B29513F0812E31E0ECD
:100D60002C25E96E000E2D21EA6EEFCF2EF22EC259
:100D700033F20001E4DE02012C2BD8B42D2B292BF9
:100D8000EBD70001C7DF02012A512B252E6F306FF0
:100D9000000171EC00F0400E0201306F000171ECB7
:100DA00000F00201296B29513F0812E31E0E2C2589
:100DB000E96E000E2D21EA6EEFCF2EF22EC233F235
:100DC0000001BDDE02012C2BD8B42D2B292BEBD733
:100DD0002A2BADD70001DBEF07F00201296B2A6B4C
:100DE000BC0E2B6F2D6B2C6B2A6B2A51030850E322
:100DF00000018BDF02012A512B252E6F306F00017D
:100E000071EC00F0400E0201306F000171EC00F057
:100E10000201296B29513F0812E31E0E2C25E96EB1
:100E2000000E2D21EA6EEFCF2EF22EC233F200011A
:100E300086DE02012C2BD8B42D2B292BEBD70001F9
:100E400069DF02012A512B252E6F306F000171ECF2
:100E500000F0400E0201306F000171EC00F0020161
:100E6000296B29513F0812E31E0E2C25E96E000E56
:100E70002D21EA6EEFCF2EF22EC233F200015FDE9B
:100E800002012C2BD8B42D2B292BEBD72A2BADD735
:100E90000001DDEF07F0020132513403F3CF01F01E
:100EA000F4CF00F03503F350002633513403F350F0
:100EB0000020026E00016AEF07F00201316B315130
:100EC000050826E3336B30C232F2356B060E346F01
:100ED0000001E1D702C033F201C032F20201315108
:100EE0000124016E000E0220036E0150F2CF32F297
:100EF000F29E03C0F7FF000181EC01F0020132BF56
:100F0000F28E326F336F00011ADE0201312BD7D718
:100F10000001B9EF07F0B80E02012C6F2E6BD890CC
:100F20002B31060DF3CF2EF20001EFDE040E02018D
:100F30002C252F6F306F000171EC00F0800ED880EF
:100F400002012E552F6F306F000171EC00F002018D
:100F50002D6B2B512D5D29E2036A2D512925E96E58
:100F60002A510320EA6E200EEF5C2F6F306F0001D4
:100F7000A4D702012D51060DF3CF2FF2060E2E5DE0
:100F80002F5D11E10001C6DE040E02012C252F6F3A
:100F9000306F000171EC00F0400E0201306F000173
:100FA00071EC00F002012D2BD4D70001FBEF07F00C
:100FB000F29E68DEB4D666DE10D7200E02011E6FE8
:100FC0002E0E1F6F540E206F550E216F520E226F82
:100FD0004B0E236F490E246F590E256F450E266F59
:100FE000200E276F286B020E2A6F1E0E296F0A0E25
:0C0FF0002B6F000190D7F28EA2EF00F0F2
:020000040030CA
:0E00000000C81E06000781000FC00FE00F4071
:00000001FF
;PIC18F4520
;CRC=1614  CREATED="21-Aug-23 08:06"
