:0400000080EF00F09D
:08000800046ED8CF05F0E0CF33
:1000100006F00001E9CF0CF0EACF07F0E1CF08F0DD
:10002000E2CF09F0D9CF0AF0DACF0BF0F3CF12F01C
:10003000F4CF13F0FACF14F000C00EF001C00FF0AF
:1000400002C010F003C011F09DA02AEF00F09EB096
:1000500075EF03F00EC000F00FC001F010C002F009
:1000600011C003F00CC0E9FF07C0EAFF078E08C00B
:10007000E1FF09C0E2FF0AC0D9FF0BC0DAFF12C0DE
:10008000F3FF13C0F4FF14C0FAFF045006C0E0FFF2
:1000900005C0D8FF1000016A026A006A036A010104
:1000A000555102E1545118E0100E566FD890523756
:1000B0005337003603365551035C02E15451005C5E
:1000C00007E35451005ED8A003065551035ED88063
:1000D00001360236562FEAD7000197EF03F00101EF
:1000E000416B4151405D02E3412BFBD700011200FF
:0E00F000020E01013C6F00015CDB10EF04F01A
:10010000F86AD09E078E700ED36ED3501A6A010122
:100110003B6B3A6BC150C00B0F09C16E070EB46E3A
:1001200000011ED377D39AD318AE04D0189E010EC7
:100130003C6E817E18A407D018949EAA04D0F29E2B
:10014000CCEF07F0F28E18A205D018923C5202E0D4
:0801500020EF08F0E9D70300DD
:0E040200F2CF0DF0F29EF76A1C0FF66E040E9C
:10041000F7220900F5500DBEF28E120000C1814096
:1004200001C0804101C0804100C1814001C08041C4
:1004300000C1814000C1814001C0804101C08041B4
:1004400000C1814000C1814001C0804100C18140A4
:1004500001C0804101C0804100C1814001C0804194
:1004600000C1814000C1814001C0804100C1814084
:1004700001C0804101C0804100C1814000C1814074
:1004800001C0804101C0804100C1814001C0804164
:1004900000C1814000C1814001C0804101C0804154
:1004A00000C1814000C1814001C0804100C1814044
:1004B00001C0804101C0804100C1814000C1814034
:1004C00001C0804101C0804100C1814001C0804124
:1004D00000C1814000C1814001C0804100C1814014
:1004E00001C0804101C0804100C1814001C0804104
:1004F00000C1814000C1814001C0804101C08041F4
:1005000000C1814000C1814001C0804100C18140E3
:1005100001C0804101C0804100C18140F2CF0DF097
:10052000F29EF76A360FF66E050EF7220900F550B7
:100530000DBEF28E120000C0C101C30302C2C60686
:1005400007C705C5C404CC0C0DCD0FCFCE0E0ACA0B
:10055000CB0BC90908C8D81819D91BDBDA1A1EDE5B
:10056000DF1FDD1D1CDC14D4D515D71716D6D2120B
:1005700013D311D1D010F03031F133F3F23236F61B
:10058000F737F53534F43CFCFD3DFF3F3EFEFA3ACB
:100590003BFB39F9F83828E8E929EB2B2AEAEE2E5B
:1005A0002FEF2DEDEC2CE42425E527E7E62622E2CB
:1005B000E323E12120E0A06061A163A3A26266A61B
:1005C000A767A56564A46CACAD6DAF6F6EAEAA6A8B
:1005D0006BAB69A9A86878B8B979BB7B7ABABE7EDB
:1005E0007FBF7DBDBC7CB47475B577B7B67672B28B
:1005F000B373B17170B0509091519353529296561B
:100600005797559594549C5C5D9D5F9F9E5E5A9A4A
:100610009B5B99595898884849894B8B8A4A4E8EDA
:100620008F4F8D4D4C8C448485458747468682424A
:10063000438341818040F2CF0DF0F29EF76A500F64
:10064000F66E060EF7220900F5500DBEF28E12006E
:10065000494E464F524D454C454B54524F4E494BD7
:1006600041522D4745202020205354414A5945529C
:1006700000002020253258202532582025325820CD
:10068000253258202020202025325820253258207D
:10069000253258202532582020002020253258208D
:1006A000253258202532582025325820202020205D
:1006B00025325820253258202532582025325820FE
:1006C000200020202532582025325820253258205D
:1006D000253258202020202025325820253258202D
:1006E00025325820253258202000F80ECF6E300ECB
:1006F000CE6E9E90162AD8B4172A1650010B01010F
:10070000526F536B525303E1535301E11882526B02
:10071000536B525303E1535301E1188417C053F153
:1007200016C052F1556B320E546F0001B4D400C0A4
:1007300052F1010103C053F1525303E1535301E15C
:1007400018861750020808E2FF0A03E11650E8086D
:1007500003E2188E176A166A9E9000012AEF00F0D5
:10076000D38CD38AD388936A956A966A816A8C6A95
:10077000846A186AD08EF28EF28C9F809D809E9043
:10078000CD9ECD9CCD9ACD98CD96CD94CD92F80EA0
:10079000CF6E300ECE6ECD8092EF00F03EC18CFF5A
:1007A00084908482010E0101406F000198DC8492E4
:1007B000120001013C51F00B3D6F3DC13EF10001C3
:1007C000EDDF01013C39006EF00E00160050F00B19
:1007D0003D6F3DC13EF10001E1DF1200280E010135
:1007E0003C6F0001E6DF11EF04F00C0E01013C6FDD
:1007F0000001DFDF12EF04F0060E01013C6F000183
:10080000D8DF13EF04F0010E01013C6F0001D1DFCE
:1008100014EF04F0280E0101406F000160DC68D481
:10082000DDD7E3D7E9D7EFD7EA6A1B0EE96EF2CF3F
:100830003CF1F29E200E016EF76A000EFCDE0A000B
:100840000900F5CFEEFF012EFBD701013CBFF28E70
:100850003B6A010E3C6E000193EF00F0949C948E75
:100860000C0EAF6E200EAC6E900EAB6E94EF00F0DF
:100870009EAA02D0AECF01F01200016603D002663C
:1008800002D007D0022A00C0EEFF012EFCD7022EB4
:10089000FAD712003BC1EAFF3AC1E9FF010151C199
:1008A000EFFFE92AD8B4EA2AEF6A3A2BD8B43B2BF7
:1008B00000011200010150BF11D00F0E006E4F3920
:1008C00000160A0E005C03E2300E002602D05051E2
:1008D000002600C051F10001DDDF01010F0E4F17AE
:1008E0000A0E4F5D02E2300E02D0509F50514F274A
:1008F0004FC151F10001CEDF12000101486B49697F
:100900004A694D6BEA6A1B0EE96E006A026A200EA4
:10091000016E0001B2DF020E0101475D485D4CE24D
:1009200046530BE1036A48513D0FE96E000E032068
:10093000EA6EEF5049194D6F0AD0036A4851BA0F59
:10094000E96E000E0320EA6EEF5049194D6F036AFD
:100950004851BA0FE96E000E0320EA6EEFCF4EF158
:100960003B6B1B0E3A6F4EC14FF1370E506F0001BB
:10097000A1DF200E0101516F00018CDF036A01012C
:100980004D51F2CF4EF1F29E00013BDD01014EBF11
:10099000F28E016E4A510118496F036A4D51F2CF30
:1009A0004EF1F29E0001BADD01014EBFF28E4A6F98
:1009B000482B0001B0D701014C6B49C14BF14BC131
:1009C0004FF14E6B4E514A114B6F4FC14CF14BC121
:1009D00001F04CC102F0000112000900F6CF46F10F
:1009E000F7CF47F1F5CF51F155DF46C1F6FF47C1CB
:1009F000F7FF0101452F01D002D00001EED7000121
:100A00001200EA6A3D0EE96E006A026A7D0E016E0E
:100A100034DF1CEF05F04AC1ADFF9EA8FED73AEFC8
:100A200005F0EA6ABA0EE96E006A026A7D0E016E8E
:100A300024DF3FEF05F0E5D70101476B4751C708B9
:100A400008E20C0E006E002EFED700D00000472BEF
:100A5000F5D7486B4651485D10E2036A4851BA0F1A
:100A6000E96E000E0320EA6EEFCF49F149C14AF169
:100A70000001D1D70101482BEDD70001D2D71200D8
:100A8000010E3D6E030E3E6E020E01013D6F3D51A3
:100A90000708D8A09CD13E6B9EBA0ED00C0E006EFB
:100AA000002EFED700D000003E2B3E51C70803E2C7
:100AB000010E396F01D0F0D7036A3D513D0F016E31
:100AC000000E032201C045F103C046F10001D0DE53
:100AD00046C1EAFF45C1E9FF01C0EFFF0101392D21
:100AE00001D004D03D510608D8B06FD1466B080E36
:100AF000476F000102DF02C038F101C037F138C191
:100B000045F10101466B466B4350385DD8A45DD179
:100B10004653D8A45AD137C145F1466B4450375D8E
:100B2000D8A453D14653D8A450D13B6B1B0E3A6F77
:100B3000200E516F0001AEDE200E0101516F000149
:100B4000A9DE3DC04FF1370E0101506F0001B2DE4A
:100B5000200E0101516F00019DDE3EC04FF1370EA6
:100B60000101506F0001A6DE200E0101516F00014E
:100B700091DE3FC04FF1370E0101506F00019ADE48
:100B8000200E0101516F000185DE40C04FF1370E8C
:100B90000101506F00018EDE830EF66E060EF76EB9
:100BA000050E0101456F000118DF41C04FF1370EFE
:100BB0000101506F00017EDE200E0101516F000126
:100BC00069DE42C04FF1370E0101506F000172DE45
:100BD000200E0101516F00015DDE43C04FF1370E61
:100BE0000101506F000166DE200E0101516F00010E
:100BF00051DE44C04FF1370E0101506F00015ADE43
:100C0000200E0101516F000145DE200E0101516FE0
:100C1000000140DE000E401001013F6F406B000EEE
:100C20004210416F426BD8904135026E423502C08E
:100C300043F1010E0001BA6F030EBB6FD8900101A2
:100C40004135026E423502C0BCF00001030E0101C5
:100C5000446F030E4325445D18E24451010B010823
:100C600009E1036A4451BA0FE96E000E0320EA6EEF
:100C7000EF6A09D0036A4451BA0FE96E000E0320EF
:100C8000EA6E050EEF6E442BE4D7050E4325456F43
:100C9000010E466F45C147F100012FDE02C038F159
:100CA00001C037F1040E01014325036ABA0FE96E52
:100CB000000E0320EA6E37C1EFFF030E4325036ADF
:100CC000BA0FE96E000E0320EA6E38C1EFFF3B6BEE
:100CD0001B0E3A6F200E516F0001DCDD200E01016A
:100CE000516F0001D7DDBAC04FF1370E0101506FCF
:100CF0000001E0DD200E0101516F0001CBDDBBC022
:100D00004FF1370E0101506F0001D4DD200E0101BB
:100D1000516F0001BFDDBCC04FF1370E0101506FB4
:100D20000001C8DD200E0101516F0001B3DDBDC01F
:100D30004FF1370E0101506F0001BCDDAB0EF66EB6
:100D4000060EF76E050E0101456F000146DEBEC0BE
:100D50004FF1370E0101506F0001ACDD200E010193
:100D6000516F000197DDBFC04FF1370E0101506F89
:100D70000001A0DD200E0101516F00018BDDC0C01C
:100D80004FF1370E0101506F000194DD200E01017B
:100D9000516F00017FDDC1C04FF1370E0101506F6F
:100DA000000188DD200E0101516F000173DD200E6E
:100DB0000101516F00016EDD050E01014325456FF4
:100DC000466F000138DE03D001013D2B60D60001E3
:100DD000E1EF07F0010E3D6E060E3E6E020E0101C0
:100DE0003D6F3D510708D8A0D4D03E6B9EBA0ED0BF
:100DF0000C0E006E002EFED700D000003E2B3E51A0
:100E0000C70803E2010E396F01D0F0D7036A3D51E4
:100E10003D0F016E000E032201C03FF103C040F1FF
:100E2000000126DD40C1EAFF3FC1E9FF01C0EFFF3D
:100E30000101392D01D004D03D510608D8B0A7D00A
:100E4000466B080E476F000158DD02C038F101C043
:100E500037F138C13FF10101406B406B4350385DC1
:100E6000D8A495D04053D8A492D037C13FF1406B5D
:100E70004450375DD8A48BD04053D8A488D03B6B66
:100E80001B0E3A6F200E516F000104DD200E010190
:100E9000516F0001FFDC3DC04FF1370E0101506F73
:100EA000000108DD200E0101516F0001F3DC3EC09E
:100EB0004FF1370E0101506F0001FCDC200E0101E3
:100EC000516F0001E7DC3FC04FF1370E0101506F59
:100ED0000001F0DC200E0101516F0001DBDC40C09D
:100EE0004FF1370E0101506F0001E4DCD30EF66EB6
:100EF000060EF76E050E0101456F00016EDD41C063
:100F00004FF1370E0101506F0001D4DC200E0101BA
:100F1000516F0001BFDC42C04FF1370E0101506F2D
:100F20000001C8DC200E0101516F0001B3DC43C099
:100F30004FF1370E0101506F0001BCDC200E0101A2
:100F4000516F0001A7DC44C04FF1370E0101506F13
:100F50000001B0DC200E0101516F00019BDC200E6E
:100F60000101516F000196DCEA6ABA0EE96EE26A8D
:100F70003D0EE16E080E016EE6CFEEFF012EFCD7AE
:100F8000080E0101466F000156DD03D001013D2B23
:100F900028D70001E7EF07F00101396B000168DC99
:100FA00001C03CF101013C2D13D09EAAFED70001E7
:100FB0005FDC01C03CF101013C51030803E1000189
:100FC0005FD501013C51060803E1000103D701018F
:100FD000395301E0396B0001A2EF00F0800E0101EE
:100FE0003C6F0001D9EC03F023EF08F0C00E0101C3
:100FF0003C6F0001D9EC03F027EF08F03FC18CFFF4
:1010000084808482010E0101406F00016FEC00F0CA
:101010008492120001013D51F00B3E6F3EC13FF141
:101020000001ECDF01013D39006EF00E00160050AA
:10103000F00B3E6F3EC13FF10001E0DF36EF08F0FC
:101040003B5201E1CBD73B50100801E1CFD73B50D9
:101050001F080EE3036A3B501B0FE96E000E0320CE
:10106000EA6EEFCF3CF13CC13DF1D4D73B2A02D030
:081070003C6A3B6AAAEF00F0A4
:020000040030CA
:0E00000000C81E00000781000FC00FE00F4077
:00000001FF
;PIC18F4520
;CRC=CF0E  CREATED="23-Aug-23 19:52"
