:0400000080EF00F09D
:08000800046ED8CF05F0E0CF33
:1000100006F00001E9CF0CF0EACF07F0E1CF08F0DD
:10002000E2CF09F0D9CF0AF0DACF0BF0F3CF12F01C
:10003000F4CF13F0FACF14F000C00EF001C00FF0AF
:1000400002C010F003C011F09DA02AEF00F09EB096
:1000500022EF01F00EC000F00FC001F010C002F05E
:1000600011C003F00CC0E9FF07C0EAFF078E08C00B
:10007000E1FF09C0E2FF0AC0D9FF0BC0DAFF12C0DE
:10008000F3FF13C0F4FF14C0FAFF045006C0E0FFF2
:1000900005C0D8FF1000F2CF0DF0F29EF76AB00F46
:1000A000F66E000EF7220900F5500DBEF28E12001A
:1000B000494E464F524D454C454B54524F4E494B7D
:1000C00041522D47452000005F6A5F505E5C02E3AD
:1000D0005F2AFBD712005DC08CFF84908482960E4D
:1000E0005E6EF2DF84921200020E5B6E06D907EF9D
:0C00F00002F0280E5B6E01D908EF02F050
:10010000F86AD09E078E700ED36ED350256AC15008
:10011000C00B0F09C16E070EB46E080E466E1F0E9F
:10012000476E190E486E110E496E4A6E130E4B6ED5
:100130001F0E4C6E020E4D6E0E0E4E6E4F6E040E66
:10014000506E0F0E516E140E526E0A0E536E1B0E31
:10015000546E556AB1D057D17FD123AA02D0239AC9
:100160002DD923A602D02396817E23A205D02392E7
:0C01700081CF56F0576A85D1EFD703000D
:0E020200016A026A006A036A635002E16250F8
:1002100018E0100E646ED8906036613600360336F2
:100220006350035C02E16250005C07E36250005ED1
:10023000D8A003066350035ED88001360236642ED0
:10024000EAD71200F80ECF6E300ECE6E9E90212AA5
:10025000D8B4222A22C061F021C060F0636A320E55
:10026000626ECFDF00C060F003C061F0605203E156
:10027000615201E1238222C061F021C060F0636A13
:10028000C80E626EBEDF00C060F003C061F0605255
:1002900003E1615201E12386225002080AE2FF0ACB
:1002A00003E12150E80805E2255203E0238A226A8F
:1002B000216A9E902AEF00F0D38CD38AD388010E56
:1002C000936E956A966A816A8C6A846A236A0F0EB5
:1002D000C16ED08EF28EF28C9F809D809E90CD9EBE
:1002E000CD9CCD9ACD98CD96CD94CD92F80ECF6E73
:1002F000300ECE6ECD80ABEF00F05B50F00B5C6E3D
:100300005CC05DF0E8DE5B38006EF00E0016005059
:10031000F00B5C6E5CC05DF0DEDE12000C0E5B6EFE
:10032000ECDF09EF02F0060E5B6EE7DF0AEF02F08A
:10033000010E5B6EE2DF0BEF02F05DC08CFF84808C
:100340008482960E5E6EC0DE849212005B50F00BCB
:100350005C6E5CC05DF0F1DF5B38006EF00E001685
:100360000050F00B5C6E5CC05DF0E7DF1200565091
:10037000070819E35650080DF350400F5A6E5B6E94
:10038000BCDF596A595007080EE3036A59505724D5
:10039000E96E58500320EA6EEFCF5AF05AC05BF076
:1003A000D5DF592AEFD71200800E5B6EA6DFDFEF94
:1003B00001F0C00E5B6EA1DFE7EF01F0F5D7566AE2
:1003C00056501F081FE35650100801E1F2D756504F
:1003D000160804E1010E5B6EB9DF12D05650170803
:1003E00003E15B6AB3DF0CD0036A5650260FE96E57
:1003F000000E0320EA6EEFCF57F057C05BF0A6DF88
:10040000562ADED71200280E5E6E5EDE6DD671D6DD
:1004100085D789D78DD7EA6A260EE96EF2CF56F0D6
:10042000F29E200E016EF76A000E35DE0A0009000A
:10043000F5CFEEFF012EFBD756BEF28E566A586AF4
:10044000460E576E94DF010E566E586A4E0E576E6A
:100450008EDFB4DFACEF00F00400ADEF00F0010E72
:10046000006E5950016E04E0D8900036012EFCD782
:100470000050581402E1000E01D0010E016E46EF4B
:1004800002F056C058F057C059F0E9D7015203E1C5
:10049000D890243603D0D890243624802450070BDB
:1004A000070805E1010E256E016E0BD00AD024501D
:1004B000070B05E1256A000E016E03D002D025C0AE
:0604C00001F0BCEF00F0AA
:020000040030CA
:0E00000000C81E0D000781000FC00FE00F406A
:00000001FF
;PIC18F4520
;CRC=5731  CREATED="13-Jul-23 10:50"
